{
	"contracts/MyPiggBank.sol": {
		"MyPiggyBank": {
			"abi": [
				{
					"inputs": [],
					"stateMutability": "nonpayable",
					"type": "constructor"
				},
				{
					"inputs": [],
					"name": "cash",
					"outputs": [
						{
							"internalType": "uint256",
							"name": "",
							"type": "uint256"
						}
					],
					"stateMutability": "view",
					"type": "function"
				},
				{
					"inputs": [],
					"name": "deposit",
					"outputs": [],
					"stateMutability": "payable",
					"type": "function"
				},
				{
					"inputs": [],
					"name": "depositRatio",
					"outputs": [
						{
							"internalType": "uint256",
							"name": "",
							"type": "uint256"
						}
					],
					"stateMutability": "view",
					"type": "function"
				},
				{
					"inputs": [
						{
							"internalType": "uint256",
							"name": "_depositRatio",
							"type": "uint256"
						}
					],
					"name": "updateDepositRatio",
					"outputs": [],
					"stateMutability": "nonpayable",
					"type": "function"
				},
				{
					"inputs": [
						{
							"internalType": "uint256",
							"name": "amount",
							"type": "uint256"
						}
					],
					"name": "withdrawCash",
					"outputs": [],
					"stateMutability": "nonpayable",
					"type": "function"
				},
				{
					"inputs": [
						{
							"internalType": "uint256",
							"name": "amount",
							"type": "uint256"
						}
					],
					"name": "withdrawDeposit",
					"outputs": [],
					"stateMutability": "nonpayable",
					"type": "function"
				}
			],
			"devdoc": {
				"kind": "dev",
				"methods": {},
				"version": 1
			},
			"evm": {
				"assembly": "    /* \"contracts/MyPiggBank.sol\":56:3361  contract MyPiggyBank {... */\n  mstore(0x40, 0x80)\n    /* \"contracts/MyPiggBank.sol\":1057:1062  false */\n  0x00\n    /* \"contracts/MyPiggBank.sol\":1040:1062  bool isDeposit = false */\n  0x04\n  exp(0x0100, 0x00)\n  dup2\n  sload\n  dup2\n  0xff\n  mul\n  not\n  and\n  swap1\n  dup4\n  iszero\n  iszero\n  mul\n  or\n  swap1\n  sstore\n  pop\n    /* \"contracts/MyPiggBank.sol\":1069:1118  constructor() {... */\n  callvalue\n  dup1\n  iszero\n  tag_1\n  jumpi\n  revert(0x00, 0x00)\ntag_1:\n  pop\n    /* \"contracts/MyPiggBank.sol\":1101:1111  msg.sender */\n  caller\n    /* \"contracts/MyPiggBank.sol\":1093:1098  owner */\n  0x01\n  0x00\n    /* \"contracts/MyPiggBank.sol\":1093:1111  owner = msg.sender */\n  0x0100\n  exp\n  dup2\n  sload\n  dup2\n  0xffffffffffffffffffffffffffffffffffffffff\n  mul\n  not\n  and\n  swap1\n  dup4\n  0xffffffffffffffffffffffffffffffffffffffff\n  and\n  mul\n  or\n  swap1\n  sstore\n  pop\n    /* \"contracts/MyPiggBank.sol\":56:3361  contract MyPiggyBank {... */\n  dataSize(sub_0)\n  dup1\n  dataOffset(sub_0)\n  0x00\n  codecopy\n  0x00\n  return\nstop\n\nsub_0: assembly {\n        /* \"contracts/MyPiggBank.sol\":56:3361  contract MyPiggyBank {... */\n      mstore(0x40, 0x80)\n      jumpi(tag_1, lt(calldatasize, 0x04))\n      shr(0xe0, calldataload(0x00))\n      dup1\n      0x27e092a2\n      eq\n      tag_2\n      jumpi\n      dup1\n      0x33289a46\n      eq\n      tag_3\n      jumpi\n      dup1\n      0x83e4cccf\n      eq\n      tag_4\n      jumpi\n      dup1\n      0x961be391\n      eq\n      tag_5\n      jumpi\n      dup1\n      0xc6f0837a\n      eq\n      tag_6\n      jumpi\n      dup1\n      0xd0e30db0\n      eq\n      tag_7\n      jumpi\n    tag_1:\n      revert(0x00, 0x00)\n        /* \"contracts/MyPiggBank.sol\":1124:1308  function updateDepositRatio(... */\n    tag_2:\n      callvalue\n      dup1\n      iszero\n      tag_8\n      jumpi\n      revert(0x00, 0x00)\n    tag_8:\n      pop\n      tag_9\n      0x04\n      dup1\n      calldatasize\n      sub\n      dup2\n      add\n      swap1\n      tag_10\n      swap2\n      swap1\n      tag_11\n      jump\t// in\n    tag_10:\n      tag_12\n      jump\t// in\n    tag_9:\n      stop\n        /* \"contracts/MyPiggBank.sol\":2142:2935  function withdrawDeposit(uint256 amount) external onlyOwner {... */\n    tag_3:\n      callvalue\n      dup1\n      iszero\n      tag_13\n      jumpi\n      revert(0x00, 0x00)\n    tag_13:\n      pop\n      tag_14\n      0x04\n      dup1\n      calldatasize\n      sub\n      dup2\n      add\n      swap1\n      tag_15\n      swap2\n      swap1\n      tag_11\n      jump\t// in\n    tag_15:\n      tag_16\n      jump\t// in\n    tag_14:\n      stop\n        /* \"contracts/MyPiggBank.sol\":1911:2098  function withdrawCash(uint256 amount) external onlyOwner {... */\n    tag_4:\n      callvalue\n      dup1\n      iszero\n      tag_17\n      jumpi\n      revert(0x00, 0x00)\n    tag_17:\n      pop\n      tag_18\n      0x04\n      dup1\n      calldatasize\n      sub\n      dup2\n      add\n      swap1\n      tag_19\n      swap2\n      swap1\n      tag_11\n      jump\t// in\n    tag_19:\n      tag_20\n      jump\t// in\n    tag_18:\n      stop\n        /* \"contracts/MyPiggBank.sol\":681:700  uint256 public cash */\n    tag_5:\n      callvalue\n      dup1\n      iszero\n      tag_21\n      jumpi\n      revert(0x00, 0x00)\n    tag_21:\n      pop\n      tag_22\n      tag_23\n      jump\t// in\n    tag_22:\n      mload(0x40)\n      tag_24\n      swap2\n      swap1\n      tag_25\n      jump\t// in\n    tag_24:\n      mload(0x40)\n      dup1\n      swap2\n      sub\n      swap1\n      return\n        /* \"contracts/MyPiggBank.sol\":1006:1033  uint256 public depositRatio */\n    tag_6:\n      callvalue\n      dup1\n      iszero\n      tag_26\n      jumpi\n      revert(0x00, 0x00)\n    tag_26:\n      pop\n      tag_27\n      tag_28\n      jump\t// in\n    tag_27:\n      mload(0x40)\n      tag_29\n      swap2\n      swap1\n      tag_25\n      jump\t// in\n    tag_29:\n      mload(0x40)\n      dup1\n      swap2\n      sub\n      swap1\n      return\n        /* \"contracts/MyPiggBank.sol\":1351:1879  function deposit() external payable sendMoreEth {... */\n    tag_7:\n      tag_30\n      tag_31\n      jump\t// in\n    tag_30:\n      stop\n        /* \"contracts/MyPiggBank.sol\":1124:1308  function updateDepositRatio(... */\n    tag_12:\n        /* \"contracts/MyPiggBank.sol\":1216:1229  _depositRatio */\n      dup1\n        /* \"contracts/MyPiggBank.sol\":270:276  10**18 */\n      0x0de0b6b3a7640000\n        /* \"contracts/MyPiggBank.sol\":255:268  _depositRatio */\n      dup2\n        /* \"contracts/MyPiggBank.sol\":255:277  _depositRatio/(10**18) */\n      tag_33\n      swap2\n      swap1\n      tag_34\n      jump\t// in\n    tag_33:\n        /* \"contracts/MyPiggBank.sol\":239:277  _depositRatio = _depositRatio/(10**18) */\n      swap1\n      pop\n        /* \"contracts/MyPiggBank.sol\":325:326  0 */\n      0x00\n        /* \"contracts/MyPiggBank.sol\":308:321  _depositRatio */\n      dup2\n        /* \"contracts/MyPiggBank.sol\":308:326  _depositRatio >= 0 */\n      lt\n      iszero\n        /* \"contracts/MyPiggBank.sol\":308:350  _depositRatio >= 0 || _depositRatio <= 100 */\n      dup1\n      tag_35\n      jumpi\n      pop\n        /* \"contracts/MyPiggBank.sol\":347:350  100 */\n      0x64\n        /* \"contracts/MyPiggBank.sol\":330:343  _depositRatio */\n      dup2\n        /* \"contracts/MyPiggBank.sol\":330:350  _depositRatio <= 100 */\n      gt\n      iszero\n        /* \"contracts/MyPiggBank.sol\":308:350  _depositRatio >= 0 || _depositRatio <= 100 */\n    tag_35:\n        /* \"contracts/MyPiggBank.sol\":287:415  require(... */\n      tag_36\n      jumpi\n      mload(0x40)\n      0x08c379a000000000000000000000000000000000000000000000000000000000\n      dup2\n      mstore\n      0x04\n      add\n      tag_37\n      swap1\n      tag_38\n      jump\t// in\n    tag_37:\n      mload(0x40)\n      dup1\n      swap2\n      sub\n      swap1\n      revert\n    tag_36:\n        /* \"contracts/MyPiggBank.sol\":482:491  isDeposit */\n      0x04\n      0x00\n      swap1\n      sload\n      swap1\n      0x0100\n      exp\n      swap1\n      div\n      0xff\n      and\n        /* \"contracts/MyPiggBank.sol\":481:491  !isDeposit */\n      iszero\n        /* \"contracts/MyPiggBank.sol\":473:507  require(!isDeposit, \" you can't \") */\n      tag_40\n      jumpi\n      mload(0x40)\n      0x08c379a000000000000000000000000000000000000000000000000000000000\n      dup2\n      mstore\n      0x04\n      add\n      tag_41\n      swap1\n      tag_42\n      jump\t// in\n    tag_41:\n      mload(0x40)\n      dup1\n      swap2\n      sub\n      swap1\n      revert\n    tag_40:\n        /* \"contracts/MyPiggBank.sol\":136:141  owner */\n      0x01\n      0x00\n      swap1\n      sload\n      swap1\n      0x0100\n      exp\n      swap1\n      div\n      0xffffffffffffffffffffffffffffffffffffffff\n      and\n        /* \"contracts/MyPiggBank.sol\":122:141  msg.sender == owner */\n      0xffffffffffffffffffffffffffffffffffffffff\n      and\n        /* \"contracts/MyPiggBank.sol\":122:132  msg.sender */\n      caller\n        /* \"contracts/MyPiggBank.sol\":122:141  msg.sender == owner */\n      0xffffffffffffffffffffffffffffffffffffffff\n      and\n      eq\n        /* \"contracts/MyPiggBank.sol\":114:155  require(msg.sender == owner, \"Not owner\") */\n      tag_44\n      jumpi\n      mload(0x40)\n      0x08c379a000000000000000000000000000000000000000000000000000000000\n      dup2\n      mstore\n      0x04\n      add\n      tag_45\n      swap1\n      tag_46\n      jump\t// in\n    tag_45:\n      mload(0x40)\n      dup1\n      swap2\n      sub\n      swap1\n      revert\n    tag_44:\n        /* \"contracts/MyPiggBank.sol\":1279:1292  _depositRatio */\n      dup2\n        /* \"contracts/MyPiggBank.sol\":1264:1276  depositRatio */\n      0x03\n        /* \"contracts/MyPiggBank.sol\":1264:1292  depositRatio = _depositRatio */\n      dup2\n      swap1\n      sstore\n      pop\n        /* \"contracts/MyPiggBank.sol\":1124:1308  function updateDepositRatio(... */\n      pop\n      pop\n      jump\t// out\n        /* \"contracts/MyPiggBank.sol\":2142:2935  function withdrawDeposit(uint256 amount) external onlyOwner {... */\n    tag_16:\n        /* \"contracts/MyPiggBank.sol\":136:141  owner */\n      0x01\n      0x00\n      swap1\n      sload\n      swap1\n      0x0100\n      exp\n      swap1\n      div\n      0xffffffffffffffffffffffffffffffffffffffff\n      and\n        /* \"contracts/MyPiggBank.sol\":122:141  msg.sender == owner */\n      0xffffffffffffffffffffffffffffffffffffffff\n      and\n        /* \"contracts/MyPiggBank.sol\":122:132  msg.sender */\n      caller\n        /* \"contracts/MyPiggBank.sol\":122:141  msg.sender == owner */\n      0xffffffffffffffffffffffffffffffffffffffff\n      and\n      eq\n        /* \"contracts/MyPiggBank.sol\":114:155  require(msg.sender == owner, \"Not owner\") */\n      tag_49\n      jumpi\n      mload(0x40)\n      0x08c379a000000000000000000000000000000000000000000000000000000000\n      dup2\n      mstore\n      0x04\n      add\n      tag_50\n      swap1\n      tag_46\n      jump\t// in\n    tag_50:\n      mload(0x40)\n      dup1\n      swap2\n      sub\n      swap1\n      revert\n    tag_49:\n        /* \"contracts/MyPiggBank.sol\":2213:2233  uint[] memory _index */\n      0x00\n        /* \"contracts/MyPiggBank.sol\":2235:2250  uint256 amounts */\n      0x00\n        /* \"contracts/MyPiggBank.sol\":2254:2269  getDepistInfo() */\n      tag_52\n        /* \"contracts/MyPiggBank.sol\":2254:2267  getDepistInfo */\n      tag_53\n        /* \"contracts/MyPiggBank.sol\":2254:2269  getDepistInfo() */\n      jump\t// in\n    tag_52:\n        /* \"contracts/MyPiggBank.sol\":2212:2269  (uint[] memory _index, uint256 amounts) = getDepistInfo() */\n      swap2\n      pop\n      swap2\n      pop\n        /* \"contracts/MyPiggBank.sol\":2316:2317  0 */\n      0x00\n        /* \"contracts/MyPiggBank.sol\":2300:2306  _index */\n      dup3\n        /* \"contracts/MyPiggBank.sol\":2300:2313  _index.length */\n      mload\n        /* \"contracts/MyPiggBank.sol\":2300:2317  _index.length > 0 */\n      gt\n        /* \"contracts/MyPiggBank.sol\":2300:2338  _index.length > 0 && amounts >= amount */\n      dup1\n      iszero\n      tag_54\n      jumpi\n      pop\n        /* \"contracts/MyPiggBank.sol\":2332:2338  amount */\n      dup3\n        /* \"contracts/MyPiggBank.sol\":2321:2328  amounts */\n      dup2\n        /* \"contracts/MyPiggBank.sol\":2321:2338  amounts >= amount */\n      lt\n      iszero\n        /* \"contracts/MyPiggBank.sol\":2300:2338  _index.length > 0 && amounts >= amount */\n    tag_54:\n        /* \"contracts/MyPiggBank.sol\":2279:2401  require(... */\n      tag_55\n      jumpi\n      mload(0x40)\n      0x08c379a000000000000000000000000000000000000000000000000000000000\n      dup2\n      mstore\n      0x04\n      add\n      tag_56\n      swap1\n      tag_57\n      jump\t// in\n    tag_56:\n      mload(0x40)\n      dup1\n      swap2\n      sub\n      swap1\n      revert\n    tag_55:\n        /* \"contracts/MyPiggBank.sol\":2419:2429  msg.sender */\n      caller\n        /* \"contracts/MyPiggBank.sol\":2411:2439  payable(msg.sender).transfer */\n      0xffffffffffffffffffffffffffffffffffffffff\n      and\n        /* \"contracts/MyPiggBank.sol\":2411:2447  payable(msg.sender).transfer(amount) */\n      0x08fc\n        /* \"contracts/MyPiggBank.sol\":2440:2446  amount */\n      dup5\n        /* \"contracts/MyPiggBank.sol\":2411:2447  payable(msg.sender).transfer(amount) */\n      swap1\n      dup2\n      iszero\n      mul\n      swap1\n      mload(0x40)\n      0x00\n      mload(0x40)\n      dup1\n      dup4\n      sub\n      dup2\n      dup6\n      dup9\n      dup9\n      call\n      swap4\n      pop\n      pop\n      pop\n      pop\n      iszero\n      dup1\n      iszero\n      tag_59\n      jumpi\n      returndatacopy(0x00, 0x00, returndatasize)\n      revert(0x00, returndatasize)\n    tag_59:\n      pop\n        /* \"contracts/MyPiggBank.sol\":2462:2468  uint i */\n      0x00\n        /* \"contracts/MyPiggBank.sol\":2471:2472  0 */\n      0x00\n        /* \"contracts/MyPiggBank.sol\":2462:2472  uint i = 0 */\n      swap1\n      pop\n        /* \"contracts/MyPiggBank.sol\":2457:2929  for (uint i = 0; i < _index.length; i++) {... */\n    tag_60:\n        /* \"contracts/MyPiggBank.sol\":2478:2484  _index */\n      dup3\n        /* \"contracts/MyPiggBank.sol\":2478:2491  _index.length */\n      mload\n        /* \"contracts/MyPiggBank.sol\":2474:2475  i */\n      dup2\n        /* \"contracts/MyPiggBank.sol\":2474:2491  i < _index.length */\n      lt\n        /* \"contracts/MyPiggBank.sol\":2457:2929  for (uint i = 0; i < _index.length; i++) {... */\n      iszero\n      tag_61\n      jumpi\n        /* \"contracts/MyPiggBank.sol\":2512:2534  uint256 _depositAmount */\n      0x00\n        /* \"contracts/MyPiggBank.sol\":2537:2555  depositReceiptInfo */\n      0x02\n        /* \"contracts/MyPiggBank.sol\":2556:2562  _index */\n      dup5\n        /* \"contracts/MyPiggBank.sol\":2563:2564  i */\n      dup4\n        /* \"contracts/MyPiggBank.sol\":2556:2565  _index[i] */\n      dup2\n      mload\n      dup2\n      lt\n      tag_63\n      jumpi\n      tag_64\n      tag_65\n      jump\t// in\n    tag_64:\n    tag_63:\n      0x20\n      mul\n      0x20\n      add\n      add\n      mload\n        /* \"contracts/MyPiggBank.sol\":2537:2566  depositReceiptInfo[_index[i]] */\n      dup2\n      sload\n      dup2\n      lt\n      tag_66\n      jumpi\n      tag_67\n      tag_65\n      jump\t// in\n    tag_67:\n    tag_66:\n      swap1\n      0x00\n      mstore\n      keccak256(0x00, 0x20)\n      swap1\n      0x02\n      mul\n      add\n        /* \"contracts/MyPiggBank.sol\":2537:2597  depositReceiptInfo[_index[i]]... */\n      0x01\n      add\n      sload\n        /* \"contracts/MyPiggBank.sol\":2512:2597  uint256 _depositAmount = depositReceiptInfo[_index[i]]... */\n      swap1\n      pop\n        /* \"contracts/MyPiggBank.sol\":2633:2639  amount */\n      dup5\n        /* \"contracts/MyPiggBank.sol\":2615:2629  _depositAmount */\n      dup2\n        /* \"contracts/MyPiggBank.sol\":2615:2639  _depositAmount <= amount */\n      gt\n        /* \"contracts/MyPiggBank.sol\":2611:2919  if (_depositAmount <= amount) {... */\n      tag_69\n      jumpi\n        /* \"contracts/MyPiggBank.sol\":2705:2706  0 */\n      0x00\n        /* \"contracts/MyPiggBank.sol\":2659:2677  depositReceiptInfo */\n      0x02\n        /* \"contracts/MyPiggBank.sol\":2678:2684  _index */\n      dup6\n        /* \"contracts/MyPiggBank.sol\":2685:2686  i */\n      dup5\n        /* \"contracts/MyPiggBank.sol\":2678:2687  _index[i] */\n      dup2\n      mload\n      dup2\n      lt\n      tag_70\n      jumpi\n      tag_71\n      tag_65\n      jump\t// in\n    tag_71:\n    tag_70:\n      0x20\n      mul\n      0x20\n      add\n      add\n      mload\n        /* \"contracts/MyPiggBank.sol\":2659:2688  depositReceiptInfo[_index[i]] */\n      dup2\n      sload\n      dup2\n      lt\n      tag_72\n      jumpi\n      tag_73\n      tag_65\n      jump\t// in\n    tag_73:\n    tag_72:\n      swap1\n      0x00\n      mstore\n      keccak256(0x00, 0x20)\n      swap1\n      0x02\n      mul\n      add\n        /* \"contracts/MyPiggBank.sol\":2659:2702  depositReceiptInfo[_index[i]].depositAmount */\n      0x01\n      add\n        /* \"contracts/MyPiggBank.sol\":2659:2706  depositReceiptInfo[_index[i]].depositAmount = 0 */\n      dup2\n      swap1\n      sstore\n      pop\n        /* \"contracts/MyPiggBank.sol\":2734:2748  _depositAmount */\n      dup1\n        /* \"contracts/MyPiggBank.sol\":2724:2748  amount -= _depositAmount */\n      dup6\n      tag_75\n      swap2\n      swap1\n      tag_76\n      jump\t// in\n    tag_75:\n      swap5\n      pop\n        /* \"contracts/MyPiggBank.sol\":2611:2919  if (_depositAmount <= amount) {... */\n      jump(tag_77)\n    tag_69:\n        /* \"contracts/MyPiggBank.sol\":2862:2876  _depositAmount */\n      dup1\n        /* \"contracts/MyPiggBank.sol\":2853:2859  amount */\n      dup6\n        /* \"contracts/MyPiggBank.sol\":2853:2876  amount - _depositAmount */\n      tag_78\n      swap2\n      swap1\n      tag_76\n      jump\t// in\n    tag_78:\n        /* \"contracts/MyPiggBank.sol\":2787:2805  depositReceiptInfo */\n      0x02\n        /* \"contracts/MyPiggBank.sol\":2806:2812  _index */\n      dup6\n        /* \"contracts/MyPiggBank.sol\":2813:2814  i */\n      dup5\n        /* \"contracts/MyPiggBank.sol\":2806:2815  _index[i] */\n      dup2\n      mload\n      dup2\n      lt\n      tag_79\n      jumpi\n      tag_80\n      tag_65\n      jump\t// in\n    tag_80:\n    tag_79:\n      0x20\n      mul\n      0x20\n      add\n      add\n      mload\n        /* \"contracts/MyPiggBank.sol\":2787:2816  depositReceiptInfo[_index[i]] */\n      dup2\n      sload\n      dup2\n      lt\n      tag_81\n      jumpi\n      tag_82\n      tag_65\n      jump\t// in\n    tag_82:\n    tag_81:\n      swap1\n      0x00\n      mstore\n      keccak256(0x00, 0x20)\n      swap1\n      0x02\n      mul\n      add\n        /* \"contracts/MyPiggBank.sol\":2787:2830  depositReceiptInfo[_index[i]].depositAmount */\n      0x01\n      add\n        /* \"contracts/MyPiggBank.sol\":2787:2876  depositReceiptInfo[_index[i]].depositAmount =... */\n      dup2\n      swap1\n      sstore\n      pop\n        /* \"contracts/MyPiggBank.sol\":2903:2904  0 */\n      0x00\n        /* \"contracts/MyPiggBank.sol\":2894:2904  amount = 0 */\n      swap5\n      pop\n        /* \"contracts/MyPiggBank.sol\":2611:2919  if (_depositAmount <= amount) {... */\n    tag_77:\n        /* \"contracts/MyPiggBank.sol\":2498:2929  {... */\n      pop\n        /* \"contracts/MyPiggBank.sol\":2493:2496  i++ */\n      dup1\n      dup1\n      0x01\n      add\n      swap2\n      pop\n      pop\n        /* \"contracts/MyPiggBank.sol\":2457:2929  for (uint i = 0; i < _index.length; i++) {... */\n      jump(tag_60)\n    tag_61:\n      pop\n        /* \"contracts/MyPiggBank.sol\":2202:2935  {... */\n      pop\n      pop\n        /* \"contracts/MyPiggBank.sol\":2142:2935  function withdrawDeposit(uint256 amount) external onlyOwner {... */\n      pop\n      jump\t// out\n        /* \"contracts/MyPiggBank.sol\":1911:2098  function withdrawCash(uint256 amount) external onlyOwner {... */\n    tag_20:\n        /* \"contracts/MyPiggBank.sol\":136:141  owner */\n      0x01\n      0x00\n      swap1\n      sload\n      swap1\n      0x0100\n      exp\n      swap1\n      div\n      0xffffffffffffffffffffffffffffffffffffffff\n      and\n        /* \"contracts/MyPiggBank.sol\":122:141  msg.sender == owner */\n      0xffffffffffffffffffffffffffffffffffffffff\n      and\n        /* \"contracts/MyPiggBank.sol\":122:132  msg.sender */\n      caller\n        /* \"contracts/MyPiggBank.sol\":122:141  msg.sender == owner */\n      0xffffffffffffffffffffffffffffffffffffffff\n      and\n      eq\n        /* \"contracts/MyPiggBank.sol\":114:155  require(msg.sender == owner, \"Not owner\") */\n      tag_85\n      jumpi\n      mload(0x40)\n      0x08c379a000000000000000000000000000000000000000000000000000000000\n      dup2\n      mstore\n      0x04\n      add\n      tag_86\n      swap1\n      tag_46\n      jump\t// in\n    tag_86:\n      mload(0x40)\n      dup1\n      swap2\n      sub\n      swap1\n      revert\n    tag_85:\n        /* \"contracts/MyPiggBank.sol\":1994:2000  amount */\n      dup1\n        /* \"contracts/MyPiggBank.sol\":1986:1990  cash */\n      sload(0x00)\n        /* \"contracts/MyPiggBank.sol\":1986:2000  cash >= amount */\n      lt\n      iszero\n        /* \"contracts/MyPiggBank.sol\":1978:2021  require(cash >= amount, \"not enough cash \") */\n      tag_88\n      jumpi\n      mload(0x40)\n      0x08c379a000000000000000000000000000000000000000000000000000000000\n      dup2\n      mstore\n      0x04\n      add\n      tag_89\n      swap1\n      tag_90\n      jump\t// in\n    tag_89:\n      mload(0x40)\n      dup1\n      swap2\n      sub\n      swap1\n      revert\n    tag_88:\n        /* \"contracts/MyPiggBank.sol\":2039:2045  amount */\n      dup1\n        /* \"contracts/MyPiggBank.sol\":2031:2035  cash */\n      0x00\n      0x00\n        /* \"contracts/MyPiggBank.sol\":2031:2045  cash -= amount */\n      dup3\n      dup3\n      sload\n      tag_91\n      swap2\n      swap1\n      tag_76\n      jump\t// in\n    tag_91:\n      swap3\n      pop\n      pop\n      dup2\n      swap1\n      sstore\n      pop\n        /* \"contracts/MyPiggBank.sol\":2063:2073  msg.sender */\n      caller\n        /* \"contracts/MyPiggBank.sol\":2055:2083  payable(msg.sender).transfer */\n      0xffffffffffffffffffffffffffffffffffffffff\n      and\n        /* \"contracts/MyPiggBank.sol\":2055:2091  payable(msg.sender).transfer(amount) */\n      0x08fc\n        /* \"contracts/MyPiggBank.sol\":2084:2090  amount */\n      dup3\n        /* \"contracts/MyPiggBank.sol\":2055:2091  payable(msg.sender).transfer(amount) */\n      swap1\n      dup2\n      iszero\n      mul\n      swap1\n      mload(0x40)\n      0x00\n      mload(0x40)\n      dup1\n      dup4\n      sub\n      dup2\n      dup6\n      dup9\n      dup9\n      call\n      swap4\n      pop\n      pop\n      pop\n      pop\n      iszero\n      dup1\n      iszero\n      tag_93\n      jumpi\n      returndatacopy(0x00, 0x00, returndatasize)\n      revert(0x00, returndatasize)\n    tag_93:\n      pop\n        /* \"contracts/MyPiggBank.sol\":1911:2098  function withdrawCash(uint256 amount) external onlyOwner {... */\n      pop\n      jump\t// out\n        /* \"contracts/MyPiggBank.sol\":681:700  uint256 public cash */\n    tag_23:\n      sload(0x00)\n      dup2\n      jump\t// out\n        /* \"contracts/MyPiggBank.sol\":1006:1033  uint256 public depositRatio */\n    tag_28:\n      sload(0x03)\n      dup2\n      jump\t// out\n        /* \"contracts/MyPiggBank.sol\":1351:1879  function deposit() external payable sendMoreEth {... */\n    tag_31:\n        /* \"contracts/MyPiggBank.sol\":584:585  0 */\n      0x00\n        /* \"contracts/MyPiggBank.sol\":572:581  msg.value */\n      callvalue\n        /* \"contracts/MyPiggBank.sol\":572:585  msg.value > 0 */\n      gt\n        /* \"contracts/MyPiggBank.sol\":564:603  require(msg.value > 0, \"need send eth\") */\n      tag_95\n      jumpi\n      mload(0x40)\n      0x08c379a000000000000000000000000000000000000000000000000000000000\n      dup2\n      mstore\n      0x04\n      add\n      tag_96\n      swap1\n      tag_97\n      jump\t// in\n    tag_96:\n      mload(0x40)\n      dup1\n      swap2\n      sub\n      swap1\n      revert\n    tag_95:\n        /* \"contracts/MyPiggBank.sol\":1409:1429  uint256 _depositTime */\n      0x00\n        /* \"contracts/MyPiggBank.sol\":990:999  1 minutes */\n      0x3c\n        /* \"contracts/MyPiggBank.sol\":1432:1447  block.timestamp */\n      timestamp\n        /* \"contracts/MyPiggBank.sol\":1432:1460  block.timestamp + freezeTime */\n      tag_99\n      swap2\n      swap1\n      tag_100\n      jump\t// in\n    tag_99:\n        /* \"contracts/MyPiggBank.sol\":1409:1460  uint256 _depositTime = block.timestamp + freezeTime */\n      swap1\n      pop\n        /* \"contracts/MyPiggBank.sol\":1470:1492  uint256 _depoistAmount */\n      0x00\n        /* \"contracts/MyPiggBank.sol\":1522:1523  0 */\n      0x00\n        /* \"contracts/MyPiggBank.sol\":1506:1518  depositRatio */\n      sload(0x03)\n        /* \"contracts/MyPiggBank.sol\":1506:1523  depositRatio == 0 */\n      sub\n        /* \"contracts/MyPiggBank.sol\":1502:1762  if (depositRatio == 0) {... */\n      tag_101\n      jumpi\n        /* \"contracts/MyPiggBank.sol\":1556:1557  0 */\n      0x00\n        /* \"contracts/MyPiggBank.sol\":1539:1557  _depoistAmount = 0 */\n      swap1\n      pop\n        /* \"contracts/MyPiggBank.sol\":1502:1762  if (depositRatio == 0) {... */\n      jump(tag_102)\n    tag_101:\n        /* \"contracts/MyPiggBank.sol\":1634:1637  100 */\n      0x64\n        /* \"contracts/MyPiggBank.sol\":1618:1630  depositRatio */\n      sload(0x03)\n        /* \"contracts/MyPiggBank.sol\":1606:1615  msg.value */\n      callvalue\n        /* \"contracts/MyPiggBank.sol\":1606:1630  msg.value * depositRatio */\n      tag_103\n      swap2\n      swap1\n      tag_104\n      jump\t// in\n    tag_103:\n        /* \"contracts/MyPiggBank.sol\":1605:1637  (msg.value * depositRatio) / 100 */\n      tag_105\n      swap2\n      swap1\n      tag_34\n      jump\t// in\n    tag_105:\n        /* \"contracts/MyPiggBank.sol\":1588:1637  _depoistAmount = (msg.value * depositRatio) / 100 */\n      swap1\n      pop\n        /* \"contracts/MyPiggBank.sol\":1651:1669  depositReceiptInfo */\n      0x02\n        /* \"contracts/MyPiggBank.sol\":1692:1736  depositReceipt(_depositTime, _depoistAmount) */\n      mload(0x40)\n      dup1\n      0x40\n      add\n      0x40\n      mstore\n      dup1\n        /* \"contracts/MyPiggBank.sol\":1707:1719  _depositTime */\n      dup5\n        /* \"contracts/MyPiggBank.sol\":1692:1736  depositReceipt(_depositTime, _depoistAmount) */\n      dup2\n      mstore\n      0x20\n      add\n        /* \"contracts/MyPiggBank.sol\":1721:1735  _depoistAmount */\n      dup4\n        /* \"contracts/MyPiggBank.sol\":1692:1736  depositReceipt(_depositTime, _depoistAmount) */\n      dup2\n      mstore\n      pop\n        /* \"contracts/MyPiggBank.sol\":1651:1750  depositReceiptInfo.push(... */\n      swap1\n      dup1\n      0x01\n      dup2\n      sload\n      add\n      dup1\n      dup3\n      sstore\n      dup1\n      swap2\n      pop\n      pop\n      0x01\n      swap1\n      sub\n      swap1\n      0x00\n      mstore\n      keccak256(0x00, 0x20)\n      swap1\n      0x02\n      mul\n      add\n      0x00\n      swap1\n      swap2\n      swap1\n      swap2\n      swap1\n      swap2\n      pop\n      0x00\n      dup3\n      add\n      mload\n      dup2\n      0x00\n      add\n      sstore\n      0x20\n      dup3\n      add\n      mload\n      dup2\n      0x01\n      add\n      sstore\n      pop\n      pop\n        /* \"contracts/MyPiggBank.sol\":1502:1762  if (depositRatio == 0) {... */\n    tag_102:\n        /* \"contracts/MyPiggBank.sol\":1771:1790  uint256 splitAmount */\n      0x00\n        /* \"contracts/MyPiggBank.sol\":1805:1819  _depoistAmount */\n      dup2\n        /* \"contracts/MyPiggBank.sol\":1793:1802  msg.value */\n      callvalue\n        /* \"contracts/MyPiggBank.sol\":1793:1819  msg.value - _depoistAmount */\n      tag_107\n      swap2\n      swap1\n      tag_76\n      jump\t// in\n    tag_107:\n        /* \"contracts/MyPiggBank.sol\":1771:1819  uint256 splitAmount = msg.value - _depoistAmount */\n      swap1\n      pop\n        /* \"contracts/MyPiggBank.sol\":1837:1848  splitAmount */\n      dup1\n        /* \"contracts/MyPiggBank.sol\":1829:1833  cash */\n      0x00\n      0x00\n        /* \"contracts/MyPiggBank.sol\":1829:1848  cash += splitAmount */\n      dup3\n      dup3\n      sload\n      tag_108\n      swap2\n      swap1\n      tag_100\n      jump\t// in\n    tag_108:\n      swap3\n      pop\n      pop\n      dup2\n      swap1\n      sstore\n      pop\n        /* \"contracts/MyPiggBank.sol\":1868:1872  true */\n      0x01\n        /* \"contracts/MyPiggBank.sol\":1858:1867  isDeposit */\n      0x04\n      0x00\n        /* \"contracts/MyPiggBank.sol\":1858:1872  isDeposit=true */\n      0x0100\n      exp\n      dup2\n      sload\n      dup2\n      0xff\n      mul\n      not\n      and\n      swap1\n      dup4\n      iszero\n      iszero\n      mul\n      or\n      swap1\n      sstore\n      pop\n        /* \"contracts/MyPiggBank.sol\":1399:1879  {... */\n      pop\n      pop\n      pop\n        /* \"contracts/MyPiggBank.sol\":1351:1879  function deposit() external payable sendMoreEth {... */\n      jump\t// out\n        /* \"contracts/MyPiggBank.sol\":2941:3359  function getDepistInfo()... */\n    tag_53:\n        /* \"contracts/MyPiggBank.sol\":3013:3033  uint[] memory _index */\n      0x60\n        /* \"contracts/MyPiggBank.sol\":3035:3049  uint256 amount */\n      0x00\n        /* \"contracts/MyPiggBank.sol\":3065:3071  uint j */\n      0x00\n        /* \"contracts/MyPiggBank.sol\":3074:3075  0 */\n      0x00\n        /* \"contracts/MyPiggBank.sol\":3065:3075  uint j = 0 */\n      swap1\n      pop\n        /* \"contracts/MyPiggBank.sol\":3090:3099  uint256 i */\n      0x00\n        /* \"contracts/MyPiggBank.sol\":3102:3103  0 */\n      0x00\n        /* \"contracts/MyPiggBank.sol\":3090:3103  uint256 i = 0 */\n      swap1\n      pop\n        /* \"contracts/MyPiggBank.sol\":3085:3353  for (uint256 i = 0; i < depositReceiptInfo.length; i++) {... */\n    tag_110:\n        /* \"contracts/MyPiggBank.sol\":3109:3127  depositReceiptInfo */\n      0x02\n        /* \"contracts/MyPiggBank.sol\":3109:3134  depositReceiptInfo.length */\n      dup1\n      sload\n      swap1\n      pop\n        /* \"contracts/MyPiggBank.sol\":3105:3106  i */\n      dup2\n        /* \"contracts/MyPiggBank.sol\":3105:3134  i < depositReceiptInfo.length */\n      lt\n        /* \"contracts/MyPiggBank.sol\":3085:3353  for (uint256 i = 0; i < depositReceiptInfo.length; i++) {... */\n      iszero\n      tag_111\n      jumpi\n        /* \"contracts/MyPiggBank.sol\":3196:3211  block.timestamp */\n      timestamp\n        /* \"contracts/MyPiggBank.sol\":3159:3177  depositReceiptInfo */\n      0x02\n        /* \"contracts/MyPiggBank.sol\":3178:3179  i */\n      dup3\n        /* \"contracts/MyPiggBank.sol\":3159:3180  depositReceiptInfo[i] */\n      dup2\n      sload\n      dup2\n      lt\n      tag_113\n      jumpi\n      tag_114\n      tag_65\n      jump\t// in\n    tag_114:\n    tag_113:\n      swap1\n      0x00\n      mstore\n      keccak256(0x00, 0x20)\n      swap1\n      0x02\n      mul\n      add\n        /* \"contracts/MyPiggBank.sol\":3159:3192  depositReceiptInfo[i].depositTime */\n      0x00\n      add\n      sload\n        /* \"contracts/MyPiggBank.sol\":3159:3211  depositReceiptInfo[i].depositTime <= block.timestamp */\n      gt\n        /* \"contracts/MyPiggBank.sol\":3155:3343  if (depositReceiptInfo[i].depositTime <= block.timestamp) {... */\n      tag_116\n      jumpi\n        /* \"contracts/MyPiggBank.sol\":3243:3244  i */\n      dup1\n        /* \"contracts/MyPiggBank.sol\":3231:3237  _index */\n      dup5\n        /* \"contracts/MyPiggBank.sol\":3238:3239  j */\n      dup4\n        /* \"contracts/MyPiggBank.sol\":3231:3240  _index[j] */\n      dup2\n      mload\n      dup2\n      lt\n      tag_117\n      jumpi\n      tag_118\n      tag_65\n      jump\t// in\n    tag_118:\n    tag_117:\n      0x20\n      mul\n      0x20\n      add\n      add\n        /* \"contracts/MyPiggBank.sol\":3231:3244  _index[j] = i */\n      dup2\n      dup2\n      mstore\n      pop\n      pop\n        /* \"contracts/MyPiggBank.sol\":3272:3290  depositReceiptInfo */\n      0x02\n        /* \"contracts/MyPiggBank.sol\":3291:3292  i */\n      dup2\n        /* \"contracts/MyPiggBank.sol\":3272:3293  depositReceiptInfo[i] */\n      dup2\n      sload\n      dup2\n      lt\n      tag_119\n      jumpi\n      tag_120\n      tag_65\n      jump\t// in\n    tag_120:\n    tag_119:\n      swap1\n      0x00\n      mstore\n      keccak256(0x00, 0x20)\n      swap1\n      0x02\n      mul\n      add\n        /* \"contracts/MyPiggBank.sol\":3272:3307  depositReceiptInfo[i].depositAmount */\n      0x01\n      add\n      sload\n        /* \"contracts/MyPiggBank.sol\":3262:3307  amount += depositReceiptInfo[i].depositAmount */\n      dup4\n      tag_122\n      swap2\n      swap1\n      tag_100\n      jump\t// in\n    tag_122:\n      swap3\n      pop\n        /* \"contracts/MyPiggBank.sol\":3325:3328  j++ */\n      dup2\n      dup1\n      tag_123\n      swap1\n      tag_124\n      jump\t// in\n    tag_123:\n      swap3\n      pop\n      pop\n        /* \"contracts/MyPiggBank.sol\":3155:3343  if (depositReceiptInfo[i].depositTime <= block.timestamp) {... */\n    tag_116:\n        /* \"contracts/MyPiggBank.sol\":3136:3139  i++ */\n      dup1\n      dup1\n      0x01\n      add\n      swap2\n      pop\n      pop\n        /* \"contracts/MyPiggBank.sol\":3085:3353  for (uint256 i = 0; i < depositReceiptInfo.length; i++) {... */\n      jump(tag_110)\n    tag_111:\n      pop\n        /* \"contracts/MyPiggBank.sol\":3055:3359  {... */\n      pop\n        /* \"contracts/MyPiggBank.sol\":2941:3359  function getDepistInfo()... */\n      swap1\n      swap2\n      jump\t// out\n        /* \"#utility.yul\":88:205   */\n    tag_126:\n        /* \"#utility.yul\":197:198   */\n      0x00\n        /* \"#utility.yul\":194:195   */\n      0x00\n        /* \"#utility.yul\":187:199   */\n      revert\n        /* \"#utility.yul\":334:411   */\n    tag_128:\n        /* \"#utility.yul\":371:378   */\n      0x00\n        /* \"#utility.yul\":400:405   */\n      dup2\n        /* \"#utility.yul\":389:405   */\n      swap1\n      pop\n        /* \"#utility.yul\":334:411   */\n      swap2\n      swap1\n      pop\n      jump\t// out\n        /* \"#utility.yul\":417:539   */\n    tag_129:\n        /* \"#utility.yul\":490:514   */\n      tag_153\n        /* \"#utility.yul\":508:513   */\n      dup2\n        /* \"#utility.yul\":490:514   */\n      tag_128\n      jump\t// in\n    tag_153:\n        /* \"#utility.yul\":483:488   */\n      dup2\n        /* \"#utility.yul\":480:515   */\n      eq\n        /* \"#utility.yul\":470:533   */\n      tag_154\n      jumpi\n        /* \"#utility.yul\":529:530   */\n      0x00\n        /* \"#utility.yul\":526:527   */\n      0x00\n        /* \"#utility.yul\":519:531   */\n      revert\n        /* \"#utility.yul\":470:533   */\n    tag_154:\n        /* \"#utility.yul\":417:539   */\n      pop\n      jump\t// out\n        /* \"#utility.yul\":545:684   */\n    tag_130:\n        /* \"#utility.yul\":591:596   */\n      0x00\n        /* \"#utility.yul\":629:635   */\n      dup2\n        /* \"#utility.yul\":616:636   */\n      calldataload\n        /* \"#utility.yul\":607:636   */\n      swap1\n      pop\n        /* \"#utility.yul\":645:678   */\n      tag_156\n        /* \"#utility.yul\":672:677   */\n      dup2\n        /* \"#utility.yul\":645:678   */\n      tag_129\n      jump\t// in\n    tag_156:\n        /* \"#utility.yul\":545:684   */\n      swap3\n      swap2\n      pop\n      pop\n      jump\t// out\n        /* \"#utility.yul\":690:1019   */\n    tag_11:\n        /* \"#utility.yul\":749:755   */\n      0x00\n        /* \"#utility.yul\":798:800   */\n      0x20\n        /* \"#utility.yul\":786:795   */\n      dup3\n        /* \"#utility.yul\":777:784   */\n      dup5\n        /* \"#utility.yul\":773:796   */\n      sub\n        /* \"#utility.yul\":769:801   */\n      slt\n        /* \"#utility.yul\":766:885   */\n      iszero\n      tag_158\n      jumpi\n        /* \"#utility.yul\":804:883   */\n      tag_159\n      tag_126\n      jump\t// in\n    tag_159:\n        /* \"#utility.yul\":766:885   */\n    tag_158:\n        /* \"#utility.yul\":924:925   */\n      0x00\n        /* \"#utility.yul\":949:1002   */\n      tag_160\n        /* \"#utility.yul\":994:1001   */\n      dup5\n        /* \"#utility.yul\":985:991   */\n      dup3\n        /* \"#utility.yul\":974:983   */\n      dup6\n        /* \"#utility.yul\":970:992   */\n      add\n        /* \"#utility.yul\":949:1002   */\n      tag_130\n      jump\t// in\n    tag_160:\n        /* \"#utility.yul\":939:1002   */\n      swap2\n      pop\n        /* \"#utility.yul\":895:1012   */\n      pop\n        /* \"#utility.yul\":690:1019   */\n      swap3\n      swap2\n      pop\n      pop\n      jump\t// out\n        /* \"#utility.yul\":1025:1143   */\n    tag_131:\n        /* \"#utility.yul\":1112:1136   */\n      tag_162\n        /* \"#utility.yul\":1130:1135   */\n      dup2\n        /* \"#utility.yul\":1112:1136   */\n      tag_128\n      jump\t// in\n    tag_162:\n        /* \"#utility.yul\":1107:1110   */\n      dup3\n        /* \"#utility.yul\":1100:1137   */\n      mstore\n        /* \"#utility.yul\":1025:1143   */\n      pop\n      pop\n      jump\t// out\n        /* \"#utility.yul\":1149:1371   */\n    tag_25:\n        /* \"#utility.yul\":1242:1246   */\n      0x00\n        /* \"#utility.yul\":1280:1282   */\n      0x20\n        /* \"#utility.yul\":1269:1278   */\n      dup3\n        /* \"#utility.yul\":1265:1283   */\n      add\n        /* \"#utility.yul\":1257:1283   */\n      swap1\n      pop\n        /* \"#utility.yul\":1293:1364   */\n      tag_164\n        /* \"#utility.yul\":1361:1362   */\n      0x00\n        /* \"#utility.yul\":1350:1359   */\n      dup4\n        /* \"#utility.yul\":1346:1363   */\n      add\n        /* \"#utility.yul\":1337:1343   */\n      dup5\n        /* \"#utility.yul\":1293:1364   */\n      tag_131\n      jump\t// in\n    tag_164:\n        /* \"#utility.yul\":1149:1371   */\n      swap3\n      swap2\n      pop\n      pop\n      jump\t// out\n        /* \"#utility.yul\":1377:1557   */\n    tag_132:\n        /* \"#utility.yul\":1425:1502   */\n      0x4e487b7100000000000000000000000000000000000000000000000000000000\n        /* \"#utility.yul\":1422:1423   */\n      0x00\n        /* \"#utility.yul\":1415:1503   */\n      mstore\n        /* \"#utility.yul\":1522:1526   */\n      0x12\n        /* \"#utility.yul\":1519:1520   */\n      0x04\n        /* \"#utility.yul\":1512:1527   */\n      mstore\n        /* \"#utility.yul\":1546:1550   */\n      0x24\n        /* \"#utility.yul\":1543:1544   */\n      0x00\n        /* \"#utility.yul\":1536:1551   */\n      revert\n        /* \"#utility.yul\":1563:1743   */\n    tag_133:\n        /* \"#utility.yul\":1611:1688   */\n      0x4e487b7100000000000000000000000000000000000000000000000000000000\n        /* \"#utility.yul\":1608:1609   */\n      0x00\n        /* \"#utility.yul\":1601:1689   */\n      mstore\n        /* \"#utility.yul\":1708:1712   */\n      0x11\n        /* \"#utility.yul\":1705:1706   */\n      0x04\n        /* \"#utility.yul\":1698:1713   */\n      mstore\n        /* \"#utility.yul\":1732:1736   */\n      0x24\n        /* \"#utility.yul\":1729:1730   */\n      0x00\n        /* \"#utility.yul\":1722:1737   */\n      revert\n        /* \"#utility.yul\":1749:1934   */\n    tag_34:\n        /* \"#utility.yul\":1789:1790   */\n      0x00\n        /* \"#utility.yul\":1806:1826   */\n      tag_168\n        /* \"#utility.yul\":1824:1825   */\n      dup3\n        /* \"#utility.yul\":1806:1826   */\n      tag_128\n      jump\t// in\n    tag_168:\n        /* \"#utility.yul\":1801:1826   */\n      swap2\n      pop\n        /* \"#utility.yul\":1840:1860   */\n      tag_169\n        /* \"#utility.yul\":1858:1859   */\n      dup4\n        /* \"#utility.yul\":1840:1860   */\n      tag_128\n      jump\t// in\n    tag_169:\n        /* \"#utility.yul\":1835:1860   */\n      swap3\n      pop\n        /* \"#utility.yul\":1879:1880   */\n      dup3\n        /* \"#utility.yul\":1869:1904   */\n      tag_170\n      jumpi\n        /* \"#utility.yul\":1884:1902   */\n      tag_171\n      tag_132\n      jump\t// in\n    tag_171:\n        /* \"#utility.yul\":1869:1904   */\n    tag_170:\n        /* \"#utility.yul\":1926:1927   */\n      dup3\n        /* \"#utility.yul\":1923:1924   */\n      dup3\n        /* \"#utility.yul\":1919:1928   */\n      div\n        /* \"#utility.yul\":1914:1928   */\n      swap1\n      pop\n        /* \"#utility.yul\":1749:1934   */\n      swap3\n      swap2\n      pop\n      pop\n      jump\t// out\n        /* \"#utility.yul\":1940:2109   */\n    tag_134:\n        /* \"#utility.yul\":2024:2035   */\n      0x00\n        /* \"#utility.yul\":2058:2064   */\n      dup3\n        /* \"#utility.yul\":2053:2056   */\n      dup3\n        /* \"#utility.yul\":2046:2065   */\n      mstore\n        /* \"#utility.yul\":2098:2102   */\n      0x20\n        /* \"#utility.yul\":2093:2096   */\n      dup3\n        /* \"#utility.yul\":2089:2103   */\n      add\n        /* \"#utility.yul\":2074:2103   */\n      swap1\n      pop\n        /* \"#utility.yul\":1940:2109   */\n      swap3\n      swap2\n      pop\n      pop\n      jump\t// out\n        /* \"#utility.yul\":2115:2341   */\n    tag_135:\n        /* \"#utility.yul\":2255:2289   */\n      0x6465706f736974526174696f206d757374206265206265747765656e20302061\n        /* \"#utility.yul\":2251:2252   */\n      0x00\n        /* \"#utility.yul\":2243:2249   */\n      dup3\n        /* \"#utility.yul\":2239:2253   */\n      add\n        /* \"#utility.yul\":2232:2290   */\n      mstore\n        /* \"#utility.yul\":2324:2333   */\n      0x6e64203130302000000000000000000000000000000000000000000000000000\n        /* \"#utility.yul\":2319:2321   */\n      0x20\n        /* \"#utility.yul\":2311:2317   */\n      dup3\n        /* \"#utility.yul\":2307:2322   */\n      add\n        /* \"#utility.yul\":2300:2334   */\n      mstore\n        /* \"#utility.yul\":2115:2341   */\n      pop\n      jump\t// out\n        /* \"#utility.yul\":2347:2713   */\n    tag_136:\n        /* \"#utility.yul\":2489:2492   */\n      0x00\n        /* \"#utility.yul\":2510:2577   */\n      tag_175\n        /* \"#utility.yul\":2574:2576   */\n      0x27\n        /* \"#utility.yul\":2569:2572   */\n      dup4\n        /* \"#utility.yul\":2510:2577   */\n      tag_134\n      jump\t// in\n    tag_175:\n        /* \"#utility.yul\":2503:2577   */\n      swap2\n      pop\n        /* \"#utility.yul\":2586:2679   */\n      tag_176\n        /* \"#utility.yul\":2675:2678   */\n      dup3\n        /* \"#utility.yul\":2586:2679   */\n      tag_135\n      jump\t// in\n    tag_176:\n        /* \"#utility.yul\":2704:2706   */\n      0x40\n        /* \"#utility.yul\":2699:2702   */\n      dup3\n        /* \"#utility.yul\":2695:2707   */\n      add\n        /* \"#utility.yul\":2688:2707   */\n      swap1\n      pop\n        /* \"#utility.yul\":2347:2713   */\n      swap2\n      swap1\n      pop\n      jump\t// out\n        /* \"#utility.yul\":2719:3138   */\n    tag_38:\n        /* \"#utility.yul\":2885:2889   */\n      0x00\n        /* \"#utility.yul\":2923:2925   */\n      0x20\n        /* \"#utility.yul\":2912:2921   */\n      dup3\n        /* \"#utility.yul\":2908:2926   */\n      add\n        /* \"#utility.yul\":2900:2926   */\n      swap1\n      pop\n        /* \"#utility.yul\":2972:2981   */\n      dup2\n        /* \"#utility.yul\":2966:2970   */\n      dup2\n        /* \"#utility.yul\":2962:2982   */\n      sub\n        /* \"#utility.yul\":2958:2959   */\n      0x00\n        /* \"#utility.yul\":2947:2956   */\n      dup4\n        /* \"#utility.yul\":2943:2960   */\n      add\n        /* \"#utility.yul\":2936:2983   */\n      mstore\n        /* \"#utility.yul\":3000:3131   */\n      tag_178\n        /* \"#utility.yul\":3126:3130   */\n      dup2\n        /* \"#utility.yul\":3000:3131   */\n      tag_136\n      jump\t// in\n    tag_178:\n        /* \"#utility.yul\":2992:3131   */\n      swap1\n      pop\n        /* \"#utility.yul\":2719:3138   */\n      swap2\n      swap1\n      pop\n      jump\t// out\n        /* \"#utility.yul\":3144:3305   */\n    tag_137:\n        /* \"#utility.yul\":3284:3297   */\n      0x20796f752063616e277420000000000000000000000000000000000000000000\n        /* \"#utility.yul\":3280:3281   */\n      0x00\n        /* \"#utility.yul\":3272:3278   */\n      dup3\n        /* \"#utility.yul\":3268:3282   */\n      add\n        /* \"#utility.yul\":3261:3298   */\n      mstore\n        /* \"#utility.yul\":3144:3305   */\n      pop\n      jump\t// out\n        /* \"#utility.yul\":3311:3677   */\n    tag_138:\n        /* \"#utility.yul\":3453:3456   */\n      0x00\n        /* \"#utility.yul\":3474:3541   */\n      tag_181\n        /* \"#utility.yul\":3538:3540   */\n      0x0b\n        /* \"#utility.yul\":3533:3536   */\n      dup4\n        /* \"#utility.yul\":3474:3541   */\n      tag_134\n      jump\t// in\n    tag_181:\n        /* \"#utility.yul\":3467:3541   */\n      swap2\n      pop\n        /* \"#utility.yul\":3550:3643   */\n      tag_182\n        /* \"#utility.yul\":3639:3642   */\n      dup3\n        /* \"#utility.yul\":3550:3643   */\n      tag_137\n      jump\t// in\n    tag_182:\n        /* \"#utility.yul\":3668:3670   */\n      0x20\n        /* \"#utility.yul\":3663:3666   */\n      dup3\n        /* \"#utility.yul\":3659:3671   */\n      add\n        /* \"#utility.yul\":3652:3671   */\n      swap1\n      pop\n        /* \"#utility.yul\":3311:3677   */\n      swap2\n      swap1\n      pop\n      jump\t// out\n        /* \"#utility.yul\":3683:4102   */\n    tag_42:\n        /* \"#utility.yul\":3849:3853   */\n      0x00\n        /* \"#utility.yul\":3887:3889   */\n      0x20\n        /* \"#utility.yul\":3876:3885   */\n      dup3\n        /* \"#utility.yul\":3872:3890   */\n      add\n        /* \"#utility.yul\":3864:3890   */\n      swap1\n      pop\n        /* \"#utility.yul\":3936:3945   */\n      dup2\n        /* \"#utility.yul\":3930:3934   */\n      dup2\n        /* \"#utility.yul\":3926:3946   */\n      sub\n        /* \"#utility.yul\":3922:3923   */\n      0x00\n        /* \"#utility.yul\":3911:3920   */\n      dup4\n        /* \"#utility.yul\":3907:3924   */\n      add\n        /* \"#utility.yul\":3900:3947   */\n      mstore\n        /* \"#utility.yul\":3964:4095   */\n      tag_184\n        /* \"#utility.yul\":4090:4094   */\n      dup2\n        /* \"#utility.yul\":3964:4095   */\n      tag_138\n      jump\t// in\n    tag_184:\n        /* \"#utility.yul\":3956:4095   */\n      swap1\n      pop\n        /* \"#utility.yul\":3683:4102   */\n      swap2\n      swap1\n      pop\n      jump\t// out\n        /* \"#utility.yul\":4108:4267   */\n    tag_139:\n        /* \"#utility.yul\":4248:4259   */\n      0x4e6f74206f776e65720000000000000000000000000000000000000000000000\n        /* \"#utility.yul\":4244:4245   */\n      0x00\n        /* \"#utility.yul\":4236:4242   */\n      dup3\n        /* \"#utility.yul\":4232:4246   */\n      add\n        /* \"#utility.yul\":4225:4260   */\n      mstore\n        /* \"#utility.yul\":4108:4267   */\n      pop\n      jump\t// out\n        /* \"#utility.yul\":4273:4638   */\n    tag_140:\n        /* \"#utility.yul\":4415:4418   */\n      0x00\n        /* \"#utility.yul\":4436:4502   */\n      tag_187\n        /* \"#utility.yul\":4500:4501   */\n      0x09\n        /* \"#utility.yul\":4495:4498   */\n      dup4\n        /* \"#utility.yul\":4436:4502   */\n      tag_134\n      jump\t// in\n    tag_187:\n        /* \"#utility.yul\":4429:4502   */\n      swap2\n      pop\n        /* \"#utility.yul\":4511:4604   */\n      tag_188\n        /* \"#utility.yul\":4600:4603   */\n      dup3\n        /* \"#utility.yul\":4511:4604   */\n      tag_139\n      jump\t// in\n    tag_188:\n        /* \"#utility.yul\":4629:4631   */\n      0x20\n        /* \"#utility.yul\":4624:4627   */\n      dup3\n        /* \"#utility.yul\":4620:4632   */\n      add\n        /* \"#utility.yul\":4613:4632   */\n      swap1\n      pop\n        /* \"#utility.yul\":4273:4638   */\n      swap2\n      swap1\n      pop\n      jump\t// out\n        /* \"#utility.yul\":4644:5063   */\n    tag_46:\n        /* \"#utility.yul\":4810:4814   */\n      0x00\n        /* \"#utility.yul\":4848:4850   */\n      0x20\n        /* \"#utility.yul\":4837:4846   */\n      dup3\n        /* \"#utility.yul\":4833:4851   */\n      add\n        /* \"#utility.yul\":4825:4851   */\n      swap1\n      pop\n        /* \"#utility.yul\":4897:4906   */\n      dup2\n        /* \"#utility.yul\":4891:4895   */\n      dup2\n        /* \"#utility.yul\":4887:4907   */\n      sub\n        /* \"#utility.yul\":4883:4884   */\n      0x00\n        /* \"#utility.yul\":4872:4881   */\n      dup4\n        /* \"#utility.yul\":4868:4885   */\n      add\n        /* \"#utility.yul\":4861:4908   */\n      mstore\n        /* \"#utility.yul\":4925:5056   */\n      tag_190\n        /* \"#utility.yul\":5051:5055   */\n      dup2\n        /* \"#utility.yul\":4925:5056   */\n      tag_140\n      jump\t// in\n    tag_190:\n        /* \"#utility.yul\":4917:5056   */\n      swap1\n      pop\n        /* \"#utility.yul\":4644:5063   */\n      swap2\n      swap1\n      pop\n      jump\t// out\n        /* \"#utility.yul\":5069:5293   */\n    tag_141:\n        /* \"#utility.yul\":5209:5243   */\n      0x206e6f74206861766520656e676f75687420616d6f756e7420746f2077697468\n        /* \"#utility.yul\":5205:5206   */\n      0x00\n        /* \"#utility.yul\":5197:5203   */\n      dup3\n        /* \"#utility.yul\":5193:5207   */\n      add\n        /* \"#utility.yul\":5186:5244   */\n      mstore\n        /* \"#utility.yul\":5278:5285   */\n      0x6472617720000000000000000000000000000000000000000000000000000000\n        /* \"#utility.yul\":5273:5275   */\n      0x20\n        /* \"#utility.yul\":5265:5271   */\n      dup3\n        /* \"#utility.yul\":5261:5276   */\n      add\n        /* \"#utility.yul\":5254:5286   */\n      mstore\n        /* \"#utility.yul\":5069:5293   */\n      pop\n      jump\t// out\n        /* \"#utility.yul\":5299:5665   */\n    tag_142:\n        /* \"#utility.yul\":5441:5444   */\n      0x00\n        /* \"#utility.yul\":5462:5529   */\n      tag_193\n        /* \"#utility.yul\":5526:5528   */\n      0x25\n        /* \"#utility.yul\":5521:5524   */\n      dup4\n        /* \"#utility.yul\":5462:5529   */\n      tag_134\n      jump\t// in\n    tag_193:\n        /* \"#utility.yul\":5455:5529   */\n      swap2\n      pop\n        /* \"#utility.yul\":5538:5631   */\n      tag_194\n        /* \"#utility.yul\":5627:5630   */\n      dup3\n        /* \"#utility.yul\":5538:5631   */\n      tag_141\n      jump\t// in\n    tag_194:\n        /* \"#utility.yul\":5656:5658   */\n      0x40\n        /* \"#utility.yul\":5651:5654   */\n      dup3\n        /* \"#utility.yul\":5647:5659   */\n      add\n        /* \"#utility.yul\":5640:5659   */\n      swap1\n      pop\n        /* \"#utility.yul\":5299:5665   */\n      swap2\n      swap1\n      pop\n      jump\t// out\n        /* \"#utility.yul\":5671:6090   */\n    tag_57:\n        /* \"#utility.yul\":5837:5841   */\n      0x00\n        /* \"#utility.yul\":5875:5877   */\n      0x20\n        /* \"#utility.yul\":5864:5873   */\n      dup3\n        /* \"#utility.yul\":5860:5878   */\n      add\n        /* \"#utility.yul\":5852:5878   */\n      swap1\n      pop\n        /* \"#utility.yul\":5924:5933   */\n      dup2\n        /* \"#utility.yul\":5918:5922   */\n      dup2\n        /* \"#utility.yul\":5914:5934   */\n      sub\n        /* \"#utility.yul\":5910:5911   */\n      0x00\n        /* \"#utility.yul\":5899:5908   */\n      dup4\n        /* \"#utility.yul\":5895:5912   */\n      add\n        /* \"#utility.yul\":5888:5935   */\n      mstore\n        /* \"#utility.yul\":5952:6083   */\n      tag_196\n        /* \"#utility.yul\":6078:6082   */\n      dup2\n        /* \"#utility.yul\":5952:6083   */\n      tag_142\n      jump\t// in\n    tag_196:\n        /* \"#utility.yul\":5944:6083   */\n      swap1\n      pop\n        /* \"#utility.yul\":5671:6090   */\n      swap2\n      swap1\n      pop\n      jump\t// out\n        /* \"#utility.yul\":6096:6276   */\n    tag_65:\n        /* \"#utility.yul\":6144:6221   */\n      0x4e487b7100000000000000000000000000000000000000000000000000000000\n        /* \"#utility.yul\":6141:6142   */\n      0x00\n        /* \"#utility.yul\":6134:6222   */\n      mstore\n        /* \"#utility.yul\":6241:6245   */\n      0x32\n        /* \"#utility.yul\":6238:6239   */\n      0x04\n        /* \"#utility.yul\":6231:6246   */\n      mstore\n        /* \"#utility.yul\":6265:6269   */\n      0x24\n        /* \"#utility.yul\":6262:6263   */\n      0x00\n        /* \"#utility.yul\":6255:6270   */\n      revert\n        /* \"#utility.yul\":6282:6476   */\n    tag_76:\n        /* \"#utility.yul\":6322:6326   */\n      0x00\n        /* \"#utility.yul\":6342:6362   */\n      tag_199\n        /* \"#utility.yul\":6360:6361   */\n      dup3\n        /* \"#utility.yul\":6342:6362   */\n      tag_128\n      jump\t// in\n    tag_199:\n        /* \"#utility.yul\":6337:6362   */\n      swap2\n      pop\n        /* \"#utility.yul\":6376:6396   */\n      tag_200\n        /* \"#utility.yul\":6394:6395   */\n      dup4\n        /* \"#utility.yul\":6376:6396   */\n      tag_128\n      jump\t// in\n    tag_200:\n        /* \"#utility.yul\":6371:6396   */\n      swap3\n      pop\n        /* \"#utility.yul\":6420:6421   */\n      dup3\n        /* \"#utility.yul\":6417:6418   */\n      dup3\n        /* \"#utility.yul\":6413:6422   */\n      sub\n        /* \"#utility.yul\":6405:6422   */\n      swap1\n      pop\n        /* \"#utility.yul\":6444:6445   */\n      dup2\n        /* \"#utility.yul\":6438:6442   */\n      dup2\n        /* \"#utility.yul\":6435:6446   */\n      gt\n        /* \"#utility.yul\":6432:6469   */\n      iszero\n      tag_201\n      jumpi\n        /* \"#utility.yul\":6449:6467   */\n      tag_202\n      tag_133\n      jump\t// in\n    tag_202:\n        /* \"#utility.yul\":6432:6469   */\n    tag_201:\n        /* \"#utility.yul\":6282:6476   */\n      swap3\n      swap2\n      pop\n      pop\n      jump\t// out\n        /* \"#utility.yul\":6482:6648   */\n    tag_143:\n        /* \"#utility.yul\":6622:6640   */\n      0x6e6f7420656e6f75676820636173682000000000000000000000000000000000\n        /* \"#utility.yul\":6618:6619   */\n      0x00\n        /* \"#utility.yul\":6610:6616   */\n      dup3\n        /* \"#utility.yul\":6606:6620   */\n      add\n        /* \"#utility.yul\":6599:6641   */\n      mstore\n        /* \"#utility.yul\":6482:6648   */\n      pop\n      jump\t// out\n        /* \"#utility.yul\":6654:7020   */\n    tag_144:\n        /* \"#utility.yul\":6796:6799   */\n      0x00\n        /* \"#utility.yul\":6817:6884   */\n      tag_205\n        /* \"#utility.yul\":6881:6883   */\n      0x10\n        /* \"#utility.yul\":6876:6879   */\n      dup4\n        /* \"#utility.yul\":6817:6884   */\n      tag_134\n      jump\t// in\n    tag_205:\n        /* \"#utility.yul\":6810:6884   */\n      swap2\n      pop\n        /* \"#utility.yul\":6893:6986   */\n      tag_206\n        /* \"#utility.yul\":6982:6985   */\n      dup3\n        /* \"#utility.yul\":6893:6986   */\n      tag_143\n      jump\t// in\n    tag_206:\n        /* \"#utility.yul\":7011:7013   */\n      0x20\n        /* \"#utility.yul\":7006:7009   */\n      dup3\n        /* \"#utility.yul\":7002:7014   */\n      add\n        /* \"#utility.yul\":6995:7014   */\n      swap1\n      pop\n        /* \"#utility.yul\":6654:7020   */\n      swap2\n      swap1\n      pop\n      jump\t// out\n        /* \"#utility.yul\":7026:7445   */\n    tag_90:\n        /* \"#utility.yul\":7192:7196   */\n      0x00\n        /* \"#utility.yul\":7230:7232   */\n      0x20\n        /* \"#utility.yul\":7219:7228   */\n      dup3\n        /* \"#utility.yul\":7215:7233   */\n      add\n        /* \"#utility.yul\":7207:7233   */\n      swap1\n      pop\n        /* \"#utility.yul\":7279:7288   */\n      dup2\n        /* \"#utility.yul\":7273:7277   */\n      dup2\n        /* \"#utility.yul\":7269:7289   */\n      sub\n        /* \"#utility.yul\":7265:7266   */\n      0x00\n        /* \"#utility.yul\":7254:7263   */\n      dup4\n        /* \"#utility.yul\":7250:7267   */\n      add\n        /* \"#utility.yul\":7243:7290   */\n      mstore\n        /* \"#utility.yul\":7307:7438   */\n      tag_208\n        /* \"#utility.yul\":7433:7437   */\n      dup2\n        /* \"#utility.yul\":7307:7438   */\n      tag_144\n      jump\t// in\n    tag_208:\n        /* \"#utility.yul\":7299:7438   */\n      swap1\n      pop\n        /* \"#utility.yul\":7026:7445   */\n      swap2\n      swap1\n      pop\n      jump\t// out\n        /* \"#utility.yul\":7451:7614   */\n    tag_145:\n        /* \"#utility.yul\":7591:7606   */\n      0x6e6565642073656e642065746800000000000000000000000000000000000000\n        /* \"#utility.yul\":7587:7588   */\n      0x00\n        /* \"#utility.yul\":7579:7585   */\n      dup3\n        /* \"#utility.yul\":7575:7589   */\n      add\n        /* \"#utility.yul\":7568:7607   */\n      mstore\n        /* \"#utility.yul\":7451:7614   */\n      pop\n      jump\t// out\n        /* \"#utility.yul\":7620:7986   */\n    tag_146:\n        /* \"#utility.yul\":7762:7765   */\n      0x00\n        /* \"#utility.yul\":7783:7850   */\n      tag_211\n        /* \"#utility.yul\":7847:7849   */\n      0x0d\n        /* \"#utility.yul\":7842:7845   */\n      dup4\n        /* \"#utility.yul\":7783:7850   */\n      tag_134\n      jump\t// in\n    tag_211:\n        /* \"#utility.yul\":7776:7850   */\n      swap2\n      pop\n        /* \"#utility.yul\":7859:7952   */\n      tag_212\n        /* \"#utility.yul\":7948:7951   */\n      dup3\n        /* \"#utility.yul\":7859:7952   */\n      tag_145\n      jump\t// in\n    tag_212:\n        /* \"#utility.yul\":7977:7979   */\n      0x20\n        /* \"#utility.yul\":7972:7975   */\n      dup3\n        /* \"#utility.yul\":7968:7980   */\n      add\n        /* \"#utility.yul\":7961:7980   */\n      swap1\n      pop\n        /* \"#utility.yul\":7620:7986   */\n      swap2\n      swap1\n      pop\n      jump\t// out\n        /* \"#utility.yul\":7992:8411   */\n    tag_97:\n        /* \"#utility.yul\":8158:8162   */\n      0x00\n        /* \"#utility.yul\":8196:8198   */\n      0x20\n        /* \"#utility.yul\":8185:8194   */\n      dup3\n        /* \"#utility.yul\":8181:8199   */\n      add\n        /* \"#utility.yul\":8173:8199   */\n      swap1\n      pop\n        /* \"#utility.yul\":8245:8254   */\n      dup2\n        /* \"#utility.yul\":8239:8243   */\n      dup2\n        /* \"#utility.yul\":8235:8255   */\n      sub\n        /* \"#utility.yul\":8231:8232   */\n      0x00\n        /* \"#utility.yul\":8220:8229   */\n      dup4\n        /* \"#utility.yul\":8216:8233   */\n      add\n        /* \"#utility.yul\":8209:8256   */\n      mstore\n        /* \"#utility.yul\":8273:8404   */\n      tag_214\n        /* \"#utility.yul\":8399:8403   */\n      dup2\n        /* \"#utility.yul\":8273:8404   */\n      tag_146\n      jump\t// in\n    tag_214:\n        /* \"#utility.yul\":8265:8404   */\n      swap1\n      pop\n        /* \"#utility.yul\":7992:8411   */\n      swap2\n      swap1\n      pop\n      jump\t// out\n        /* \"#utility.yul\":8417:8608   */\n    tag_100:\n        /* \"#utility.yul\":8457:8460   */\n      0x00\n        /* \"#utility.yul\":8476:8496   */\n      tag_216\n        /* \"#utility.yul\":8494:8495   */\n      dup3\n        /* \"#utility.yul\":8476:8496   */\n      tag_128\n      jump\t// in\n    tag_216:\n        /* \"#utility.yul\":8471:8496   */\n      swap2\n      pop\n        /* \"#utility.yul\":8510:8530   */\n      tag_217\n        /* \"#utility.yul\":8528:8529   */\n      dup4\n        /* \"#utility.yul\":8510:8530   */\n      tag_128\n      jump\t// in\n    tag_217:\n        /* \"#utility.yul\":8505:8530   */\n      swap3\n      pop\n        /* \"#utility.yul\":8553:8554   */\n      dup3\n        /* \"#utility.yul\":8550:8551   */\n      dup3\n        /* \"#utility.yul\":8546:8555   */\n      add\n        /* \"#utility.yul\":8539:8555   */\n      swap1\n      pop\n        /* \"#utility.yul\":8574:8577   */\n      dup1\n        /* \"#utility.yul\":8571:8572   */\n      dup3\n        /* \"#utility.yul\":8568:8578   */\n      gt\n        /* \"#utility.yul\":8565:8601   */\n      iszero\n      tag_218\n      jumpi\n        /* \"#utility.yul\":8581:8599   */\n      tag_219\n      tag_133\n      jump\t// in\n    tag_219:\n        /* \"#utility.yul\":8565:8601   */\n    tag_218:\n        /* \"#utility.yul\":8417:8608   */\n      swap3\n      swap2\n      pop\n      pop\n      jump\t// out\n        /* \"#utility.yul\":8614:9024   */\n    tag_104:\n        /* \"#utility.yul\":8654:8661   */\n      0x00\n        /* \"#utility.yul\":8677:8697   */\n      tag_221\n        /* \"#utility.yul\":8695:8696   */\n      dup3\n        /* \"#utility.yul\":8677:8697   */\n      tag_128\n      jump\t// in\n    tag_221:\n        /* \"#utility.yul\":8672:8697   */\n      swap2\n      pop\n        /* \"#utility.yul\":8711:8731   */\n      tag_222\n        /* \"#utility.yul\":8729:8730   */\n      dup4\n        /* \"#utility.yul\":8711:8731   */\n      tag_128\n      jump\t// in\n    tag_222:\n        /* \"#utility.yul\":8706:8731   */\n      swap3\n      pop\n        /* \"#utility.yul\":8766:8767   */\n      dup3\n        /* \"#utility.yul\":8763:8764   */\n      dup3\n        /* \"#utility.yul\":8759:8768   */\n      mul\n        /* \"#utility.yul\":8788:8818   */\n      tag_223\n        /* \"#utility.yul\":8806:8817   */\n      dup2\n        /* \"#utility.yul\":8788:8818   */\n      tag_128\n      jump\t// in\n    tag_223:\n        /* \"#utility.yul\":8777:8818   */\n      swap2\n      pop\n        /* \"#utility.yul\":8967:8968   */\n      dup3\n        /* \"#utility.yul\":8958:8965   */\n      dup3\n        /* \"#utility.yul\":8954:8969   */\n      div\n        /* \"#utility.yul\":8951:8952   */\n      dup5\n        /* \"#utility.yul\":8948:8970   */\n      eq\n        /* \"#utility.yul\":8928:8929   */\n      dup4\n        /* \"#utility.yul\":8921:8930   */\n      iszero\n        /* \"#utility.yul\":8901:8984   */\n      or\n        /* \"#utility.yul\":8878:9017   */\n      tag_224\n      jumpi\n        /* \"#utility.yul\":8997:9015   */\n      tag_225\n      tag_133\n      jump\t// in\n    tag_225:\n        /* \"#utility.yul\":8878:9017   */\n    tag_224:\n        /* \"#utility.yul\":8662:9024   */\n      pop\n        /* \"#utility.yul\":8614:9024   */\n      swap3\n      swap2\n      pop\n      pop\n      jump\t// out\n        /* \"#utility.yul\":9030:9263   */\n    tag_124:\n        /* \"#utility.yul\":9069:9072   */\n      0x00\n        /* \"#utility.yul\":9092:9116   */\n      tag_227\n        /* \"#utility.yul\":9110:9115   */\n      dup3\n        /* \"#utility.yul\":9092:9116   */\n      tag_128\n      jump\t// in\n    tag_227:\n        /* \"#utility.yul\":9083:9116   */\n      swap2\n      pop\n        /* \"#utility.yul\":9138:9204   */\n      0xffffffffffffffffffffffffffffffffffffffffffffffffffffffffffffffff\n        /* \"#utility.yul\":9131:9136   */\n      dup3\n        /* \"#utility.yul\":9128:9205   */\n      sub\n        /* \"#utility.yul\":9125:9228   */\n      tag_228\n      jumpi\n        /* \"#utility.yul\":9208:9226   */\n      tag_229\n      tag_133\n      jump\t// in\n    tag_229:\n        /* \"#utility.yul\":9125:9228   */\n    tag_228:\n        /* \"#utility.yul\":9255:9256   */\n      0x01\n        /* \"#utility.yul\":9248:9253   */\n      dup3\n        /* \"#utility.yul\":9244:9257   */\n      add\n        /* \"#utility.yul\":9237:9257   */\n      swap1\n      pop\n        /* \"#utility.yul\":9030:9263   */\n      swap2\n      swap1\n      pop\n      jump\t// out\n\n    auxdata: 0xa26469706673582212209a3e98f78c122c32e95acd4cbaa6aef2f889b54d16d4fed6f2325fa76e223b1a64736f6c634300081d0033\n}\n",
				"bytecode": {
					"linkReferences": {},
					"object": "60806040525f60045f6101000a81548160ff0219169083151502179055503480156027575f5ffd5b503360015f6101000a81548173ffffffffffffffffffffffffffffffffffffffff021916908373ffffffffffffffffffffffffffffffffffffffff160217905550610cf6806100755f395ff3fe608060405260043610610054575f3560e01c806327e092a21461005857806333289a461461008057806383e4cccf146100a8578063961be391146100d0578063c6f0837a146100fa578063d0e30db014610124575b5f5ffd5b348015610063575f5ffd5b5061007e600480360381019061007991906107fc565b61012e565b005b34801561008b575f5ffd5b506100a660048036038101906100a191906107fc565b61027d565b005b3480156100b3575f5ffd5b506100ce60048036038101906100c991906107fc565b6104bd565b005b3480156100db575f5ffd5b506100e46105ee565b6040516100f19190610836565b60405180910390f35b348015610105575f5ffd5b5061010e6105f3565b60405161011b9190610836565b60405180910390f35b61012c6105f9565b005b80670de0b6b3a76400008161014391906108a9565b90505f81101580610155575060648111155b610194576040517f08c379a000000000000000000000000000000000000000000000000000000000815260040161018b90610959565b60405180910390fd5b60045f9054906101000a900460ff16156101e3576040517f08c379a00000000000000000000000000000000000000000000000000000000081526004016101da906109c1565b60405180910390fd5b60015f9054906101000a900473ffffffffffffffffffffffffffffffffffffffff1673ffffffffffffffffffffffffffffffffffffffff163373ffffffffffffffffffffffffffffffffffffffff1614610272576040517f08c379a000000000000000000000000000000000000000000000000000000000815260040161026990610a29565b60405180910390fd5b816003819055505050565b60015f9054906101000a900473ffffffffffffffffffffffffffffffffffffffff1673ffffffffffffffffffffffffffffffffffffffff163373ffffffffffffffffffffffffffffffffffffffff161461030c576040517f08c379a000000000000000000000000000000000000000000000000000000000815260040161030390610a29565b60405180910390fd5b5f5f610316610710565b915091505f825111801561032a5750828110155b610369576040517f08c379a000000000000000000000000000000000000000000000000000000000815260040161036090610ab7565b60405180910390fd5b3373ffffffffffffffffffffffffffffffffffffffff166108fc8490811502906040515f60405180830381858888f193505050501580156103ac573d5f5f3e3d5ffd5b505f5f90505b82518110156104b7575f60028483815181106103d1576103d0610ad5565b5b6020026020010151815481106103ea576103e9610ad5565b5b905f5260205f209060020201600101549050848111610458575f600285848151811061041957610418610ad5565b5b60200260200101518154811061043257610431610ad5565b5b905f5260205f2090600202016001018190555080856104519190610b02565b94506104a9565b80856104649190610b02565b600285848151811061047957610478610ad5565b5b60200260200101518154811061049257610491610ad5565b5b905f5260205f209060020201600101819055505f94505b5080806001019150506103b2565b50505050565b60015f9054906101000a900473ffffffffffffffffffffffffffffffffffffffff1673ffffffffffffffffffffffffffffffffffffffff163373ffffffffffffffffffffffffffffffffffffffff161461054c576040517f08c379a000000000000000000000000000000000000000000000000000000000815260040161054390610a29565b60405180910390fd5b805f541015610590576040517f08c379a000000000000000000000000000000000000000000000000000000000815260040161058790610b7f565b60405180910390fd5b805f5f8282546105a09190610b02565b925050819055503373ffffffffffffffffffffffffffffffffffffffff166108fc8290811502906040515f60405180830381858888f193505050501580156105ea573d5f5f3e3d5ffd5b5050565b5f5481565b60035481565b5f341161063b576040517f08c379a000000000000000000000000000000000000000000000000000000000815260040161063290610be7565b60405180910390fd5b5f603c426106499190610c05565b90505f5f6003540361065d575f90506106cb565b60646003543461066d9190610c38565b61067791906108a9565b90506002604051806040016040528084815260200183815250908060018154018082558091505060019003905f5260205f2090600202015f909190919091505f820151815f01556020820151816001015550505b5f81346106d89190610b02565b9050805f5f8282546106ea9190610c05565b92505081905550600160045f6101000a81548160ff021916908315150217905550505050565b60605f5f5f90505f5f90505b6002805490508110156107bf57426002828154811061073e5761073d610ad5565b5b905f5260205f2090600202015f0154116107b2578084838151811061076657610765610ad5565b5b6020026020010181815250506002818154811061078657610785610ad5565b5b905f5260205f20906002020160010154836107a19190610c05565b925081806107ae90610c79565b9250505b808060010191505061071c565b50509091565b5f5ffd5b5f819050919050565b6107db816107c9565b81146107e5575f5ffd5b50565b5f813590506107f6816107d2565b92915050565b5f60208284031215610811576108106107c5565b5b5f61081e848285016107e8565b91505092915050565b610830816107c9565b82525050565b5f6020820190506108495f830184610827565b92915050565b7f4e487b71000000000000000000000000000000000000000000000000000000005f52601260045260245ffd5b7f4e487b71000000000000000000000000000000000000000000000000000000005f52601160045260245ffd5b5f6108b3826107c9565b91506108be836107c9565b9250826108ce576108cd61084f565b5b828204905092915050565b5f82825260208201905092915050565b7f6465706f736974526174696f206d757374206265206265747765656e203020615f8201527f6e64203130302000000000000000000000000000000000000000000000000000602082015250565b5f6109436027836108d9565b915061094e826108e9565b604082019050919050565b5f6020820190508181035f83015261097081610937565b9050919050565b7f20796f752063616e2774200000000000000000000000000000000000000000005f82015250565b5f6109ab600b836108d9565b91506109b682610977565b602082019050919050565b5f6020820190508181035f8301526109d88161099f565b9050919050565b7f4e6f74206f776e657200000000000000000000000000000000000000000000005f82015250565b5f610a136009836108d9565b9150610a1e826109df565b602082019050919050565b5f6020820190508181035f830152610a4081610a07565b9050919050565b7f206e6f74206861766520656e676f75687420616d6f756e7420746f20776974685f8201527f6472617720000000000000000000000000000000000000000000000000000000602082015250565b5f610aa16025836108d9565b9150610aac82610a47565b604082019050919050565b5f6020820190508181035f830152610ace81610a95565b9050919050565b7f4e487b71000000000000000000000000000000000000000000000000000000005f52603260045260245ffd5b5f610b0c826107c9565b9150610b17836107c9565b9250828203905081811115610b2f57610b2e61087c565b5b92915050565b7f6e6f7420656e6f756768206361736820000000000000000000000000000000005f82015250565b5f610b696010836108d9565b9150610b7482610b35565b602082019050919050565b5f6020820190508181035f830152610b9681610b5d565b9050919050565b7f6e6565642073656e6420657468000000000000000000000000000000000000005f82015250565b5f610bd1600d836108d9565b9150610bdc82610b9d565b602082019050919050565b5f6020820190508181035f830152610bfe81610bc5565b9050919050565b5f610c0f826107c9565b9150610c1a836107c9565b9250828201905080821115610c3257610c3161087c565b5b92915050565b5f610c42826107c9565b9150610c4d836107c9565b9250828202610c5b816107c9565b91508282048414831517610c7257610c7161087c565b5b5092915050565b5f610c83826107c9565b91507fffffffffffffffffffffffffffffffffffffffffffffffffffffffffffffffff8203610cb557610cb461087c565b5b60018201905091905056fea26469706673582212209a3e98f78c122c32e95acd4cbaa6aef2f889b54d16d4fed6f2325fa76e223b1a64736f6c634300081d0033",
					"opcodes": "PUSH1 0x80 PUSH1 0x40 MSTORE PUSH0 PUSH1 0x4 PUSH0 PUSH2 0x100 EXP DUP2 SLOAD DUP2 PUSH1 0xFF MUL NOT AND SWAP1 DUP4 ISZERO ISZERO MUL OR SWAP1 SSTORE POP CALLVALUE DUP1 ISZERO PUSH1 0x27 JUMPI PUSH0 PUSH0 REVERT JUMPDEST POP CALLER PUSH1 0x1 PUSH0 PUSH2 0x100 EXP DUP2 SLOAD DUP2 PUSH20 0xFFFFFFFFFFFFFFFFFFFFFFFFFFFFFFFFFFFFFFFF MUL NOT AND SWAP1 DUP4 PUSH20 0xFFFFFFFFFFFFFFFFFFFFFFFFFFFFFFFFFFFFFFFF AND MUL OR SWAP1 SSTORE POP PUSH2 0xCF6 DUP1 PUSH2 0x75 PUSH0 CODECOPY PUSH0 RETURN INVALID PUSH1 0x80 PUSH1 0x40 MSTORE PUSH1 0x4 CALLDATASIZE LT PUSH2 0x54 JUMPI PUSH0 CALLDATALOAD PUSH1 0xE0 SHR DUP1 PUSH4 0x27E092A2 EQ PUSH2 0x58 JUMPI DUP1 PUSH4 0x33289A46 EQ PUSH2 0x80 JUMPI DUP1 PUSH4 0x83E4CCCF EQ PUSH2 0xA8 JUMPI DUP1 PUSH4 0x961BE391 EQ PUSH2 0xD0 JUMPI DUP1 PUSH4 0xC6F0837A EQ PUSH2 0xFA JUMPI DUP1 PUSH4 0xD0E30DB0 EQ PUSH2 0x124 JUMPI JUMPDEST PUSH0 PUSH0 REVERT JUMPDEST CALLVALUE DUP1 ISZERO PUSH2 0x63 JUMPI PUSH0 PUSH0 REVERT JUMPDEST POP PUSH2 0x7E PUSH1 0x4 DUP1 CALLDATASIZE SUB DUP2 ADD SWAP1 PUSH2 0x79 SWAP2 SWAP1 PUSH2 0x7FC JUMP JUMPDEST PUSH2 0x12E JUMP JUMPDEST STOP JUMPDEST CALLVALUE DUP1 ISZERO PUSH2 0x8B JUMPI PUSH0 PUSH0 REVERT JUMPDEST POP PUSH2 0xA6 PUSH1 0x4 DUP1 CALLDATASIZE SUB DUP2 ADD SWAP1 PUSH2 0xA1 SWAP2 SWAP1 PUSH2 0x7FC JUMP JUMPDEST PUSH2 0x27D JUMP JUMPDEST STOP JUMPDEST CALLVALUE DUP1 ISZERO PUSH2 0xB3 JUMPI PUSH0 PUSH0 REVERT JUMPDEST POP PUSH2 0xCE PUSH1 0x4 DUP1 CALLDATASIZE SUB DUP2 ADD SWAP1 PUSH2 0xC9 SWAP2 SWAP1 PUSH2 0x7FC JUMP JUMPDEST PUSH2 0x4BD JUMP JUMPDEST STOP JUMPDEST CALLVALUE DUP1 ISZERO PUSH2 0xDB JUMPI PUSH0 PUSH0 REVERT JUMPDEST POP PUSH2 0xE4 PUSH2 0x5EE JUMP JUMPDEST PUSH1 0x40 MLOAD PUSH2 0xF1 SWAP2 SWAP1 PUSH2 0x836 JUMP JUMPDEST PUSH1 0x40 MLOAD DUP1 SWAP2 SUB SWAP1 RETURN JUMPDEST CALLVALUE DUP1 ISZERO PUSH2 0x105 JUMPI PUSH0 PUSH0 REVERT JUMPDEST POP PUSH2 0x10E PUSH2 0x5F3 JUMP JUMPDEST PUSH1 0x40 MLOAD PUSH2 0x11B SWAP2 SWAP1 PUSH2 0x836 JUMP JUMPDEST PUSH1 0x40 MLOAD DUP1 SWAP2 SUB SWAP1 RETURN JUMPDEST PUSH2 0x12C PUSH2 0x5F9 JUMP JUMPDEST STOP JUMPDEST DUP1 PUSH8 0xDE0B6B3A7640000 DUP2 PUSH2 0x143 SWAP2 SWAP1 PUSH2 0x8A9 JUMP JUMPDEST SWAP1 POP PUSH0 DUP2 LT ISZERO DUP1 PUSH2 0x155 JUMPI POP PUSH1 0x64 DUP2 GT ISZERO JUMPDEST PUSH2 0x194 JUMPI PUSH1 0x40 MLOAD PUSH32 0x8C379A000000000000000000000000000000000000000000000000000000000 DUP2 MSTORE PUSH1 0x4 ADD PUSH2 0x18B SWAP1 PUSH2 0x959 JUMP JUMPDEST PUSH1 0x40 MLOAD DUP1 SWAP2 SUB SWAP1 REVERT JUMPDEST PUSH1 0x4 PUSH0 SWAP1 SLOAD SWAP1 PUSH2 0x100 EXP SWAP1 DIV PUSH1 0xFF AND ISZERO PUSH2 0x1E3 JUMPI PUSH1 0x40 MLOAD PUSH32 0x8C379A000000000000000000000000000000000000000000000000000000000 DUP2 MSTORE PUSH1 0x4 ADD PUSH2 0x1DA SWAP1 PUSH2 0x9C1 JUMP JUMPDEST PUSH1 0x40 MLOAD DUP1 SWAP2 SUB SWAP1 REVERT JUMPDEST PUSH1 0x1 PUSH0 SWAP1 SLOAD SWAP1 PUSH2 0x100 EXP SWAP1 DIV PUSH20 0xFFFFFFFFFFFFFFFFFFFFFFFFFFFFFFFFFFFFFFFF AND PUSH20 0xFFFFFFFFFFFFFFFFFFFFFFFFFFFFFFFFFFFFFFFF AND CALLER PUSH20 0xFFFFFFFFFFFFFFFFFFFFFFFFFFFFFFFFFFFFFFFF AND EQ PUSH2 0x272 JUMPI PUSH1 0x40 MLOAD PUSH32 0x8C379A000000000000000000000000000000000000000000000000000000000 DUP2 MSTORE PUSH1 0x4 ADD PUSH2 0x269 SWAP1 PUSH2 0xA29 JUMP JUMPDEST PUSH1 0x40 MLOAD DUP1 SWAP2 SUB SWAP1 REVERT JUMPDEST DUP2 PUSH1 0x3 DUP2 SWAP1 SSTORE POP POP POP JUMP JUMPDEST PUSH1 0x1 PUSH0 SWAP1 SLOAD SWAP1 PUSH2 0x100 EXP SWAP1 DIV PUSH20 0xFFFFFFFFFFFFFFFFFFFFFFFFFFFFFFFFFFFFFFFF AND PUSH20 0xFFFFFFFFFFFFFFFFFFFFFFFFFFFFFFFFFFFFFFFF AND CALLER PUSH20 0xFFFFFFFFFFFFFFFFFFFFFFFFFFFFFFFFFFFFFFFF AND EQ PUSH2 0x30C JUMPI PUSH1 0x40 MLOAD PUSH32 0x8C379A000000000000000000000000000000000000000000000000000000000 DUP2 MSTORE PUSH1 0x4 ADD PUSH2 0x303 SWAP1 PUSH2 0xA29 JUMP JUMPDEST PUSH1 0x40 MLOAD DUP1 SWAP2 SUB SWAP1 REVERT JUMPDEST PUSH0 PUSH0 PUSH2 0x316 PUSH2 0x710 JUMP JUMPDEST SWAP2 POP SWAP2 POP PUSH0 DUP3 MLOAD GT DUP1 ISZERO PUSH2 0x32A JUMPI POP DUP3 DUP2 LT ISZERO JUMPDEST PUSH2 0x369 JUMPI PUSH1 0x40 MLOAD PUSH32 0x8C379A000000000000000000000000000000000000000000000000000000000 DUP2 MSTORE PUSH1 0x4 ADD PUSH2 0x360 SWAP1 PUSH2 0xAB7 JUMP JUMPDEST PUSH1 0x40 MLOAD DUP1 SWAP2 SUB SWAP1 REVERT JUMPDEST CALLER PUSH20 0xFFFFFFFFFFFFFFFFFFFFFFFFFFFFFFFFFFFFFFFF AND PUSH2 0x8FC DUP5 SWAP1 DUP2 ISZERO MUL SWAP1 PUSH1 0x40 MLOAD PUSH0 PUSH1 0x40 MLOAD DUP1 DUP4 SUB DUP2 DUP6 DUP9 DUP9 CALL SWAP4 POP POP POP POP ISZERO DUP1 ISZERO PUSH2 0x3AC JUMPI RETURNDATASIZE PUSH0 PUSH0 RETURNDATACOPY RETURNDATASIZE PUSH0 REVERT JUMPDEST POP PUSH0 PUSH0 SWAP1 POP JUMPDEST DUP3 MLOAD DUP2 LT ISZERO PUSH2 0x4B7 JUMPI PUSH0 PUSH1 0x2 DUP5 DUP4 DUP2 MLOAD DUP2 LT PUSH2 0x3D1 JUMPI PUSH2 0x3D0 PUSH2 0xAD5 JUMP JUMPDEST JUMPDEST PUSH1 0x20 MUL PUSH1 0x20 ADD ADD MLOAD DUP2 SLOAD DUP2 LT PUSH2 0x3EA JUMPI PUSH2 0x3E9 PUSH2 0xAD5 JUMP JUMPDEST JUMPDEST SWAP1 PUSH0 MSTORE PUSH1 0x20 PUSH0 KECCAK256 SWAP1 PUSH1 0x2 MUL ADD PUSH1 0x1 ADD SLOAD SWAP1 POP DUP5 DUP2 GT PUSH2 0x458 JUMPI PUSH0 PUSH1 0x2 DUP6 DUP5 DUP2 MLOAD DUP2 LT PUSH2 0x419 JUMPI PUSH2 0x418 PUSH2 0xAD5 JUMP JUMPDEST JUMPDEST PUSH1 0x20 MUL PUSH1 0x20 ADD ADD MLOAD DUP2 SLOAD DUP2 LT PUSH2 0x432 JUMPI PUSH2 0x431 PUSH2 0xAD5 JUMP JUMPDEST JUMPDEST SWAP1 PUSH0 MSTORE PUSH1 0x20 PUSH0 KECCAK256 SWAP1 PUSH1 0x2 MUL ADD PUSH1 0x1 ADD DUP2 SWAP1 SSTORE POP DUP1 DUP6 PUSH2 0x451 SWAP2 SWAP1 PUSH2 0xB02 JUMP JUMPDEST SWAP5 POP PUSH2 0x4A9 JUMP JUMPDEST DUP1 DUP6 PUSH2 0x464 SWAP2 SWAP1 PUSH2 0xB02 JUMP JUMPDEST PUSH1 0x2 DUP6 DUP5 DUP2 MLOAD DUP2 LT PUSH2 0x479 JUMPI PUSH2 0x478 PUSH2 0xAD5 JUMP JUMPDEST JUMPDEST PUSH1 0x20 MUL PUSH1 0x20 ADD ADD MLOAD DUP2 SLOAD DUP2 LT PUSH2 0x492 JUMPI PUSH2 0x491 PUSH2 0xAD5 JUMP JUMPDEST JUMPDEST SWAP1 PUSH0 MSTORE PUSH1 0x20 PUSH0 KECCAK256 SWAP1 PUSH1 0x2 MUL ADD PUSH1 0x1 ADD DUP2 SWAP1 SSTORE POP PUSH0 SWAP5 POP JUMPDEST POP DUP1 DUP1 PUSH1 0x1 ADD SWAP2 POP POP PUSH2 0x3B2 JUMP JUMPDEST POP POP POP POP JUMP JUMPDEST PUSH1 0x1 PUSH0 SWAP1 SLOAD SWAP1 PUSH2 0x100 EXP SWAP1 DIV PUSH20 0xFFFFFFFFFFFFFFFFFFFFFFFFFFFFFFFFFFFFFFFF AND PUSH20 0xFFFFFFFFFFFFFFFFFFFFFFFFFFFFFFFFFFFFFFFF AND CALLER PUSH20 0xFFFFFFFFFFFFFFFFFFFFFFFFFFFFFFFFFFFFFFFF AND EQ PUSH2 0x54C JUMPI PUSH1 0x40 MLOAD PUSH32 0x8C379A000000000000000000000000000000000000000000000000000000000 DUP2 MSTORE PUSH1 0x4 ADD PUSH2 0x543 SWAP1 PUSH2 0xA29 JUMP JUMPDEST PUSH1 0x40 MLOAD DUP1 SWAP2 SUB SWAP1 REVERT JUMPDEST DUP1 PUSH0 SLOAD LT ISZERO PUSH2 0x590 JUMPI PUSH1 0x40 MLOAD PUSH32 0x8C379A000000000000000000000000000000000000000000000000000000000 DUP2 MSTORE PUSH1 0x4 ADD PUSH2 0x587 SWAP1 PUSH2 0xB7F JUMP JUMPDEST PUSH1 0x40 MLOAD DUP1 SWAP2 SUB SWAP1 REVERT JUMPDEST DUP1 PUSH0 PUSH0 DUP3 DUP3 SLOAD PUSH2 0x5A0 SWAP2 SWAP1 PUSH2 0xB02 JUMP JUMPDEST SWAP3 POP POP DUP2 SWAP1 SSTORE POP CALLER PUSH20 0xFFFFFFFFFFFFFFFFFFFFFFFFFFFFFFFFFFFFFFFF AND PUSH2 0x8FC DUP3 SWAP1 DUP2 ISZERO MUL SWAP1 PUSH1 0x40 MLOAD PUSH0 PUSH1 0x40 MLOAD DUP1 DUP4 SUB DUP2 DUP6 DUP9 DUP9 CALL SWAP4 POP POP POP POP ISZERO DUP1 ISZERO PUSH2 0x5EA JUMPI RETURNDATASIZE PUSH0 PUSH0 RETURNDATACOPY RETURNDATASIZE PUSH0 REVERT JUMPDEST POP POP JUMP JUMPDEST PUSH0 SLOAD DUP2 JUMP JUMPDEST PUSH1 0x3 SLOAD DUP2 JUMP JUMPDEST PUSH0 CALLVALUE GT PUSH2 0x63B JUMPI PUSH1 0x40 MLOAD PUSH32 0x8C379A000000000000000000000000000000000000000000000000000000000 DUP2 MSTORE PUSH1 0x4 ADD PUSH2 0x632 SWAP1 PUSH2 0xBE7 JUMP JUMPDEST PUSH1 0x40 MLOAD DUP1 SWAP2 SUB SWAP1 REVERT JUMPDEST PUSH0 PUSH1 0x3C TIMESTAMP PUSH2 0x649 SWAP2 SWAP1 PUSH2 0xC05 JUMP JUMPDEST SWAP1 POP PUSH0 PUSH0 PUSH1 0x3 SLOAD SUB PUSH2 0x65D JUMPI PUSH0 SWAP1 POP PUSH2 0x6CB JUMP JUMPDEST PUSH1 0x64 PUSH1 0x3 SLOAD CALLVALUE PUSH2 0x66D SWAP2 SWAP1 PUSH2 0xC38 JUMP JUMPDEST PUSH2 0x677 SWAP2 SWAP1 PUSH2 0x8A9 JUMP JUMPDEST SWAP1 POP PUSH1 0x2 PUSH1 0x40 MLOAD DUP1 PUSH1 0x40 ADD PUSH1 0x40 MSTORE DUP1 DUP5 DUP2 MSTORE PUSH1 0x20 ADD DUP4 DUP2 MSTORE POP SWAP1 DUP1 PUSH1 0x1 DUP2 SLOAD ADD DUP1 DUP3 SSTORE DUP1 SWAP2 POP POP PUSH1 0x1 SWAP1 SUB SWAP1 PUSH0 MSTORE PUSH1 0x20 PUSH0 KECCAK256 SWAP1 PUSH1 0x2 MUL ADD PUSH0 SWAP1 SWAP2 SWAP1 SWAP2 SWAP1 SWAP2 POP PUSH0 DUP3 ADD MLOAD DUP2 PUSH0 ADD SSTORE PUSH1 0x20 DUP3 ADD MLOAD DUP2 PUSH1 0x1 ADD SSTORE POP POP JUMPDEST PUSH0 DUP2 CALLVALUE PUSH2 0x6D8 SWAP2 SWAP1 PUSH2 0xB02 JUMP JUMPDEST SWAP1 POP DUP1 PUSH0 PUSH0 DUP3 DUP3 SLOAD PUSH2 0x6EA SWAP2 SWAP1 PUSH2 0xC05 JUMP JUMPDEST SWAP3 POP POP DUP2 SWAP1 SSTORE POP PUSH1 0x1 PUSH1 0x4 PUSH0 PUSH2 0x100 EXP DUP2 SLOAD DUP2 PUSH1 0xFF MUL NOT AND SWAP1 DUP4 ISZERO ISZERO MUL OR SWAP1 SSTORE POP POP POP POP JUMP JUMPDEST PUSH1 0x60 PUSH0 PUSH0 PUSH0 SWAP1 POP PUSH0 PUSH0 SWAP1 POP JUMPDEST PUSH1 0x2 DUP1 SLOAD SWAP1 POP DUP2 LT ISZERO PUSH2 0x7BF JUMPI TIMESTAMP PUSH1 0x2 DUP3 DUP2 SLOAD DUP2 LT PUSH2 0x73E JUMPI PUSH2 0x73D PUSH2 0xAD5 JUMP JUMPDEST JUMPDEST SWAP1 PUSH0 MSTORE PUSH1 0x20 PUSH0 KECCAK256 SWAP1 PUSH1 0x2 MUL ADD PUSH0 ADD SLOAD GT PUSH2 0x7B2 JUMPI DUP1 DUP5 DUP4 DUP2 MLOAD DUP2 LT PUSH2 0x766 JUMPI PUSH2 0x765 PUSH2 0xAD5 JUMP JUMPDEST JUMPDEST PUSH1 0x20 MUL PUSH1 0x20 ADD ADD DUP2 DUP2 MSTORE POP POP PUSH1 0x2 DUP2 DUP2 SLOAD DUP2 LT PUSH2 0x786 JUMPI PUSH2 0x785 PUSH2 0xAD5 JUMP JUMPDEST JUMPDEST SWAP1 PUSH0 MSTORE PUSH1 0x20 PUSH0 KECCAK256 SWAP1 PUSH1 0x2 MUL ADD PUSH1 0x1 ADD SLOAD DUP4 PUSH2 0x7A1 SWAP2 SWAP1 PUSH2 0xC05 JUMP JUMPDEST SWAP3 POP DUP2 DUP1 PUSH2 0x7AE SWAP1 PUSH2 0xC79 JUMP JUMPDEST SWAP3 POP POP JUMPDEST DUP1 DUP1 PUSH1 0x1 ADD SWAP2 POP POP PUSH2 0x71C JUMP JUMPDEST POP POP SWAP1 SWAP2 JUMP JUMPDEST PUSH0 PUSH0 REVERT JUMPDEST PUSH0 DUP2 SWAP1 POP SWAP2 SWAP1 POP JUMP JUMPDEST PUSH2 0x7DB DUP2 PUSH2 0x7C9 JUMP JUMPDEST DUP2 EQ PUSH2 0x7E5 JUMPI PUSH0 PUSH0 REVERT JUMPDEST POP JUMP JUMPDEST PUSH0 DUP2 CALLDATALOAD SWAP1 POP PUSH2 0x7F6 DUP2 PUSH2 0x7D2 JUMP JUMPDEST SWAP3 SWAP2 POP POP JUMP JUMPDEST PUSH0 PUSH1 0x20 DUP3 DUP5 SUB SLT ISZERO PUSH2 0x811 JUMPI PUSH2 0x810 PUSH2 0x7C5 JUMP JUMPDEST JUMPDEST PUSH0 PUSH2 0x81E DUP5 DUP3 DUP6 ADD PUSH2 0x7E8 JUMP JUMPDEST SWAP2 POP POP SWAP3 SWAP2 POP POP JUMP JUMPDEST PUSH2 0x830 DUP2 PUSH2 0x7C9 JUMP JUMPDEST DUP3 MSTORE POP POP JUMP JUMPDEST PUSH0 PUSH1 0x20 DUP3 ADD SWAP1 POP PUSH2 0x849 PUSH0 DUP4 ADD DUP5 PUSH2 0x827 JUMP JUMPDEST SWAP3 SWAP2 POP POP JUMP JUMPDEST PUSH32 0x4E487B7100000000000000000000000000000000000000000000000000000000 PUSH0 MSTORE PUSH1 0x12 PUSH1 0x4 MSTORE PUSH1 0x24 PUSH0 REVERT JUMPDEST PUSH32 0x4E487B7100000000000000000000000000000000000000000000000000000000 PUSH0 MSTORE PUSH1 0x11 PUSH1 0x4 MSTORE PUSH1 0x24 PUSH0 REVERT JUMPDEST PUSH0 PUSH2 0x8B3 DUP3 PUSH2 0x7C9 JUMP JUMPDEST SWAP2 POP PUSH2 0x8BE DUP4 PUSH2 0x7C9 JUMP JUMPDEST SWAP3 POP DUP3 PUSH2 0x8CE JUMPI PUSH2 0x8CD PUSH2 0x84F JUMP JUMPDEST JUMPDEST DUP3 DUP3 DIV SWAP1 POP SWAP3 SWAP2 POP POP JUMP JUMPDEST PUSH0 DUP3 DUP3 MSTORE PUSH1 0x20 DUP3 ADD SWAP1 POP SWAP3 SWAP2 POP POP JUMP JUMPDEST PUSH32 0x6465706F736974526174696F206D757374206265206265747765656E20302061 PUSH0 DUP3 ADD MSTORE PUSH32 0x6E64203130302000000000000000000000000000000000000000000000000000 PUSH1 0x20 DUP3 ADD MSTORE POP JUMP JUMPDEST PUSH0 PUSH2 0x943 PUSH1 0x27 DUP4 PUSH2 0x8D9 JUMP JUMPDEST SWAP2 POP PUSH2 0x94E DUP3 PUSH2 0x8E9 JUMP JUMPDEST PUSH1 0x40 DUP3 ADD SWAP1 POP SWAP2 SWAP1 POP JUMP JUMPDEST PUSH0 PUSH1 0x20 DUP3 ADD SWAP1 POP DUP2 DUP2 SUB PUSH0 DUP4 ADD MSTORE PUSH2 0x970 DUP2 PUSH2 0x937 JUMP JUMPDEST SWAP1 POP SWAP2 SWAP1 POP JUMP JUMPDEST PUSH32 0x20796F752063616E277420000000000000000000000000000000000000000000 PUSH0 DUP3 ADD MSTORE POP JUMP JUMPDEST PUSH0 PUSH2 0x9AB PUSH1 0xB DUP4 PUSH2 0x8D9 JUMP JUMPDEST SWAP2 POP PUSH2 0x9B6 DUP3 PUSH2 0x977 JUMP JUMPDEST PUSH1 0x20 DUP3 ADD SWAP1 POP SWAP2 SWAP1 POP JUMP JUMPDEST PUSH0 PUSH1 0x20 DUP3 ADD SWAP1 POP DUP2 DUP2 SUB PUSH0 DUP4 ADD MSTORE PUSH2 0x9D8 DUP2 PUSH2 0x99F JUMP JUMPDEST SWAP1 POP SWAP2 SWAP1 POP JUMP JUMPDEST PUSH32 0x4E6F74206F776E65720000000000000000000000000000000000000000000000 PUSH0 DUP3 ADD MSTORE POP JUMP JUMPDEST PUSH0 PUSH2 0xA13 PUSH1 0x9 DUP4 PUSH2 0x8D9 JUMP JUMPDEST SWAP2 POP PUSH2 0xA1E DUP3 PUSH2 0x9DF JUMP JUMPDEST PUSH1 0x20 DUP3 ADD SWAP1 POP SWAP2 SWAP1 POP JUMP JUMPDEST PUSH0 PUSH1 0x20 DUP3 ADD SWAP1 POP DUP2 DUP2 SUB PUSH0 DUP4 ADD MSTORE PUSH2 0xA40 DUP2 PUSH2 0xA07 JUMP JUMPDEST SWAP1 POP SWAP2 SWAP1 POP JUMP JUMPDEST PUSH32 0x206E6F74206861766520656E676F75687420616D6F756E7420746F2077697468 PUSH0 DUP3 ADD MSTORE PUSH32 0x6472617720000000000000000000000000000000000000000000000000000000 PUSH1 0x20 DUP3 ADD MSTORE POP JUMP JUMPDEST PUSH0 PUSH2 0xAA1 PUSH1 0x25 DUP4 PUSH2 0x8D9 JUMP JUMPDEST SWAP2 POP PUSH2 0xAAC DUP3 PUSH2 0xA47 JUMP JUMPDEST PUSH1 0x40 DUP3 ADD SWAP1 POP SWAP2 SWAP1 POP JUMP JUMPDEST PUSH0 PUSH1 0x20 DUP3 ADD SWAP1 POP DUP2 DUP2 SUB PUSH0 DUP4 ADD MSTORE PUSH2 0xACE DUP2 PUSH2 0xA95 JUMP JUMPDEST SWAP1 POP SWAP2 SWAP1 POP JUMP JUMPDEST PUSH32 0x4E487B7100000000000000000000000000000000000000000000000000000000 PUSH0 MSTORE PUSH1 0x32 PUSH1 0x4 MSTORE PUSH1 0x24 PUSH0 REVERT JUMPDEST PUSH0 PUSH2 0xB0C DUP3 PUSH2 0x7C9 JUMP JUMPDEST SWAP2 POP PUSH2 0xB17 DUP4 PUSH2 0x7C9 JUMP JUMPDEST SWAP3 POP DUP3 DUP3 SUB SWAP1 POP DUP2 DUP2 GT ISZERO PUSH2 0xB2F JUMPI PUSH2 0xB2E PUSH2 0x87C JUMP JUMPDEST JUMPDEST SWAP3 SWAP2 POP POP JUMP JUMPDEST PUSH32 0x6E6F7420656E6F75676820636173682000000000000000000000000000000000 PUSH0 DUP3 ADD MSTORE POP JUMP JUMPDEST PUSH0 PUSH2 0xB69 PUSH1 0x10 DUP4 PUSH2 0x8D9 JUMP JUMPDEST SWAP2 POP PUSH2 0xB74 DUP3 PUSH2 0xB35 JUMP JUMPDEST PUSH1 0x20 DUP3 ADD SWAP1 POP SWAP2 SWAP1 POP JUMP JUMPDEST PUSH0 PUSH1 0x20 DUP3 ADD SWAP1 POP DUP2 DUP2 SUB PUSH0 DUP4 ADD MSTORE PUSH2 0xB96 DUP2 PUSH2 0xB5D JUMP JUMPDEST SWAP1 POP SWAP2 SWAP1 POP JUMP JUMPDEST PUSH32 0x6E6565642073656E642065746800000000000000000000000000000000000000 PUSH0 DUP3 ADD MSTORE POP JUMP JUMPDEST PUSH0 PUSH2 0xBD1 PUSH1 0xD DUP4 PUSH2 0x8D9 JUMP JUMPDEST SWAP2 POP PUSH2 0xBDC DUP3 PUSH2 0xB9D JUMP JUMPDEST PUSH1 0x20 DUP3 ADD SWAP1 POP SWAP2 SWAP1 POP JUMP JUMPDEST PUSH0 PUSH1 0x20 DUP3 ADD SWAP1 POP DUP2 DUP2 SUB PUSH0 DUP4 ADD MSTORE PUSH2 0xBFE DUP2 PUSH2 0xBC5 JUMP JUMPDEST SWAP1 POP SWAP2 SWAP1 POP JUMP JUMPDEST PUSH0 PUSH2 0xC0F DUP3 PUSH2 0x7C9 JUMP JUMPDEST SWAP2 POP PUSH2 0xC1A DUP4 PUSH2 0x7C9 JUMP JUMPDEST SWAP3 POP DUP3 DUP3 ADD SWAP1 POP DUP1 DUP3 GT ISZERO PUSH2 0xC32 JUMPI PUSH2 0xC31 PUSH2 0x87C JUMP JUMPDEST JUMPDEST SWAP3 SWAP2 POP POP JUMP JUMPDEST PUSH0 PUSH2 0xC42 DUP3 PUSH2 0x7C9 JUMP JUMPDEST SWAP2 POP PUSH2 0xC4D DUP4 PUSH2 0x7C9 JUMP JUMPDEST SWAP3 POP DUP3 DUP3 MUL PUSH2 0xC5B DUP2 PUSH2 0x7C9 JUMP JUMPDEST SWAP2 POP DUP3 DUP3 DIV DUP5 EQ DUP4 ISZERO OR PUSH2 0xC72 JUMPI PUSH2 0xC71 PUSH2 0x87C JUMP JUMPDEST JUMPDEST POP SWAP3 SWAP2 POP POP JUMP JUMPDEST PUSH0 PUSH2 0xC83 DUP3 PUSH2 0x7C9 JUMP JUMPDEST SWAP2 POP PUSH32 0xFFFFFFFFFFFFFFFFFFFFFFFFFFFFFFFFFFFFFFFFFFFFFFFFFFFFFFFFFFFFFFFF DUP3 SUB PUSH2 0xCB5 JUMPI PUSH2 0xCB4 PUSH2 0x87C JUMP JUMPDEST JUMPDEST PUSH1 0x1 DUP3 ADD SWAP1 POP SWAP2 SWAP1 POP JUMP INVALID LOG2 PUSH5 0x6970667358 0x22 SLT KECCAK256 SWAP11 RETURNDATACOPY SWAP9 0xF7 DUP13 SLT 0x2C ORIGIN 0xE9 GAS 0xCD 0x4C 0xBA 0xA6 0xAE CALLCODE EXTCALL DUP10 0xB5 0x4D AND 0xD4 INVALID 0xD6 CALLCODE ORIGIN PUSH0 0xA7 PUSH15 0x223B1A64736F6C634300081D003300 "
				},
				"gasEstimates": {
					"creation": {
						"codeDepositCost": "663600",
						"executionCost": "49224",
						"totalCost": "712824"
					},
					"external": {
						"cash()": "2468",
						"deposit()": "infinite",
						"depositRatio()": "2491",
						"updateDepositRatio(uint256)": "infinite",
						"withdrawCash(uint256)": "infinite",
						"withdrawDeposit(uint256)": "infinite"
					},
					"internal": {
						"getDepistInfo()": "infinite"
					}
				},
				"methodIdentifiers": {
					"cash()": "961be391",
					"deposit()": "d0e30db0",
					"depositRatio()": "c6f0837a",
					"updateDepositRatio(uint256)": "27e092a2",
					"withdrawCash(uint256)": "83e4cccf",
					"withdrawDeposit(uint256)": "33289a46"
				}
			},
			"storageLayout": {
				"storage": [
					{
						"astId": 63,
						"contract": "contracts/MyPiggBank.sol:MyPiggyBank",
						"label": "cash",
						"offset": 0,
						"slot": "0",
						"type": "t_uint256"
					},
					{
						"astId": 65,
						"contract": "contracts/MyPiggBank.sol:MyPiggyBank",
						"label": "owner",
						"offset": 0,
						"slot": "1",
						"type": "t_address"
					},
					{
						"astId": 74,
						"contract": "contracts/MyPiggBank.sol:MyPiggyBank",
						"label": "depositReceiptInfo",
						"offset": 0,
						"slot": "2",
						"type": "t_array(t_struct(depositReceipt)70_storage)dyn_storage"
					},
					{
						"astId": 79,
						"contract": "contracts/MyPiggBank.sol:MyPiggyBank",
						"label": "depositRatio",
						"offset": 0,
						"slot": "3",
						"type": "t_uint256"
					},
					{
						"astId": 82,
						"contract": "contracts/MyPiggBank.sol:MyPiggyBank",
						"label": "isDeposit",
						"offset": 0,
						"slot": "4",
						"type": "t_bool"
					}
				],
				"types": {
					"t_address": {
						"encoding": "inplace",
						"label": "address",
						"numberOfBytes": "20"
					},
					"t_array(t_struct(depositReceipt)70_storage)dyn_storage": {
						"base": "t_struct(depositReceipt)70_storage",
						"encoding": "dynamic_array",
						"label": "struct MyPiggyBank.depositReceipt[]",
						"numberOfBytes": "32"
					},
					"t_bool": {
						"encoding": "inplace",
						"label": "bool",
						"numberOfBytes": "1"
					},
					"t_struct(depositReceipt)70_storage": {
						"encoding": "inplace",
						"label": "struct MyPiggyBank.depositReceipt",
						"members": [
							{
								"astId": 67,
								"contract": "contracts/MyPiggBank.sol:MyPiggyBank",
								"label": "depositTime",
								"offset": 0,
								"slot": "0",
								"type": "t_uint256"
							},
							{
								"astId": 69,
								"contract": "contracts/MyPiggBank.sol:MyPiggyBank",
								"label": "depositAmount",
								"offset": 0,
								"slot": "1",
								"type": "t_uint256"
							}
						],
						"numberOfBytes": "64"
					},
					"t_uint256": {
						"encoding": "inplace",
						"label": "uint256",
						"numberOfBytes": "32"
					}
				}
			},
			"userdoc": {
				"kind": "user",
				"methods": {},
				"version": 1
			}
		}
	}
}