{
	"contracts/MyPiggBank.sol": {
		"MyPiggyBank": {
			"abi": [
				{
					"inputs": [],
					"stateMutability": "nonpayable",
					"type": "constructor"
				},
				{
					"inputs": [
						{
							"internalType": "uint256",
							"name": "timeStamp",
							"type": "uint256"
						}
					],
					"name": "availableAmount",
					"outputs": [
						{
							"internalType": "uint256",
							"name": "amount",
							"type": "uint256"
						}
					],
					"stateMutability": "view",
					"type": "function"
				},
				{
					"inputs": [],
					"name": "cash",
					"outputs": [
						{
							"internalType": "uint256",
							"name": "",
							"type": "uint256"
						}
					],
					"stateMutability": "view",
					"type": "function"
				},
				{
					"inputs": [],
					"name": "deposit",
					"outputs": [],
					"stateMutability": "payable",
					"type": "function"
				},
				{
					"inputs": [],
					"name": "depositRatio",
					"outputs": [
						{
							"internalType": "uint256",
							"name": "",
							"type": "uint256"
						}
					],
					"stateMutability": "view",
					"type": "function"
				},
				{
					"inputs": [
						{
							"internalType": "uint256",
							"name": "",
							"type": "uint256"
						}
					],
					"name": "depositReceipts",
					"outputs": [
						{
							"internalType": "uint256",
							"name": "depositTime",
							"type": "uint256"
						},
						{
							"internalType": "uint256",
							"name": "depositAmount",
							"type": "uint256"
						}
					],
					"stateMutability": "view",
					"type": "function"
				},
				{
					"inputs": [],
					"name": "depositTimes",
					"outputs": [
						{
							"internalType": "uint256",
							"name": "",
							"type": "uint256"
						}
					],
					"stateMutability": "view",
					"type": "function"
				},
				{
					"inputs": [],
					"name": "getBlockTime",
					"outputs": [
						{
							"internalType": "uint256",
							"name": "",
							"type": "uint256"
						}
					],
					"stateMutability": "view",
					"type": "function"
				},
				{
					"inputs": [
						{
							"internalType": "uint256",
							"name": "_depositRatio",
							"type": "uint256"
						}
					],
					"name": "modifyDepositRatio",
					"outputs": [],
					"stateMutability": "nonpayable",
					"type": "function"
				},
				{
					"inputs": [],
					"name": "totalAmount",
					"outputs": [
						{
							"internalType": "uint256",
							"name": "",
							"type": "uint256"
						}
					],
					"stateMutability": "view",
					"type": "function"
				},
				{
					"inputs": [
						{
							"internalType": "uint256",
							"name": "amount",
							"type": "uint256"
						}
					],
					"name": "withdrawCash",
					"outputs": [],
					"stateMutability": "nonpayable",
					"type": "function"
				},
				{
					"inputs": [
						{
							"internalType": "uint256",
							"name": "amount",
							"type": "uint256"
						}
					],
					"name": "withdrawDeposit",
					"outputs": [],
					"stateMutability": "nonpayable",
					"type": "function"
				}
			],
			"devdoc": {
				"kind": "dev",
				"methods": {},
				"version": 1
			},
			"evm": {
				"assembly": "    /* \"contracts/MyPiggBank.sol\":56:3596  contract MyPiggyBank {... */\n  mstore(0x40, 0x80)\n    /* \"contracts/MyPiggBank.sol\":1004:1005  0 */\n  0x00\n    /* \"contracts/MyPiggBank.sol\":974:1005  uint256 public depositTimes = 0 */\n  0x03\n  sstore\n    /* \"contracts/MyPiggBank.sol\":1218:1223  false */\n  0x00\n    /* \"contracts/MyPiggBank.sol\":1196:1223  bool withdrawStatus = false */\n  0x06\n  exp(0x0100, 0x00)\n  dup2\n  sload\n  dup2\n  0xff\n  mul\n  not\n  and\n  swap1\n  dup4\n  iszero\n  iszero\n  mul\n  or\n  swap1\n  sstore\n  pop\n    /* \"contracts/MyPiggBank.sol\":1229:1278  constructor() {... */\n  callvalue\n  dup1\n  iszero\n  tag_1\n  jumpi\n  revert(0x00, 0x00)\ntag_1:\n  pop\n    /* \"contracts/MyPiggBank.sol\":1261:1271  msg.sender */\n  caller\n    /* \"contracts/MyPiggBank.sol\":1253:1258  owner */\n  0x01\n  0x00\n    /* \"contracts/MyPiggBank.sol\":1253:1271  owner = msg.sender */\n  0x0100\n  exp\n  dup2\n  sload\n  dup2\n  0xffffffffffffffffffffffffffffffffffffffff\n  mul\n  not\n  and\n  swap1\n  dup4\n  0xffffffffffffffffffffffffffffffffffffffff\n  and\n  mul\n  or\n  swap1\n  sstore\n  pop\n    /* \"contracts/MyPiggBank.sol\":56:3596  contract MyPiggyBank {... */\n  dataSize(sub_0)\n  dup1\n  dataOffset(sub_0)\n  0x00\n  codecopy\n  0x00\n  return\nstop\n\nsub_0: assembly {\n        /* \"contracts/MyPiggBank.sol\":56:3596  contract MyPiggyBank {... */\n      mstore(0x40, 0x80)\n      jumpi(tag_1, lt(calldatasize, 0x04))\n      shr(0xe0, calldataload(0x00))\n      dup1\n      0x961be391\n      gt\n      tag_13\n      jumpi\n      dup1\n      0x961be391\n      eq\n      tag_7\n      jumpi\n      dup1\n      0xb0a51e4e\n      eq\n      tag_8\n      jumpi\n      dup1\n      0xb5c150d4\n      eq\n      tag_9\n      jumpi\n      dup1\n      0xc6f0837a\n      eq\n      tag_10\n      jumpi\n      dup1\n      0xd0e30db0\n      eq\n      tag_11\n      jumpi\n      dup1\n      0xeabd412b\n      eq\n      tag_12\n      jumpi\n      jump(tag_1)\n    tag_13:\n      dup1\n      0x1a39d8ef\n      eq\n      tag_2\n      jumpi\n      dup1\n      0x33289a46\n      eq\n      tag_3\n      jumpi\n      dup1\n      0x83e4cccf\n      eq\n      tag_4\n      jumpi\n      dup1\n      0x86e6563c\n      eq\n      tag_5\n      jumpi\n      dup1\n      0x87ceff09\n      eq\n      tag_6\n      jumpi\n    tag_1:\n      revert(0x00, 0x00)\n        /* \"contracts/MyPiggBank.sol\":1012:1038  uint256 public totalAmount */\n    tag_2:\n      callvalue\n      dup1\n      iszero\n      tag_14\n      jumpi\n      revert(0x00, 0x00)\n    tag_14:\n      pop\n      tag_15\n      tag_16\n      jump\t// in\n    tag_15:\n      mload(0x40)\n      tag_17\n      swap2\n      swap1\n      tag_18\n      jump\t// in\n    tag_17:\n      mload(0x40)\n      dup1\n      swap2\n      sub\n      swap1\n      return\n        /* \"contracts/MyPiggBank.sol\":2263:3057  function withdrawDeposit(uint256 amount) external onlyOwner checkwithraw {... */\n    tag_3:\n      callvalue\n      dup1\n      iszero\n      tag_19\n      jumpi\n      revert(0x00, 0x00)\n    tag_19:\n      pop\n      tag_20\n      0x04\n      dup1\n      calldatasize\n      sub\n      dup2\n      add\n      swap1\n      tag_21\n      swap2\n      swap1\n      tag_22\n      jump\t// in\n    tag_21:\n      tag_23\n      jump\t// in\n    tag_20:\n      stop\n        /* \"contracts/MyPiggBank.sol\":2032:2219  function withdrawCash(uint256 amount) external onlyOwner {... */\n    tag_4:\n      callvalue\n      dup1\n      iszero\n      tag_24\n      jumpi\n      revert(0x00, 0x00)\n    tag_24:\n      pop\n      tag_25\n      0x04\n      dup1\n      calldatasize\n      sub\n      dup2\n      add\n      swap1\n      tag_26\n      swap2\n      swap1\n      tag_22\n      jump\t// in\n    tag_26:\n      tag_27\n      jump\t// in\n    tag_25:\n      stop\n        /* \"contracts/MyPiggBank.sol\":974:1005  uint256 public depositTimes = 0 */\n    tag_5:\n      callvalue\n      dup1\n      iszero\n      tag_28\n      jumpi\n      revert(0x00, 0x00)\n    tag_28:\n      pop\n      tag_29\n      tag_30\n      jump\t// in\n    tag_29:\n      mload(0x40)\n      tag_31\n      swap2\n      swap1\n      tag_18\n      jump\t// in\n    tag_31:\n      mload(0x40)\n      dup1\n      swap2\n      sub\n      swap1\n      return\n        /* \"contracts/MyPiggBank.sol\":3501:3594  function getBlockTime() public view returns (uint256) {... */\n    tag_6:\n      callvalue\n      dup1\n      iszero\n      tag_32\n      jumpi\n      revert(0x00, 0x00)\n    tag_32:\n      pop\n      tag_33\n      tag_34\n      jump\t// in\n    tag_33:\n      mload(0x40)\n      tag_35\n      swap2\n      swap1\n      tag_18\n      jump\t// in\n    tag_35:\n      mload(0x40)\n      dup1\n      swap2\n      sub\n      swap1\n      return\n        /* \"contracts/MyPiggBank.sol\":752:771  uint256 public cash */\n    tag_7:\n      callvalue\n      dup1\n      iszero\n      tag_36\n      jumpi\n      revert(0x00, 0x00)\n    tag_36:\n      pop\n      tag_37\n      tag_38\n      jump\t// in\n    tag_37:\n      mload(0x40)\n      tag_39\n      swap2\n      swap1\n      tag_18\n      jump\t// in\n    tag_39:\n      mload(0x40)\n      dup1\n      swap2\n      sub\n      swap1\n      return\n        /* \"contracts/MyPiggBank.sol\":910:967  mapping(uint256 => depositReceipt) public depositReceipts */\n    tag_8:\n      callvalue\n      dup1\n      iszero\n      tag_40\n      jumpi\n      revert(0x00, 0x00)\n    tag_40:\n      pop\n      tag_41\n      0x04\n      dup1\n      calldatasize\n      sub\n      dup2\n      add\n      swap1\n      tag_42\n      swap2\n      swap1\n      tag_22\n      jump\t// in\n    tag_42:\n      tag_43\n      jump\t// in\n    tag_41:\n      mload(0x40)\n      tag_44\n      swap3\n      swap2\n      swap1\n      tag_45\n      jump\t// in\n    tag_44:\n      mload(0x40)\n      dup1\n      swap2\n      sub\n      swap1\n      return\n        /* \"contracts/MyPiggBank.sol\":3063:3495  function availableAmount(... */\n    tag_9:\n      callvalue\n      dup1\n      iszero\n      tag_46\n      jumpi\n      revert(0x00, 0x00)\n    tag_46:\n      pop\n      tag_47\n      0x04\n      dup1\n      calldatasize\n      sub\n      dup2\n      add\n      swap1\n      tag_48\n      swap2\n      swap1\n      tag_22\n      jump\t// in\n    tag_48:\n      tag_49\n      jump\t// in\n    tag_47:\n      mload(0x40)\n      tag_50\n      swap2\n      swap1\n      tag_18\n      jump\t// in\n    tag_50:\n      mload(0x40)\n      dup1\n      swap2\n      sub\n      swap1\n      return\n        /* \"contracts/MyPiggBank.sol\":1162:1189  uint256 public depositRatio */\n    tag_10:\n      callvalue\n      dup1\n      iszero\n      tag_51\n      jumpi\n      revert(0x00, 0x00)\n    tag_51:\n      pop\n      tag_52\n      tag_53\n      jump\t// in\n    tag_52:\n      mload(0x40)\n      tag_54\n      swap2\n      swap1\n      tag_18\n      jump\t// in\n    tag_54:\n      mload(0x40)\n      dup1\n      swap2\n      sub\n      swap1\n      return\n        /* \"contracts/MyPiggBank.sol\":1489:2000  function deposit() external payable sendMoreEth {... */\n    tag_11:\n      tag_55\n      tag_56\n      jump\t// in\n    tag_55:\n      stop\n        /* \"contracts/MyPiggBank.sol\":1284:1446  function modifyDepositRatio(... */\n    tag_12:\n      callvalue\n      dup1\n      iszero\n      tag_57\n      jumpi\n      revert(0x00, 0x00)\n    tag_57:\n      pop\n      tag_58\n      0x04\n      dup1\n      calldatasize\n      sub\n      dup2\n      add\n      swap1\n      tag_59\n      swap2\n      swap1\n      tag_22\n      jump\t// in\n    tag_59:\n      tag_60\n      jump\t// in\n    tag_58:\n      stop\n        /* \"contracts/MyPiggBank.sol\":1012:1038  uint256 public totalAmount */\n    tag_16:\n      sload(0x04)\n      dup2\n      jump\t// out\n        /* \"contracts/MyPiggBank.sol\":2263:3057  function withdrawDeposit(uint256 amount) external onlyOwner checkwithraw {... */\n    tag_23:\n        /* \"contracts/MyPiggBank.sol\":136:141  owner */\n      0x01\n      0x00\n      swap1\n      sload\n      swap1\n      0x0100\n      exp\n      swap1\n      div\n      0xffffffffffffffffffffffffffffffffffffffff\n      and\n        /* \"contracts/MyPiggBank.sol\":122:141  msg.sender == owner */\n      0xffffffffffffffffffffffffffffffffffffffff\n      and\n        /* \"contracts/MyPiggBank.sol\":122:132  msg.sender */\n      caller\n        /* \"contracts/MyPiggBank.sol\":122:141  msg.sender == owner */\n      0xffffffffffffffffffffffffffffffffffffffff\n      and\n      eq\n        /* \"contracts/MyPiggBank.sol\":114:155  require(msg.sender == owner, \"Not owner\") */\n      tag_62\n      jumpi\n      mload(0x40)\n      0x08c379a000000000000000000000000000000000000000000000000000000000\n      dup2\n      mstore\n      0x04\n      add\n      tag_63\n      swap1\n      tag_64\n      jump\t// in\n    tag_63:\n      mload(0x40)\n      dup1\n      swap2\n      sub\n      swap1\n      revert\n    tag_62:\n        /* \"contracts/MyPiggBank.sol\":622:636  withdrawStatus */\n      0x06\n      0x00\n      swap1\n      sload\n      swap1\n      0x0100\n      exp\n      swap1\n      div\n      0xff\n      and\n        /* \"contracts/MyPiggBank.sol\":621:636  !withdrawStatus */\n      iszero\n        /* \"contracts/MyPiggBank.sol\":613:674  require(!withdrawStatus, \" withdraw not finish please wait \") */\n      tag_66\n      jumpi\n      mload(0x40)\n      0x08c379a000000000000000000000000000000000000000000000000000000000\n      dup2\n      mstore\n      0x04\n      add\n      tag_67\n      swap1\n      tag_68\n      jump\t// in\n    tag_67:\n      mload(0x40)\n      dup1\n      swap2\n      sub\n      swap1\n      revert\n    tag_66:\n        /* \"contracts/MyPiggBank.sol\":2363:2367  true */\n      0x01\n        /* \"contracts/MyPiggBank.sol\":2346:2360  withdrawStatus */\n      0x06\n      0x00\n        /* \"contracts/MyPiggBank.sol\":2346:2367  withdrawStatus = true */\n      0x0100\n      exp\n      dup2\n      sload\n      dup2\n      0xff\n      mul\n      not\n      and\n      swap1\n      dup4\n      iszero\n      iszero\n      mul\n      or\n      swap1\n      sstore\n      pop\n        /* \"contracts/MyPiggBank.sol\":2377:2394  uint256 timeStamp */\n      0x00\n        /* \"contracts/MyPiggBank.sol\":2397:2411  getBlockTime() */\n      tag_70\n        /* \"contracts/MyPiggBank.sol\":2397:2409  getBlockTime */\n      tag_34\n        /* \"contracts/MyPiggBank.sol\":2397:2411  getBlockTime() */\n      jump\t// in\n    tag_70:\n        /* \"contracts/MyPiggBank.sol\":2377:2411  uint256 timeStamp = getBlockTime() */\n      swap1\n      pop\n        /* \"contracts/MyPiggBank.sol\":2435:2461  availableAmount(timeStamp) */\n      tag_71\n        /* \"contracts/MyPiggBank.sol\":2451:2460  timeStamp */\n      dup2\n        /* \"contracts/MyPiggBank.sol\":2435:2450  availableAmount */\n      tag_49\n        /* \"contracts/MyPiggBank.sol\":2435:2461  availableAmount(timeStamp) */\n      jump\t// in\n    tag_71:\n        /* \"contracts/MyPiggBank.sol\":2421:2432  totalAmount */\n      0x04\n        /* \"contracts/MyPiggBank.sol\":2421:2461  totalAmount = availableAmount(timeStamp) */\n      dup2\n      swap1\n      sstore\n      pop\n        /* \"contracts/MyPiggBank.sol\":2493:2499  amount */\n      dup2\n        /* \"contracts/MyPiggBank.sol\":2479:2490  totalAmount */\n      sload(0x04)\n        /* \"contracts/MyPiggBank.sol\":2479:2499  totalAmount > amount */\n      gt\n        /* \"contracts/MyPiggBank.sol\":2471:2541  require(totalAmount > amount, \" not have engouht amount to withdraw \") */\n      tag_72\n      jumpi\n      mload(0x40)\n      0x08c379a000000000000000000000000000000000000000000000000000000000\n      dup2\n      mstore\n      0x04\n      add\n      tag_73\n      swap1\n      tag_74\n      jump\t// in\n    tag_73:\n      mload(0x40)\n      dup1\n      swap2\n      sub\n      swap1\n      revert\n    tag_72:\n        /* \"contracts/MyPiggBank.sol\":2559:2569  msg.sender */\n      caller\n        /* \"contracts/MyPiggBank.sol\":2551:2579  payable(msg.sender).transfer */\n      0xffffffffffffffffffffffffffffffffffffffff\n      and\n        /* \"contracts/MyPiggBank.sol\":2551:2587  payable(msg.sender).transfer(amount) */\n      0x08fc\n        /* \"contracts/MyPiggBank.sol\":2580:2586  amount */\n      dup4\n        /* \"contracts/MyPiggBank.sol\":2551:2587  payable(msg.sender).transfer(amount) */\n      swap1\n      dup2\n      iszero\n      mul\n      swap1\n      mload(0x40)\n      0x00\n      mload(0x40)\n      dup1\n      dup4\n      sub\n      dup2\n      dup6\n      dup9\n      dup9\n      call\n      swap4\n      pop\n      pop\n      pop\n      pop\n      iszero\n      dup1\n      iszero\n      tag_76\n      jumpi\n      returndatacopy(0x00, 0x00, returndatasize)\n      revert(0x00, returndatasize)\n    tag_76:\n      pop\n        /* \"contracts/MyPiggBank.sol\":2612:2618  amount */\n      dup2\n        /* \"contracts/MyPiggBank.sol\":2597:2608  totalAmount */\n      0x04\n      0x00\n        /* \"contracts/MyPiggBank.sol\":2597:2618  totalAmount -= amount */\n      dup3\n      dup3\n      sload\n      tag_77\n      swap2\n      swap1\n      tag_78\n      jump\t// in\n    tag_77:\n      swap3\n      pop\n      pop\n      dup2\n      swap1\n      sstore\n      pop\n        /* \"contracts/MyPiggBank.sol\":2633:2642  uint256 i */\n      0x00\n        /* \"contracts/MyPiggBank.sol\":2645:2646  0 */\n      0x00\n        /* \"contracts/MyPiggBank.sol\":2633:2646  uint256 i = 0 */\n      swap1\n      pop\n        /* \"contracts/MyPiggBank.sol\":2628:3051  for (uint256 i = 0; i < depositTimes; i++) {... */\n    tag_79:\n        /* \"contracts/MyPiggBank.sol\":2652:2664  depositTimes */\n      sload(0x03)\n        /* \"contracts/MyPiggBank.sol\":2648:2649  i */\n      dup2\n        /* \"contracts/MyPiggBank.sol\":2648:2664  i < depositTimes */\n      lt\n        /* \"contracts/MyPiggBank.sol\":2628:3051  for (uint256 i = 0; i < depositTimes; i++) {... */\n      iszero\n      tag_80\n      jumpi\n        /* \"contracts/MyPiggBank.sol\":2685:2707  uint256 _depositAmount */\n      0x00\n        /* \"contracts/MyPiggBank.sol\":2710:2725  depositReceipts */\n      0x02\n        /* \"contracts/MyPiggBank.sol\":2710:2728  depositReceipts[i] */\n      0x00\n        /* \"contracts/MyPiggBank.sol\":2726:2727  i */\n      dup4\n        /* \"contracts/MyPiggBank.sol\":2710:2728  depositReceipts[i] */\n      dup2\n      mstore\n      0x20\n      add\n      swap1\n      dup2\n      mstore\n      0x20\n      add\n      0x00\n      keccak256\n        /* \"contracts/MyPiggBank.sol\":2710:2742  depositReceipts[i].depositAmount */\n      0x01\n      add\n      sload\n        /* \"contracts/MyPiggBank.sol\":2685:2742  uint256 _depositAmount = depositReceipts[i].depositAmount */\n      swap1\n      pop\n        /* \"contracts/MyPiggBank.sol\":2778:2784  amount */\n      dup4\n        /* \"contracts/MyPiggBank.sol\":2760:2774  _depositAmount */\n      dup2\n        /* \"contracts/MyPiggBank.sol\":2760:2784  _depositAmount <= amount */\n      gt\n        /* \"contracts/MyPiggBank.sol\":2756:3041  if (_depositAmount <= amount) {... */\n      tag_82\n      jumpi\n        /* \"contracts/MyPiggBank.sol\":2839:2840  0 */\n      0x00\n        /* \"contracts/MyPiggBank.sol\":2804:2819  depositReceipts */\n      0x02\n        /* \"contracts/MyPiggBank.sol\":2804:2822  depositReceipts[i] */\n      0x00\n        /* \"contracts/MyPiggBank.sol\":2820:2821  i */\n      dup5\n        /* \"contracts/MyPiggBank.sol\":2804:2822  depositReceipts[i] */\n      dup2\n      mstore\n      0x20\n      add\n      swap1\n      dup2\n      mstore\n      0x20\n      add\n      0x00\n      keccak256\n        /* \"contracts/MyPiggBank.sol\":2804:2836  depositReceipts[i].depositAmount */\n      0x01\n      add\n        /* \"contracts/MyPiggBank.sol\":2804:2840  depositReceipts[i].depositAmount = 0 */\n      dup2\n      swap1\n      sstore\n      pop\n        /* \"contracts/MyPiggBank.sol\":2868:2882  _depositAmount */\n      dup1\n        /* \"contracts/MyPiggBank.sol\":2858:2882  amount -= _depositAmount */\n      dup5\n      tag_83\n      swap2\n      swap1\n      tag_78\n      jump\t// in\n    tag_83:\n      swap4\n      pop\n        /* \"contracts/MyPiggBank.sol\":2756:3041  if (_depositAmount <= amount) {... */\n      jump(tag_84)\n    tag_82:\n        /* \"contracts/MyPiggBank.sol\":2957:2963  amount */\n      dup4\n        /* \"contracts/MyPiggBank.sol\":2921:2936  depositReceipts */\n      0x02\n        /* \"contracts/MyPiggBank.sol\":2921:2939  depositReceipts[i] */\n      0x00\n        /* \"contracts/MyPiggBank.sol\":2937:2938  i */\n      dup5\n        /* \"contracts/MyPiggBank.sol\":2921:2939  depositReceipts[i] */\n      dup2\n      mstore\n      0x20\n      add\n      swap1\n      dup2\n      mstore\n      0x20\n      add\n      0x00\n      keccak256\n        /* \"contracts/MyPiggBank.sol\":2921:2953  depositReceipts[i].depositAmount */\n      0x01\n      add\n      0x00\n        /* \"contracts/MyPiggBank.sol\":2921:2963  depositReceipts[i].depositAmount -= amount */\n      dup3\n      dup3\n      sload\n      tag_85\n      swap2\n      swap1\n      tag_78\n      jump\t// in\n    tag_85:\n      swap3\n      pop\n      pop\n      dup2\n      swap1\n      sstore\n      pop\n        /* \"contracts/MyPiggBank.sol\":2998:3003  false */\n      0x00\n        /* \"contracts/MyPiggBank.sol\":2981:2995  withdrawStatus */\n      0x06\n      0x00\n        /* \"contracts/MyPiggBank.sol\":2981:3003  withdrawStatus = false */\n      0x0100\n      exp\n      dup2\n      sload\n      dup2\n      0xff\n      mul\n      not\n      and\n      swap1\n      dup4\n      iszero\n      iszero\n      mul\n      or\n      swap1\n      sstore\n      pop\n        /* \"contracts/MyPiggBank.sol\":3021:3026  break */\n      pop\n      jump(tag_80)\n        /* \"contracts/MyPiggBank.sol\":2756:3041  if (_depositAmount <= amount) {... */\n    tag_84:\n        /* \"contracts/MyPiggBank.sol\":2671:3051  {... */\n      pop\n        /* \"contracts/MyPiggBank.sol\":2666:2669  i++ */\n      dup1\n      dup1\n      0x01\n      add\n      swap2\n      pop\n      pop\n        /* \"contracts/MyPiggBank.sol\":2628:3051  for (uint256 i = 0; i < depositTimes; i++) {... */\n      jump(tag_79)\n    tag_80:\n      pop\n        /* \"contracts/MyPiggBank.sol\":2336:3057  {... */\n      pop\n        /* \"contracts/MyPiggBank.sol\":2263:3057  function withdrawDeposit(uint256 amount) external onlyOwner checkwithraw {... */\n      pop\n      jump\t// out\n        /* \"contracts/MyPiggBank.sol\":2032:2219  function withdrawCash(uint256 amount) external onlyOwner {... */\n    tag_27:\n        /* \"contracts/MyPiggBank.sol\":136:141  owner */\n      0x01\n      0x00\n      swap1\n      sload\n      swap1\n      0x0100\n      exp\n      swap1\n      div\n      0xffffffffffffffffffffffffffffffffffffffff\n      and\n        /* \"contracts/MyPiggBank.sol\":122:141  msg.sender == owner */\n      0xffffffffffffffffffffffffffffffffffffffff\n      and\n        /* \"contracts/MyPiggBank.sol\":122:132  msg.sender */\n      caller\n        /* \"contracts/MyPiggBank.sol\":122:141  msg.sender == owner */\n      0xffffffffffffffffffffffffffffffffffffffff\n      and\n      eq\n        /* \"contracts/MyPiggBank.sol\":114:155  require(msg.sender == owner, \"Not owner\") */\n      tag_87\n      jumpi\n      mload(0x40)\n      0x08c379a000000000000000000000000000000000000000000000000000000000\n      dup2\n      mstore\n      0x04\n      add\n      tag_88\n      swap1\n      tag_64\n      jump\t// in\n    tag_88:\n      mload(0x40)\n      dup1\n      swap2\n      sub\n      swap1\n      revert\n    tag_87:\n        /* \"contracts/MyPiggBank.sol\":2115:2121  amount */\n      dup1\n        /* \"contracts/MyPiggBank.sol\":2107:2111  cash */\n      sload(0x00)\n        /* \"contracts/MyPiggBank.sol\":2107:2121  cash >= amount */\n      lt\n      iszero\n        /* \"contracts/MyPiggBank.sol\":2099:2142  require(cash >= amount, \"not enough cash \") */\n      tag_90\n      jumpi\n      mload(0x40)\n      0x08c379a000000000000000000000000000000000000000000000000000000000\n      dup2\n      mstore\n      0x04\n      add\n      tag_91\n      swap1\n      tag_92\n      jump\t// in\n    tag_91:\n      mload(0x40)\n      dup1\n      swap2\n      sub\n      swap1\n      revert\n    tag_90:\n        /* \"contracts/MyPiggBank.sol\":2160:2166  amount */\n      dup1\n        /* \"contracts/MyPiggBank.sol\":2152:2156  cash */\n      0x00\n      0x00\n        /* \"contracts/MyPiggBank.sol\":2152:2166  cash -= amount */\n      dup3\n      dup3\n      sload\n      tag_93\n      swap2\n      swap1\n      tag_78\n      jump\t// in\n    tag_93:\n      swap3\n      pop\n      pop\n      dup2\n      swap1\n      sstore\n      pop\n        /* \"contracts/MyPiggBank.sol\":2184:2194  msg.sender */\n      caller\n        /* \"contracts/MyPiggBank.sol\":2176:2204  payable(msg.sender).transfer */\n      0xffffffffffffffffffffffffffffffffffffffff\n      and\n        /* \"contracts/MyPiggBank.sol\":2176:2212  payable(msg.sender).transfer(amount) */\n      0x08fc\n        /* \"contracts/MyPiggBank.sol\":2205:2211  amount */\n      dup3\n        /* \"contracts/MyPiggBank.sol\":2176:2212  payable(msg.sender).transfer(amount) */\n      swap1\n      dup2\n      iszero\n      mul\n      swap1\n      mload(0x40)\n      0x00\n      mload(0x40)\n      dup1\n      dup4\n      sub\n      dup2\n      dup6\n      dup9\n      dup9\n      call\n      swap4\n      pop\n      pop\n      pop\n      pop\n      iszero\n      dup1\n      iszero\n      tag_95\n      jumpi\n      returndatacopy(0x00, 0x00, returndatasize)\n      revert(0x00, returndatasize)\n    tag_95:\n      pop\n        /* \"contracts/MyPiggBank.sol\":2032:2219  function withdrawCash(uint256 amount) external onlyOwner {... */\n      pop\n      jump\t// out\n        /* \"contracts/MyPiggBank.sol\":974:1005  uint256 public depositTimes = 0 */\n    tag_30:\n      sload(0x03)\n      dup2\n      jump\t// out\n        /* \"contracts/MyPiggBank.sol\":3501:3594  function getBlockTime() public view returns (uint256) {... */\n    tag_34:\n        /* \"contracts/MyPiggBank.sol\":3546:3553  uint256 */\n      0x00\n        /* \"contracts/MyPiggBank.sol\":3572:3587  block.timestamp */\n      timestamp\n        /* \"contracts/MyPiggBank.sol\":3565:3587  return block.timestamp */\n      swap1\n      pop\n        /* \"contracts/MyPiggBank.sol\":3501:3594  function getBlockTime() public view returns (uint256) {... */\n      swap1\n      jump\t// out\n        /* \"contracts/MyPiggBank.sol\":752:771  uint256 public cash */\n    tag_38:\n      sload(0x00)\n      dup2\n      jump\t// out\n        /* \"contracts/MyPiggBank.sol\":910:967  mapping(uint256 => depositReceipt) public depositReceipts */\n    tag_43:\n      mstore(0x20, 0x02)\n      dup1\n      0x00\n      mstore\n      keccak256(0x00, 0x40)\n      0x00\n      swap2\n      pop\n      swap1\n      pop\n      dup1\n      0x00\n      add\n      sload\n      swap1\n      dup1\n      0x01\n      add\n      sload\n      swap1\n      pop\n      dup3\n      jump\t// out\n        /* \"contracts/MyPiggBank.sol\":3063:3495  function availableAmount(... */\n    tag_49:\n        /* \"contracts/MyPiggBank.sol\":3142:3156  uint256 amount */\n      0x00\n        /* \"contracts/MyPiggBank.sol\":3185:3186  0 */\n      0x00\n        /* \"contracts/MyPiggBank.sol\":3172:3181  timeStamp */\n      dup3\n        /* \"contracts/MyPiggBank.sol\":3172:3186  timeStamp == 0 */\n      sub\n        /* \"contracts/MyPiggBank.sol\":3168:3240  if (timeStamp == 0) {... */\n      tag_98\n      jumpi\n        /* \"contracts/MyPiggBank.sol\":3214:3229  block.timestamp */\n      timestamp\n        /* \"contracts/MyPiggBank.sol\":3202:3229  timeStamp = block.timestamp */\n      swap2\n      pop\n        /* \"contracts/MyPiggBank.sol\":3168:3240  if (timeStamp == 0) {... */\n    tag_98:\n        /* \"contracts/MyPiggBank.sol\":3254:3263  uint256 i */\n      0x00\n        /* \"contracts/MyPiggBank.sol\":3266:3267  0 */\n      0x00\n        /* \"contracts/MyPiggBank.sol\":3254:3267  uint256 i = 0 */\n      swap1\n      pop\n        /* \"contracts/MyPiggBank.sol\":3249:3489  for (uint256 i = 0; i < depositTimes; i++) {... */\n    tag_99:\n        /* \"contracts/MyPiggBank.sol\":3273:3285  depositTimes */\n      sload(0x03)\n        /* \"contracts/MyPiggBank.sol\":3269:3270  i */\n      dup2\n        /* \"contracts/MyPiggBank.sol\":3269:3285  i < depositTimes */\n      lt\n        /* \"contracts/MyPiggBank.sol\":3249:3489  for (uint256 i = 0; i < depositTimes; i++) {... */\n      iszero\n      tag_100\n      jumpi\n        /* \"contracts/MyPiggBank.sol\":3306:3326  uint256 _depositTime */\n      0x00\n        /* \"contracts/MyPiggBank.sol\":3329:3344  depositReceipts */\n      0x02\n        /* \"contracts/MyPiggBank.sol\":3329:3347  depositReceipts[i] */\n      0x00\n        /* \"contracts/MyPiggBank.sol\":3345:3346  i */\n      dup4\n        /* \"contracts/MyPiggBank.sol\":3329:3347  depositReceipts[i] */\n      dup2\n      mstore\n      0x20\n      add\n      swap1\n      dup2\n      mstore\n      0x20\n      add\n      0x00\n      keccak256\n        /* \"contracts/MyPiggBank.sol\":3329:3359  depositReceipts[i].depositTime */\n      0x00\n      add\n      sload\n        /* \"contracts/MyPiggBank.sol\":3306:3359  uint256 _depositTime = depositReceipts[i].depositTime */\n      swap1\n      pop\n        /* \"contracts/MyPiggBank.sol\":3393:3402  timeStamp */\n      dup4\n        /* \"contracts/MyPiggBank.sol\":3377:3389  _depositTime */\n      dup2\n        /* \"contracts/MyPiggBank.sol\":3377:3402  _depositTime <= timeStamp */\n      gt\n        /* \"contracts/MyPiggBank.sol\":3373:3479  if (_depositTime <= timeStamp) {... */\n      tag_102\n      jumpi\n        /* \"contracts/MyPiggBank.sol\":3432:3447  depositReceipts */\n      0x02\n        /* \"contracts/MyPiggBank.sol\":3432:3450  depositReceipts[i] */\n      0x00\n        /* \"contracts/MyPiggBank.sol\":3448:3449  i */\n      dup4\n        /* \"contracts/MyPiggBank.sol\":3432:3450  depositReceipts[i] */\n      dup2\n      mstore\n      0x20\n      add\n      swap1\n      dup2\n      mstore\n      0x20\n      add\n      0x00\n      keccak256\n        /* \"contracts/MyPiggBank.sol\":3432:3464  depositReceipts[i].depositAmount */\n      0x01\n      add\n      sload\n        /* \"contracts/MyPiggBank.sol\":3422:3464  amount += depositReceipts[i].depositAmount */\n      dup4\n      tag_103\n      swap2\n      swap1\n      tag_104\n      jump\t// in\n    tag_103:\n      swap3\n      pop\n        /* \"contracts/MyPiggBank.sol\":3373:3479  if (_depositTime <= timeStamp) {... */\n    tag_102:\n        /* \"contracts/MyPiggBank.sol\":3292:3489  {... */\n      pop\n        /* \"contracts/MyPiggBank.sol\":3287:3290  i++ */\n      dup1\n      dup1\n      0x01\n      add\n      swap2\n      pop\n      pop\n        /* \"contracts/MyPiggBank.sol\":3249:3489  for (uint256 i = 0; i < depositTimes; i++) {... */\n      jump(tag_99)\n    tag_100:\n      pop\n        /* \"contracts/MyPiggBank.sol\":3063:3495  function availableAmount(... */\n      swap2\n      swap1\n      pop\n      jump\t// out\n        /* \"contracts/MyPiggBank.sol\":1162:1189  uint256 public depositRatio */\n    tag_53:\n      sload(0x05)\n      dup2\n      jump\t// out\n        /* \"contracts/MyPiggBank.sol\":1489:2000  function deposit() external payable sendMoreEth {... */\n    tag_56:\n        /* \"contracts/MyPiggBank.sol\":536:537  0 */\n      0x00\n        /* \"contracts/MyPiggBank.sol\":524:533  msg.value */\n      callvalue\n        /* \"contracts/MyPiggBank.sol\":524:537  msg.value > 0 */\n      gt\n        /* \"contracts/MyPiggBank.sol\":516:555  require(msg.value > 0, \"need send eth\") */\n      tag_106\n      jumpi\n      mload(0x40)\n      0x08c379a000000000000000000000000000000000000000000000000000000000\n      dup2\n      mstore\n      0x04\n      add\n      tag_107\n      swap1\n      tag_108\n      jump\t// in\n    tag_107:\n      mload(0x40)\n      dup1\n      swap2\n      sub\n      swap1\n      revert\n    tag_106:\n        /* \"contracts/MyPiggBank.sol\":1547:1567  uint256 _depositTime */\n      0x00\n        /* \"contracts/MyPiggBank.sol\":1146:1155  1 minutes */\n      0x3c\n        /* \"contracts/MyPiggBank.sol\":1570:1585  block.timestamp */\n      timestamp\n        /* \"contracts/MyPiggBank.sol\":1570:1598  block.timestamp + freezeTime */\n      tag_110\n      swap2\n      swap1\n      tag_104\n      jump\t// in\n    tag_110:\n        /* \"contracts/MyPiggBank.sol\":1547:1598  uint256 _depositTime = block.timestamp + freezeTime */\n      swap1\n      pop\n        /* \"contracts/MyPiggBank.sol\":1608:1630  uint256 _depoistAmount */\n      0x00\n        /* \"contracts/MyPiggBank.sol\":1660:1661  0 */\n      0x00\n        /* \"contracts/MyPiggBank.sol\":1644:1656  depositRatio */\n      sload(0x05)\n        /* \"contracts/MyPiggBank.sol\":1644:1661  depositRatio == 0 */\n      sub\n        /* \"contracts/MyPiggBank.sol\":1640:1950  if (depositRatio == 0) {... */\n      tag_111\n      jumpi\n        /* \"contracts/MyPiggBank.sol\":1694:1695  0 */\n      0x00\n        /* \"contracts/MyPiggBank.sol\":1677:1695  _depoistAmount = 0 */\n      swap1\n      pop\n        /* \"contracts/MyPiggBank.sol\":1640:1950  if (depositRatio == 0) {... */\n      jump(tag_112)\n    tag_111:\n        /* \"contracts/MyPiggBank.sol\":1772:1775  100 */\n      0x64\n        /* \"contracts/MyPiggBank.sol\":1756:1768  depositRatio */\n      sload(0x05)\n        /* \"contracts/MyPiggBank.sol\":1744:1753  msg.value */\n      callvalue\n        /* \"contracts/MyPiggBank.sol\":1744:1768  msg.value * depositRatio */\n      tag_113\n      swap2\n      swap1\n      tag_114\n      jump\t// in\n    tag_113:\n        /* \"contracts/MyPiggBank.sol\":1743:1775  (msg.value * depositRatio) / 100 */\n      tag_115\n      swap2\n      swap1\n      tag_116\n      jump\t// in\n    tag_115:\n        /* \"contracts/MyPiggBank.sol\":1726:1775  _depoistAmount = (msg.value * depositRatio) / 100 */\n      swap1\n      pop\n        /* \"contracts/MyPiggBank.sol\":1821:1911  depositReceipt(... */\n      mload(0x40)\n      dup1\n      0x40\n      add\n      0x40\n      mstore\n      dup1\n        /* \"contracts/MyPiggBank.sol\":1853:1865  _depositTime */\n      dup4\n        /* \"contracts/MyPiggBank.sol\":1821:1911  depositReceipt(... */\n      dup2\n      mstore\n      0x20\n      add\n        /* \"contracts/MyPiggBank.sol\":1883:1897  _depoistAmount */\n      dup3\n        /* \"contracts/MyPiggBank.sol\":1821:1911  depositReceipt(... */\n      dup2\n      mstore\n      pop\n        /* \"contracts/MyPiggBank.sol\":1789:1804  depositReceipts */\n      0x02\n        /* \"contracts/MyPiggBank.sol\":1789:1818  depositReceipts[depositTimes] */\n      0x00\n        /* \"contracts/MyPiggBank.sol\":1805:1817  depositTimes */\n      sload(0x03)\n        /* \"contracts/MyPiggBank.sol\":1789:1818  depositReceipts[depositTimes] */\n      dup2\n      mstore\n      0x20\n      add\n      swap1\n      dup2\n      mstore\n      0x20\n      add\n      0x00\n      keccak256\n        /* \"contracts/MyPiggBank.sol\":1789:1911  depositReceipts[depositTimes] = depositReceipt(... */\n      0x00\n      dup3\n      add\n      mload\n      dup2\n      0x00\n      add\n      sstore\n      0x20\n      dup3\n      add\n      mload\n      dup2\n      0x01\n      add\n      sstore\n      swap1\n      pop\n      pop\n        /* \"contracts/MyPiggBank.sol\":1925:1937  depositTimes */\n      0x03\n      0x00\n        /* \"contracts/MyPiggBank.sol\":1925:1939  depositTimes++ */\n      dup2\n      sload\n      dup1\n      swap3\n      swap2\n      swap1\n      tag_117\n      swap1\n      tag_118\n      jump\t// in\n    tag_117:\n      swap2\n      swap1\n      pop\n      sstore\n      pop\n        /* \"contracts/MyPiggBank.sol\":1640:1950  if (depositRatio == 0) {... */\n    tag_112:\n        /* \"contracts/MyPiggBank.sol\":1979:1993  _depoistAmount */\n      dup1\n        /* \"contracts/MyPiggBank.sol\":1967:1976  msg.value */\n      callvalue\n        /* \"contracts/MyPiggBank.sol\":1967:1993  msg.value - _depoistAmount */\n      tag_119\n      swap2\n      swap1\n      tag_78\n      jump\t// in\n    tag_119:\n        /* \"contracts/MyPiggBank.sol\":1959:1963  cash */\n      0x00\n      0x00\n        /* \"contracts/MyPiggBank.sol\":1959:1993  cash += msg.value - _depoistAmount */\n      dup3\n      dup3\n      sload\n      tag_120\n      swap2\n      swap1\n      tag_104\n      jump\t// in\n    tag_120:\n      swap3\n      pop\n      pop\n      dup2\n      swap1\n      sstore\n      pop\n        /* \"contracts/MyPiggBank.sol\":1537:2000  {... */\n      pop\n      pop\n        /* \"contracts/MyPiggBank.sol\":1489:2000  function deposit() external payable sendMoreEth {... */\n      jump\t// out\n        /* \"contracts/MyPiggBank.sol\":1284:1446  function modifyDepositRatio(... */\n    tag_60:\n        /* \"contracts/MyPiggBank.sol\":1376:1389  _depositRatio */\n      dup1\n        /* \"contracts/MyPiggBank.sol\":312:320  10 ** 18 */\n      0x0de0b6b3a7640000\n        /* \"contracts/MyPiggBank.sol\":295:308  _depositRatio */\n      dup2\n        /* \"contracts/MyPiggBank.sol\":295:321  _depositRatio / (10 ** 18) */\n      tag_122\n      swap2\n      swap1\n      tag_116\n      jump\t// in\n    tag_122:\n        /* \"contracts/MyPiggBank.sol\":279:321  _depositRatio = _depositRatio / (10 ** 18) */\n      swap1\n      pop\n        /* \"contracts/MyPiggBank.sol\":369:370  0 */\n      0x00\n        /* \"contracts/MyPiggBank.sol\":352:365  _depositRatio */\n      dup2\n        /* \"contracts/MyPiggBank.sol\":352:370  _depositRatio >= 0 */\n      lt\n      iszero\n        /* \"contracts/MyPiggBank.sol\":352:394  _depositRatio >= 0 || _depositRatio <= 100 */\n      dup1\n      tag_123\n      jumpi\n      pop\n        /* \"contracts/MyPiggBank.sol\":391:394  100 */\n      0x64\n        /* \"contracts/MyPiggBank.sol\":374:387  _depositRatio */\n      dup2\n        /* \"contracts/MyPiggBank.sol\":374:394  _depositRatio <= 100 */\n      gt\n      iszero\n        /* \"contracts/MyPiggBank.sol\":352:394  _depositRatio >= 0 || _depositRatio <= 100 */\n    tag_123:\n        /* \"contracts/MyPiggBank.sol\":331:459  require(... */\n      tag_124\n      jumpi\n      mload(0x40)\n      0x08c379a000000000000000000000000000000000000000000000000000000000\n      dup2\n      mstore\n      0x04\n      add\n      tag_125\n      swap1\n      tag_126\n      jump\t// in\n    tag_125:\n      mload(0x40)\n      dup1\n      swap2\n      sub\n      swap1\n      revert\n    tag_124:\n        /* \"contracts/MyPiggBank.sol\":136:141  owner */\n      0x01\n      0x00\n      swap1\n      sload\n      swap1\n      0x0100\n      exp\n      swap1\n      div\n      0xffffffffffffffffffffffffffffffffffffffff\n      and\n        /* \"contracts/MyPiggBank.sol\":122:141  msg.sender == owner */\n      0xffffffffffffffffffffffffffffffffffffffff\n      and\n        /* \"contracts/MyPiggBank.sol\":122:132  msg.sender */\n      caller\n        /* \"contracts/MyPiggBank.sol\":122:141  msg.sender == owner */\n      0xffffffffffffffffffffffffffffffffffffffff\n      and\n      eq\n        /* \"contracts/MyPiggBank.sol\":114:155  require(msg.sender == owner, \"Not owner\") */\n      tag_128\n      jumpi\n      mload(0x40)\n      0x08c379a000000000000000000000000000000000000000000000000000000000\n      dup2\n      mstore\n      0x04\n      add\n      tag_129\n      swap1\n      tag_64\n      jump\t// in\n    tag_129:\n      mload(0x40)\n      dup1\n      swap2\n      sub\n      swap1\n      revert\n    tag_128:\n        /* \"contracts/MyPiggBank.sol\":1426:1439  _depositRatio */\n      dup2\n        /* \"contracts/MyPiggBank.sol\":1411:1423  depositRatio */\n      0x05\n        /* \"contracts/MyPiggBank.sol\":1411:1439  depositRatio = _depositRatio */\n      dup2\n      swap1\n      sstore\n      pop\n        /* \"contracts/MyPiggBank.sol\":1284:1446  function modifyDepositRatio(... */\n      pop\n      pop\n      jump\t// out\n        /* \"#utility.yul\":7:84   */\n    tag_131:\n        /* \"#utility.yul\":44:51   */\n      0x00\n        /* \"#utility.yul\":73:78   */\n      dup2\n        /* \"#utility.yul\":62:78   */\n      swap1\n      pop\n        /* \"#utility.yul\":7:84   */\n      swap2\n      swap1\n      pop\n      jump\t// out\n        /* \"#utility.yul\":90:208   */\n    tag_132:\n        /* \"#utility.yul\":177:201   */\n      tag_156\n        /* \"#utility.yul\":195:200   */\n      dup2\n        /* \"#utility.yul\":177:201   */\n      tag_131\n      jump\t// in\n    tag_156:\n        /* \"#utility.yul\":172:175   */\n      dup3\n        /* \"#utility.yul\":165:202   */\n      mstore\n        /* \"#utility.yul\":90:208   */\n      pop\n      pop\n      jump\t// out\n        /* \"#utility.yul\":214:436   */\n    tag_18:\n        /* \"#utility.yul\":307:311   */\n      0x00\n        /* \"#utility.yul\":345:347   */\n      0x20\n        /* \"#utility.yul\":334:343   */\n      dup3\n        /* \"#utility.yul\":330:348   */\n      add\n        /* \"#utility.yul\":322:348   */\n      swap1\n      pop\n        /* \"#utility.yul\":358:429   */\n      tag_158\n        /* \"#utility.yul\":426:427   */\n      0x00\n        /* \"#utility.yul\":415:424   */\n      dup4\n        /* \"#utility.yul\":411:428   */\n      add\n        /* \"#utility.yul\":402:408   */\n      dup5\n        /* \"#utility.yul\":358:429   */\n      tag_132\n      jump\t// in\n    tag_158:\n        /* \"#utility.yul\":214:436   */\n      swap3\n      swap2\n      pop\n      pop\n      jump\t// out\n        /* \"#utility.yul\":523:640   */\n    tag_134:\n        /* \"#utility.yul\":632:633   */\n      0x00\n        /* \"#utility.yul\":629:630   */\n      0x00\n        /* \"#utility.yul\":622:634   */\n      revert\n        /* \"#utility.yul\":769:891   */\n    tag_136:\n        /* \"#utility.yul\":842:866   */\n      tag_163\n        /* \"#utility.yul\":860:865   */\n      dup2\n        /* \"#utility.yul\":842:866   */\n      tag_131\n      jump\t// in\n    tag_163:\n        /* \"#utility.yul\":835:840   */\n      dup2\n        /* \"#utility.yul\":832:867   */\n      eq\n        /* \"#utility.yul\":822:885   */\n      tag_164\n      jumpi\n        /* \"#utility.yul\":881:882   */\n      0x00\n        /* \"#utility.yul\":878:879   */\n      0x00\n        /* \"#utility.yul\":871:883   */\n      revert\n        /* \"#utility.yul\":822:885   */\n    tag_164:\n        /* \"#utility.yul\":769:891   */\n      pop\n      jump\t// out\n        /* \"#utility.yul\":897:1036   */\n    tag_137:\n        /* \"#utility.yul\":943:948   */\n      0x00\n        /* \"#utility.yul\":981:987   */\n      dup2\n        /* \"#utility.yul\":968:988   */\n      calldataload\n        /* \"#utility.yul\":959:988   */\n      swap1\n      pop\n        /* \"#utility.yul\":997:1030   */\n      tag_166\n        /* \"#utility.yul\":1024:1029   */\n      dup2\n        /* \"#utility.yul\":997:1030   */\n      tag_136\n      jump\t// in\n    tag_166:\n        /* \"#utility.yul\":897:1036   */\n      swap3\n      swap2\n      pop\n      pop\n      jump\t// out\n        /* \"#utility.yul\":1042:1371   */\n    tag_22:\n        /* \"#utility.yul\":1101:1107   */\n      0x00\n        /* \"#utility.yul\":1150:1152   */\n      0x20\n        /* \"#utility.yul\":1138:1147   */\n      dup3\n        /* \"#utility.yul\":1129:1136   */\n      dup5\n        /* \"#utility.yul\":1125:1148   */\n      sub\n        /* \"#utility.yul\":1121:1153   */\n      slt\n        /* \"#utility.yul\":1118:1237   */\n      iszero\n      tag_168\n      jumpi\n        /* \"#utility.yul\":1156:1235   */\n      tag_169\n      tag_134\n      jump\t// in\n    tag_169:\n        /* \"#utility.yul\":1118:1237   */\n    tag_168:\n        /* \"#utility.yul\":1276:1277   */\n      0x00\n        /* \"#utility.yul\":1301:1354   */\n      tag_170\n        /* \"#utility.yul\":1346:1353   */\n      dup5\n        /* \"#utility.yul\":1337:1343   */\n      dup3\n        /* \"#utility.yul\":1326:1335   */\n      dup6\n        /* \"#utility.yul\":1322:1344   */\n      add\n        /* \"#utility.yul\":1301:1354   */\n      tag_137\n      jump\t// in\n    tag_170:\n        /* \"#utility.yul\":1291:1354   */\n      swap2\n      pop\n        /* \"#utility.yul\":1247:1364   */\n      pop\n        /* \"#utility.yul\":1042:1371   */\n      swap3\n      swap2\n      pop\n      pop\n      jump\t// out\n        /* \"#utility.yul\":1377:1709   */\n    tag_45:\n        /* \"#utility.yul\":1498:1502   */\n      0x00\n        /* \"#utility.yul\":1536:1538   */\n      0x40\n        /* \"#utility.yul\":1525:1534   */\n      dup3\n        /* \"#utility.yul\":1521:1539   */\n      add\n        /* \"#utility.yul\":1513:1539   */\n      swap1\n      pop\n        /* \"#utility.yul\":1549:1620   */\n      tag_172\n        /* \"#utility.yul\":1617:1618   */\n      0x00\n        /* \"#utility.yul\":1606:1615   */\n      dup4\n        /* \"#utility.yul\":1602:1619   */\n      add\n        /* \"#utility.yul\":1593:1599   */\n      dup6\n        /* \"#utility.yul\":1549:1620   */\n      tag_132\n      jump\t// in\n    tag_172:\n        /* \"#utility.yul\":1630:1702   */\n      tag_173\n        /* \"#utility.yul\":1698:1700   */\n      0x20\n        /* \"#utility.yul\":1687:1696   */\n      dup4\n        /* \"#utility.yul\":1683:1701   */\n      add\n        /* \"#utility.yul\":1674:1680   */\n      dup5\n        /* \"#utility.yul\":1630:1702   */\n      tag_132\n      jump\t// in\n    tag_173:\n        /* \"#utility.yul\":1377:1709   */\n      swap4\n      swap3\n      pop\n      pop\n      pop\n      jump\t// out\n        /* \"#utility.yul\":1715:1884   */\n    tag_138:\n        /* \"#utility.yul\":1799:1810   */\n      0x00\n        /* \"#utility.yul\":1833:1839   */\n      dup3\n        /* \"#utility.yul\":1828:1831   */\n      dup3\n        /* \"#utility.yul\":1821:1840   */\n      mstore\n        /* \"#utility.yul\":1873:1877   */\n      0x20\n        /* \"#utility.yul\":1868:1871   */\n      dup3\n        /* \"#utility.yul\":1864:1878   */\n      add\n        /* \"#utility.yul\":1849:1878   */\n      swap1\n      pop\n        /* \"#utility.yul\":1715:1884   */\n      swap3\n      swap2\n      pop\n      pop\n      jump\t// out\n        /* \"#utility.yul\":1890:2049   */\n    tag_139:\n        /* \"#utility.yul\":2030:2041   */\n      0x4e6f74206f776e65720000000000000000000000000000000000000000000000\n        /* \"#utility.yul\":2026:2027   */\n      0x00\n        /* \"#utility.yul\":2018:2024   */\n      dup3\n        /* \"#utility.yul\":2014:2028   */\n      add\n        /* \"#utility.yul\":2007:2042   */\n      mstore\n        /* \"#utility.yul\":1890:2049   */\n      pop\n      jump\t// out\n        /* \"#utility.yul\":2055:2420   */\n    tag_140:\n        /* \"#utility.yul\":2197:2200   */\n      0x00\n        /* \"#utility.yul\":2218:2284   */\n      tag_177\n        /* \"#utility.yul\":2282:2283   */\n      0x09\n        /* \"#utility.yul\":2277:2280   */\n      dup4\n        /* \"#utility.yul\":2218:2284   */\n      tag_138\n      jump\t// in\n    tag_177:\n        /* \"#utility.yul\":2211:2284   */\n      swap2\n      pop\n        /* \"#utility.yul\":2293:2386   */\n      tag_178\n        /* \"#utility.yul\":2382:2385   */\n      dup3\n        /* \"#utility.yul\":2293:2386   */\n      tag_139\n      jump\t// in\n    tag_178:\n        /* \"#utility.yul\":2411:2413   */\n      0x20\n        /* \"#utility.yul\":2406:2409   */\n      dup3\n        /* \"#utility.yul\":2402:2414   */\n      add\n        /* \"#utility.yul\":2395:2414   */\n      swap1\n      pop\n        /* \"#utility.yul\":2055:2420   */\n      swap2\n      swap1\n      pop\n      jump\t// out\n        /* \"#utility.yul\":2426:2845   */\n    tag_64:\n        /* \"#utility.yul\":2592:2596   */\n      0x00\n        /* \"#utility.yul\":2630:2632   */\n      0x20\n        /* \"#utility.yul\":2619:2628   */\n      dup3\n        /* \"#utility.yul\":2615:2633   */\n      add\n        /* \"#utility.yul\":2607:2633   */\n      swap1\n      pop\n        /* \"#utility.yul\":2679:2688   */\n      dup2\n        /* \"#utility.yul\":2673:2677   */\n      dup2\n        /* \"#utility.yul\":2669:2689   */\n      sub\n        /* \"#utility.yul\":2665:2666   */\n      0x00\n        /* \"#utility.yul\":2654:2663   */\n      dup4\n        /* \"#utility.yul\":2650:2667   */\n      add\n        /* \"#utility.yul\":2643:2690   */\n      mstore\n        /* \"#utility.yul\":2707:2838   */\n      tag_180\n        /* \"#utility.yul\":2833:2837   */\n      dup2\n        /* \"#utility.yul\":2707:2838   */\n      tag_140\n      jump\t// in\n    tag_180:\n        /* \"#utility.yul\":2699:2838   */\n      swap1\n      pop\n        /* \"#utility.yul\":2426:2845   */\n      swap2\n      swap1\n      pop\n      jump\t// out\n        /* \"#utility.yul\":2851:3071   */\n    tag_141:\n        /* \"#utility.yul\":2991:3025   */\n      0x207769746864726177206e6f742066696e69736820706c656173652077616974\n        /* \"#utility.yul\":2987:2988   */\n      0x00\n        /* \"#utility.yul\":2979:2985   */\n      dup3\n        /* \"#utility.yul\":2975:2989   */\n      add\n        /* \"#utility.yul\":2968:3026   */\n      mstore\n        /* \"#utility.yul\":3060:3063   */\n      0x2000000000000000000000000000000000000000000000000000000000000000\n        /* \"#utility.yul\":3055:3057   */\n      0x20\n        /* \"#utility.yul\":3047:3053   */\n      dup3\n        /* \"#utility.yul\":3043:3058   */\n      add\n        /* \"#utility.yul\":3036:3064   */\n      mstore\n        /* \"#utility.yul\":2851:3071   */\n      pop\n      jump\t// out\n        /* \"#utility.yul\":3077:3443   */\n    tag_142:\n        /* \"#utility.yul\":3219:3222   */\n      0x00\n        /* \"#utility.yul\":3240:3307   */\n      tag_183\n        /* \"#utility.yul\":3304:3306   */\n      0x21\n        /* \"#utility.yul\":3299:3302   */\n      dup4\n        /* \"#utility.yul\":3240:3307   */\n      tag_138\n      jump\t// in\n    tag_183:\n        /* \"#utility.yul\":3233:3307   */\n      swap2\n      pop\n        /* \"#utility.yul\":3316:3409   */\n      tag_184\n        /* \"#utility.yul\":3405:3408   */\n      dup3\n        /* \"#utility.yul\":3316:3409   */\n      tag_141\n      jump\t// in\n    tag_184:\n        /* \"#utility.yul\":3434:3436   */\n      0x40\n        /* \"#utility.yul\":3429:3432   */\n      dup3\n        /* \"#utility.yul\":3425:3437   */\n      add\n        /* \"#utility.yul\":3418:3437   */\n      swap1\n      pop\n        /* \"#utility.yul\":3077:3443   */\n      swap2\n      swap1\n      pop\n      jump\t// out\n        /* \"#utility.yul\":3449:3868   */\n    tag_68:\n        /* \"#utility.yul\":3615:3619   */\n      0x00\n        /* \"#utility.yul\":3653:3655   */\n      0x20\n        /* \"#utility.yul\":3642:3651   */\n      dup3\n        /* \"#utility.yul\":3638:3656   */\n      add\n        /* \"#utility.yul\":3630:3656   */\n      swap1\n      pop\n        /* \"#utility.yul\":3702:3711   */\n      dup2\n        /* \"#utility.yul\":3696:3700   */\n      dup2\n        /* \"#utility.yul\":3692:3712   */\n      sub\n        /* \"#utility.yul\":3688:3689   */\n      0x00\n        /* \"#utility.yul\":3677:3686   */\n      dup4\n        /* \"#utility.yul\":3673:3690   */\n      add\n        /* \"#utility.yul\":3666:3713   */\n      mstore\n        /* \"#utility.yul\":3730:3861   */\n      tag_186\n        /* \"#utility.yul\":3856:3860   */\n      dup2\n        /* \"#utility.yul\":3730:3861   */\n      tag_142\n      jump\t// in\n    tag_186:\n        /* \"#utility.yul\":3722:3861   */\n      swap1\n      pop\n        /* \"#utility.yul\":3449:3868   */\n      swap2\n      swap1\n      pop\n      jump\t// out\n        /* \"#utility.yul\":3874:4098   */\n    tag_143:\n        /* \"#utility.yul\":4014:4048   */\n      0x206e6f74206861766520656e676f75687420616d6f756e7420746f2077697468\n        /* \"#utility.yul\":4010:4011   */\n      0x00\n        /* \"#utility.yul\":4002:4008   */\n      dup3\n        /* \"#utility.yul\":3998:4012   */\n      add\n        /* \"#utility.yul\":3991:4049   */\n      mstore\n        /* \"#utility.yul\":4083:4090   */\n      0x6472617720000000000000000000000000000000000000000000000000000000\n        /* \"#utility.yul\":4078:4080   */\n      0x20\n        /* \"#utility.yul\":4070:4076   */\n      dup3\n        /* \"#utility.yul\":4066:4081   */\n      add\n        /* \"#utility.yul\":4059:4091   */\n      mstore\n        /* \"#utility.yul\":3874:4098   */\n      pop\n      jump\t// out\n        /* \"#utility.yul\":4104:4470   */\n    tag_144:\n        /* \"#utility.yul\":4246:4249   */\n      0x00\n        /* \"#utility.yul\":4267:4334   */\n      tag_189\n        /* \"#utility.yul\":4331:4333   */\n      0x25\n        /* \"#utility.yul\":4326:4329   */\n      dup4\n        /* \"#utility.yul\":4267:4334   */\n      tag_138\n      jump\t// in\n    tag_189:\n        /* \"#utility.yul\":4260:4334   */\n      swap2\n      pop\n        /* \"#utility.yul\":4343:4436   */\n      tag_190\n        /* \"#utility.yul\":4432:4435   */\n      dup3\n        /* \"#utility.yul\":4343:4436   */\n      tag_143\n      jump\t// in\n    tag_190:\n        /* \"#utility.yul\":4461:4463   */\n      0x40\n        /* \"#utility.yul\":4456:4459   */\n      dup3\n        /* \"#utility.yul\":4452:4464   */\n      add\n        /* \"#utility.yul\":4445:4464   */\n      swap1\n      pop\n        /* \"#utility.yul\":4104:4470   */\n      swap2\n      swap1\n      pop\n      jump\t// out\n        /* \"#utility.yul\":4476:4895   */\n    tag_74:\n        /* \"#utility.yul\":4642:4646   */\n      0x00\n        /* \"#utility.yul\":4680:4682   */\n      0x20\n        /* \"#utility.yul\":4669:4678   */\n      dup3\n        /* \"#utility.yul\":4665:4683   */\n      add\n        /* \"#utility.yul\":4657:4683   */\n      swap1\n      pop\n        /* \"#utility.yul\":4729:4738   */\n      dup2\n        /* \"#utility.yul\":4723:4727   */\n      dup2\n        /* \"#utility.yul\":4719:4739   */\n      sub\n        /* \"#utility.yul\":4715:4716   */\n      0x00\n        /* \"#utility.yul\":4704:4713   */\n      dup4\n        /* \"#utility.yul\":4700:4717   */\n      add\n        /* \"#utility.yul\":4693:4740   */\n      mstore\n        /* \"#utility.yul\":4757:4888   */\n      tag_192\n        /* \"#utility.yul\":4883:4887   */\n      dup2\n        /* \"#utility.yul\":4757:4888   */\n      tag_144\n      jump\t// in\n    tag_192:\n        /* \"#utility.yul\":4749:4888   */\n      swap1\n      pop\n        /* \"#utility.yul\":4476:4895   */\n      swap2\n      swap1\n      pop\n      jump\t// out\n        /* \"#utility.yul\":4901:5081   */\n    tag_145:\n        /* \"#utility.yul\":4949:5026   */\n      0x4e487b7100000000000000000000000000000000000000000000000000000000\n        /* \"#utility.yul\":4946:4947   */\n      0x00\n        /* \"#utility.yul\":4939:5027   */\n      mstore\n        /* \"#utility.yul\":5046:5050   */\n      0x11\n        /* \"#utility.yul\":5043:5044   */\n      0x04\n        /* \"#utility.yul\":5036:5051   */\n      mstore\n        /* \"#utility.yul\":5070:5074   */\n      0x24\n        /* \"#utility.yul\":5067:5068   */\n      0x00\n        /* \"#utility.yul\":5060:5075   */\n      revert\n        /* \"#utility.yul\":5087:5281   */\n    tag_78:\n        /* \"#utility.yul\":5127:5131   */\n      0x00\n        /* \"#utility.yul\":5147:5167   */\n      tag_195\n        /* \"#utility.yul\":5165:5166   */\n      dup3\n        /* \"#utility.yul\":5147:5167   */\n      tag_131\n      jump\t// in\n    tag_195:\n        /* \"#utility.yul\":5142:5167   */\n      swap2\n      pop\n        /* \"#utility.yul\":5181:5201   */\n      tag_196\n        /* \"#utility.yul\":5199:5200   */\n      dup4\n        /* \"#utility.yul\":5181:5201   */\n      tag_131\n      jump\t// in\n    tag_196:\n        /* \"#utility.yul\":5176:5201   */\n      swap3\n      pop\n        /* \"#utility.yul\":5225:5226   */\n      dup3\n        /* \"#utility.yul\":5222:5223   */\n      dup3\n        /* \"#utility.yul\":5218:5227   */\n      sub\n        /* \"#utility.yul\":5210:5227   */\n      swap1\n      pop\n        /* \"#utility.yul\":5249:5250   */\n      dup2\n        /* \"#utility.yul\":5243:5247   */\n      dup2\n        /* \"#utility.yul\":5240:5251   */\n      gt\n        /* \"#utility.yul\":5237:5274   */\n      iszero\n      tag_197\n      jumpi\n        /* \"#utility.yul\":5254:5272   */\n      tag_198\n      tag_145\n      jump\t// in\n    tag_198:\n        /* \"#utility.yul\":5237:5274   */\n    tag_197:\n        /* \"#utility.yul\":5087:5281   */\n      swap3\n      swap2\n      pop\n      pop\n      jump\t// out\n        /* \"#utility.yul\":5287:5453   */\n    tag_146:\n        /* \"#utility.yul\":5427:5445   */\n      0x6e6f7420656e6f75676820636173682000000000000000000000000000000000\n        /* \"#utility.yul\":5423:5424   */\n      0x00\n        /* \"#utility.yul\":5415:5421   */\n      dup3\n        /* \"#utility.yul\":5411:5425   */\n      add\n        /* \"#utility.yul\":5404:5446   */\n      mstore\n        /* \"#utility.yul\":5287:5453   */\n      pop\n      jump\t// out\n        /* \"#utility.yul\":5459:5825   */\n    tag_147:\n        /* \"#utility.yul\":5601:5604   */\n      0x00\n        /* \"#utility.yul\":5622:5689   */\n      tag_201\n        /* \"#utility.yul\":5686:5688   */\n      0x10\n        /* \"#utility.yul\":5681:5684   */\n      dup4\n        /* \"#utility.yul\":5622:5689   */\n      tag_138\n      jump\t// in\n    tag_201:\n        /* \"#utility.yul\":5615:5689   */\n      swap2\n      pop\n        /* \"#utility.yul\":5698:5791   */\n      tag_202\n        /* \"#utility.yul\":5787:5790   */\n      dup3\n        /* \"#utility.yul\":5698:5791   */\n      tag_146\n      jump\t// in\n    tag_202:\n        /* \"#utility.yul\":5816:5818   */\n      0x20\n        /* \"#utility.yul\":5811:5814   */\n      dup3\n        /* \"#utility.yul\":5807:5819   */\n      add\n        /* \"#utility.yul\":5800:5819   */\n      swap1\n      pop\n        /* \"#utility.yul\":5459:5825   */\n      swap2\n      swap1\n      pop\n      jump\t// out\n        /* \"#utility.yul\":5831:6250   */\n    tag_92:\n        /* \"#utility.yul\":5997:6001   */\n      0x00\n        /* \"#utility.yul\":6035:6037   */\n      0x20\n        /* \"#utility.yul\":6024:6033   */\n      dup3\n        /* \"#utility.yul\":6020:6038   */\n      add\n        /* \"#utility.yul\":6012:6038   */\n      swap1\n      pop\n        /* \"#utility.yul\":6084:6093   */\n      dup2\n        /* \"#utility.yul\":6078:6082   */\n      dup2\n        /* \"#utility.yul\":6074:6094   */\n      sub\n        /* \"#utility.yul\":6070:6071   */\n      0x00\n        /* \"#utility.yul\":6059:6068   */\n      dup4\n        /* \"#utility.yul\":6055:6072   */\n      add\n        /* \"#utility.yul\":6048:6095   */\n      mstore\n        /* \"#utility.yul\":6112:6243   */\n      tag_204\n        /* \"#utility.yul\":6238:6242   */\n      dup2\n        /* \"#utility.yul\":6112:6243   */\n      tag_147\n      jump\t// in\n    tag_204:\n        /* \"#utility.yul\":6104:6243   */\n      swap1\n      pop\n        /* \"#utility.yul\":5831:6250   */\n      swap2\n      swap1\n      pop\n      jump\t// out\n        /* \"#utility.yul\":6256:6447   */\n    tag_104:\n        /* \"#utility.yul\":6296:6299   */\n      0x00\n        /* \"#utility.yul\":6315:6335   */\n      tag_206\n        /* \"#utility.yul\":6333:6334   */\n      dup3\n        /* \"#utility.yul\":6315:6335   */\n      tag_131\n      jump\t// in\n    tag_206:\n        /* \"#utility.yul\":6310:6335   */\n      swap2\n      pop\n        /* \"#utility.yul\":6349:6369   */\n      tag_207\n        /* \"#utility.yul\":6367:6368   */\n      dup4\n        /* \"#utility.yul\":6349:6369   */\n      tag_131\n      jump\t// in\n    tag_207:\n        /* \"#utility.yul\":6344:6369   */\n      swap3\n      pop\n        /* \"#utility.yul\":6392:6393   */\n      dup3\n        /* \"#utility.yul\":6389:6390   */\n      dup3\n        /* \"#utility.yul\":6385:6394   */\n      add\n        /* \"#utility.yul\":6378:6394   */\n      swap1\n      pop\n        /* \"#utility.yul\":6413:6416   */\n      dup1\n        /* \"#utility.yul\":6410:6411   */\n      dup3\n        /* \"#utility.yul\":6407:6417   */\n      gt\n        /* \"#utility.yul\":6404:6440   */\n      iszero\n      tag_208\n      jumpi\n        /* \"#utility.yul\":6420:6438   */\n      tag_209\n      tag_145\n      jump\t// in\n    tag_209:\n        /* \"#utility.yul\":6404:6440   */\n    tag_208:\n        /* \"#utility.yul\":6256:6447   */\n      swap3\n      swap2\n      pop\n      pop\n      jump\t// out\n        /* \"#utility.yul\":6453:6616   */\n    tag_148:\n        /* \"#utility.yul\":6593:6608   */\n      0x6e6565642073656e642065746800000000000000000000000000000000000000\n        /* \"#utility.yul\":6589:6590   */\n      0x00\n        /* \"#utility.yul\":6581:6587   */\n      dup3\n        /* \"#utility.yul\":6577:6591   */\n      add\n        /* \"#utility.yul\":6570:6609   */\n      mstore\n        /* \"#utility.yul\":6453:6616   */\n      pop\n      jump\t// out\n        /* \"#utility.yul\":6622:6988   */\n    tag_149:\n        /* \"#utility.yul\":6764:6767   */\n      0x00\n        /* \"#utility.yul\":6785:6852   */\n      tag_212\n        /* \"#utility.yul\":6849:6851   */\n      0x0d\n        /* \"#utility.yul\":6844:6847   */\n      dup4\n        /* \"#utility.yul\":6785:6852   */\n      tag_138\n      jump\t// in\n    tag_212:\n        /* \"#utility.yul\":6778:6852   */\n      swap2\n      pop\n        /* \"#utility.yul\":6861:6954   */\n      tag_213\n        /* \"#utility.yul\":6950:6953   */\n      dup3\n        /* \"#utility.yul\":6861:6954   */\n      tag_148\n      jump\t// in\n    tag_213:\n        /* \"#utility.yul\":6979:6981   */\n      0x20\n        /* \"#utility.yul\":6974:6977   */\n      dup3\n        /* \"#utility.yul\":6970:6982   */\n      add\n        /* \"#utility.yul\":6963:6982   */\n      swap1\n      pop\n        /* \"#utility.yul\":6622:6988   */\n      swap2\n      swap1\n      pop\n      jump\t// out\n        /* \"#utility.yul\":6994:7413   */\n    tag_108:\n        /* \"#utility.yul\":7160:7164   */\n      0x00\n        /* \"#utility.yul\":7198:7200   */\n      0x20\n        /* \"#utility.yul\":7187:7196   */\n      dup3\n        /* \"#utility.yul\":7183:7201   */\n      add\n        /* \"#utility.yul\":7175:7201   */\n      swap1\n      pop\n        /* \"#utility.yul\":7247:7256   */\n      dup2\n        /* \"#utility.yul\":7241:7245   */\n      dup2\n        /* \"#utility.yul\":7237:7257   */\n      sub\n        /* \"#utility.yul\":7233:7234   */\n      0x00\n        /* \"#utility.yul\":7222:7231   */\n      dup4\n        /* \"#utility.yul\":7218:7235   */\n      add\n        /* \"#utility.yul\":7211:7258   */\n      mstore\n        /* \"#utility.yul\":7275:7406   */\n      tag_215\n        /* \"#utility.yul\":7401:7405   */\n      dup2\n        /* \"#utility.yul\":7275:7406   */\n      tag_149\n      jump\t// in\n    tag_215:\n        /* \"#utility.yul\":7267:7406   */\n      swap1\n      pop\n        /* \"#utility.yul\":6994:7413   */\n      swap2\n      swap1\n      pop\n      jump\t// out\n        /* \"#utility.yul\":7419:7829   */\n    tag_114:\n        /* \"#utility.yul\":7459:7466   */\n      0x00\n        /* \"#utility.yul\":7482:7502   */\n      tag_217\n        /* \"#utility.yul\":7500:7501   */\n      dup3\n        /* \"#utility.yul\":7482:7502   */\n      tag_131\n      jump\t// in\n    tag_217:\n        /* \"#utility.yul\":7477:7502   */\n      swap2\n      pop\n        /* \"#utility.yul\":7516:7536   */\n      tag_218\n        /* \"#utility.yul\":7534:7535   */\n      dup4\n        /* \"#utility.yul\":7516:7536   */\n      tag_131\n      jump\t// in\n    tag_218:\n        /* \"#utility.yul\":7511:7536   */\n      swap3\n      pop\n        /* \"#utility.yul\":7571:7572   */\n      dup3\n        /* \"#utility.yul\":7568:7569   */\n      dup3\n        /* \"#utility.yul\":7564:7573   */\n      mul\n        /* \"#utility.yul\":7593:7623   */\n      tag_219\n        /* \"#utility.yul\":7611:7622   */\n      dup2\n        /* \"#utility.yul\":7593:7623   */\n      tag_131\n      jump\t// in\n    tag_219:\n        /* \"#utility.yul\":7582:7623   */\n      swap2\n      pop\n        /* \"#utility.yul\":7772:7773   */\n      dup3\n        /* \"#utility.yul\":7763:7770   */\n      dup3\n        /* \"#utility.yul\":7759:7774   */\n      div\n        /* \"#utility.yul\":7756:7757   */\n      dup5\n        /* \"#utility.yul\":7753:7775   */\n      eq\n        /* \"#utility.yul\":7733:7734   */\n      dup4\n        /* \"#utility.yul\":7726:7735   */\n      iszero\n        /* \"#utility.yul\":7706:7789   */\n      or\n        /* \"#utility.yul\":7683:7822   */\n      tag_220\n      jumpi\n        /* \"#utility.yul\":7802:7820   */\n      tag_221\n      tag_145\n      jump\t// in\n    tag_221:\n        /* \"#utility.yul\":7683:7822   */\n    tag_220:\n        /* \"#utility.yul\":7467:7829   */\n      pop\n        /* \"#utility.yul\":7419:7829   */\n      swap3\n      swap2\n      pop\n      pop\n      jump\t// out\n        /* \"#utility.yul\":7835:8015   */\n    tag_150:\n        /* \"#utility.yul\":7883:7960   */\n      0x4e487b7100000000000000000000000000000000000000000000000000000000\n        /* \"#utility.yul\":7880:7881   */\n      0x00\n        /* \"#utility.yul\":7873:7961   */\n      mstore\n        /* \"#utility.yul\":7980:7984   */\n      0x12\n        /* \"#utility.yul\":7977:7978   */\n      0x04\n        /* \"#utility.yul\":7970:7985   */\n      mstore\n        /* \"#utility.yul\":8004:8008   */\n      0x24\n        /* \"#utility.yul\":8001:8002   */\n      0x00\n        /* \"#utility.yul\":7994:8009   */\n      revert\n        /* \"#utility.yul\":8021:8206   */\n    tag_116:\n        /* \"#utility.yul\":8061:8062   */\n      0x00\n        /* \"#utility.yul\":8078:8098   */\n      tag_224\n        /* \"#utility.yul\":8096:8097   */\n      dup3\n        /* \"#utility.yul\":8078:8098   */\n      tag_131\n      jump\t// in\n    tag_224:\n        /* \"#utility.yul\":8073:8098   */\n      swap2\n      pop\n        /* \"#utility.yul\":8112:8132   */\n      tag_225\n        /* \"#utility.yul\":8130:8131   */\n      dup4\n        /* \"#utility.yul\":8112:8132   */\n      tag_131\n      jump\t// in\n    tag_225:\n        /* \"#utility.yul\":8107:8132   */\n      swap3\n      pop\n        /* \"#utility.yul\":8151:8152   */\n      dup3\n        /* \"#utility.yul\":8141:8176   */\n      tag_226\n      jumpi\n        /* \"#utility.yul\":8156:8174   */\n      tag_227\n      tag_150\n      jump\t// in\n    tag_227:\n        /* \"#utility.yul\":8141:8176   */\n    tag_226:\n        /* \"#utility.yul\":8198:8199   */\n      dup3\n        /* \"#utility.yul\":8195:8196   */\n      dup3\n        /* \"#utility.yul\":8191:8200   */\n      div\n        /* \"#utility.yul\":8186:8200   */\n      swap1\n      pop\n        /* \"#utility.yul\":8021:8206   */\n      swap3\n      swap2\n      pop\n      pop\n      jump\t// out\n        /* \"#utility.yul\":8212:8445   */\n    tag_118:\n        /* \"#utility.yul\":8251:8254   */\n      0x00\n        /* \"#utility.yul\":8274:8298   */\n      tag_229\n        /* \"#utility.yul\":8292:8297   */\n      dup3\n        /* \"#utility.yul\":8274:8298   */\n      tag_131\n      jump\t// in\n    tag_229:\n        /* \"#utility.yul\":8265:8298   */\n      swap2\n      pop\n        /* \"#utility.yul\":8320:8386   */\n      0xffffffffffffffffffffffffffffffffffffffffffffffffffffffffffffffff\n        /* \"#utility.yul\":8313:8318   */\n      dup3\n        /* \"#utility.yul\":8310:8387   */\n      sub\n        /* \"#utility.yul\":8307:8410   */\n      tag_230\n      jumpi\n        /* \"#utility.yul\":8390:8408   */\n      tag_231\n      tag_145\n      jump\t// in\n    tag_231:\n        /* \"#utility.yul\":8307:8410   */\n    tag_230:\n        /* \"#utility.yul\":8437:8438   */\n      0x01\n        /* \"#utility.yul\":8430:8435   */\n      dup3\n        /* \"#utility.yul\":8426:8439   */\n      add\n        /* \"#utility.yul\":8419:8439   */\n      swap1\n      pop\n        /* \"#utility.yul\":8212:8445   */\n      swap2\n      swap1\n      pop\n      jump\t// out\n        /* \"#utility.yul\":8451:8677   */\n    tag_151:\n        /* \"#utility.yul\":8591:8625   */\n      0x6465706f736974526174696f206d757374206265206265747765656e20302061\n        /* \"#utility.yul\":8587:8588   */\n      0x00\n        /* \"#utility.yul\":8579:8585   */\n      dup3\n        /* \"#utility.yul\":8575:8589   */\n      add\n        /* \"#utility.yul\":8568:8626   */\n      mstore\n        /* \"#utility.yul\":8660:8669   */\n      0x6e64203130302000000000000000000000000000000000000000000000000000\n        /* \"#utility.yul\":8655:8657   */\n      0x20\n        /* \"#utility.yul\":8647:8653   */\n      dup3\n        /* \"#utility.yul\":8643:8658   */\n      add\n        /* \"#utility.yul\":8636:8670   */\n      mstore\n        /* \"#utility.yul\":8451:8677   */\n      pop\n      jump\t// out\n        /* \"#utility.yul\":8683:9049   */\n    tag_152:\n        /* \"#utility.yul\":8825:8828   */\n      0x00\n        /* \"#utility.yul\":8846:8913   */\n      tag_234\n        /* \"#utility.yul\":8910:8912   */\n      0x27\n        /* \"#utility.yul\":8905:8908   */\n      dup4\n        /* \"#utility.yul\":8846:8913   */\n      tag_138\n      jump\t// in\n    tag_234:\n        /* \"#utility.yul\":8839:8913   */\n      swap2\n      pop\n        /* \"#utility.yul\":8922:9015   */\n      tag_235\n        /* \"#utility.yul\":9011:9014   */\n      dup3\n        /* \"#utility.yul\":8922:9015   */\n      tag_151\n      jump\t// in\n    tag_235:\n        /* \"#utility.yul\":9040:9042   */\n      0x40\n        /* \"#utility.yul\":9035:9038   */\n      dup3\n        /* \"#utility.yul\":9031:9043   */\n      add\n        /* \"#utility.yul\":9024:9043   */\n      swap1\n      pop\n        /* \"#utility.yul\":8683:9049   */\n      swap2\n      swap1\n      pop\n      jump\t// out\n        /* \"#utility.yul\":9055:9474   */\n    tag_126:\n        /* \"#utility.yul\":9221:9225   */\n      0x00\n        /* \"#utility.yul\":9259:9261   */\n      0x20\n        /* \"#utility.yul\":9248:9257   */\n      dup3\n        /* \"#utility.yul\":9244:9262   */\n      add\n        /* \"#utility.yul\":9236:9262   */\n      swap1\n      pop\n        /* \"#utility.yul\":9308:9317   */\n      dup2\n        /* \"#utility.yul\":9302:9306   */\n      dup2\n        /* \"#utility.yul\":9298:9318   */\n      sub\n        /* \"#utility.yul\":9294:9295   */\n      0x00\n        /* \"#utility.yul\":9283:9292   */\n      dup4\n        /* \"#utility.yul\":9279:9296   */\n      add\n        /* \"#utility.yul\":9272:9319   */\n      mstore\n        /* \"#utility.yul\":9336:9467   */\n      tag_237\n        /* \"#utility.yul\":9462:9466   */\n      dup2\n        /* \"#utility.yul\":9336:9467   */\n      tag_152\n      jump\t// in\n    tag_237:\n        /* \"#utility.yul\":9328:9467   */\n      swap1\n      pop\n        /* \"#utility.yul\":9055:9474   */\n      swap2\n      swap1\n      pop\n      jump\t// out\n\n    auxdata: 0xa26469706673582212209efd537334a7fd38cbbfa4a49b4b52c86f328c3a2e2120b35cfc6a843c51a62364736f6c634300081d0033\n}\n",
				"bytecode": {
					"linkReferences": {},
					"object": "60806040525f6003555f60065f6101000a81548160ff021916908315150217905550348015602b575f5ffd5b503360015f6101000a81548173ffffffffffffffffffffffffffffffffffffffff021916908373ffffffffffffffffffffffffffffffffffffffff160217905550610dff806100795f395ff3fe60806040526004361061009b575f3560e01c8063961be39111610063578063961be3911461016d578063b0a51e4e14610197578063b5c150d4146101d4578063c6f0837a14610210578063d0e30db01461023a578063eabd412b146102445761009b565b80631a39d8ef1461009f57806333289a46146100c957806383e4cccf146100f157806386e6563c1461011957806387ceff0914610143575b5f5ffd5b3480156100aa575f5ffd5b506100b361026c565b6040516100c091906108c6565b60405180910390f35b3480156100d4575f5ffd5b506100ef60048036038101906100ea919061090d565b610272565b005b3480156100fc575f5ffd5b506101176004803603810190610112919061090d565b6104da565b005b348015610124575f5ffd5b5061012d61060b565b60405161013a91906108c6565b60405180910390f35b34801561014e575f5ffd5b50610157610611565b60405161016491906108c6565b60405180910390f35b348015610178575f5ffd5b50610181610618565b60405161018e91906108c6565b60405180910390f35b3480156101a2575f5ffd5b506101bd60048036038101906101b8919061090d565b61061d565b6040516101cb929190610938565b60405180910390f35b3480156101df575f5ffd5b506101fa60048036038101906101f5919061090d565b61063d565b60405161020791906108c6565b60405180910390f35b34801561021b575f5ffd5b506102246106ad565b60405161023191906108c6565b60405180910390f35b6102426106b3565b005b34801561024f575f5ffd5b5061026a6004803603810190610265919061090d565b6107ae565b005b60045481565b60015f9054906101000a900473ffffffffffffffffffffffffffffffffffffffff1673ffffffffffffffffffffffffffffffffffffffff163373ffffffffffffffffffffffffffffffffffffffff1614610301576040517f08c379a00000000000000000000000000000000000000000000000000000000081526004016102f8906109b9565b60405180910390fd5b60065f9054906101000a900460ff1615610350576040517f08c379a000000000000000000000000000000000000000000000000000000000815260040161034790610a47565b60405180910390fd5b600160065f6101000a81548160ff0219169083151502179055505f610373610611565b905061037e8161063d565b60048190555081600454116103c8576040517f08c379a00000000000000000000000000000000000000000000000000000000081526004016103bf90610ad5565b60405180910390fd5b3373ffffffffffffffffffffffffffffffffffffffff166108fc8390811502906040515f60405180830381858888f1935050505015801561040b573d5f5f3e3d5ffd5b508160045f82825461041d9190610b20565b925050819055505f5f90505b6003548110156104d5575f60025f8381526020019081526020015f2060010154905083811161047e575f60025f8481526020019081526020015f206001018190555080846104779190610b20565b93506104c7565b8360025f8481526020019081526020015f206001015f8282546104a19190610b20565b925050819055505f60065f6101000a81548160ff021916908315150217905550506104d5565b508080600101915050610429565b505050565b60015f9054906101000a900473ffffffffffffffffffffffffffffffffffffffff1673ffffffffffffffffffffffffffffffffffffffff163373ffffffffffffffffffffffffffffffffffffffff1614610569576040517f08c379a0000000000000000000000000000000000000000000000000000000008152600401610560906109b9565b60405180910390fd5b805f5410156105ad576040517f08c379a00000000000000000000000000000000000000000000000000000000081526004016105a490610b9d565b60405180910390fd5b805f5f8282546105bd9190610b20565b925050819055503373ffffffffffffffffffffffffffffffffffffffff166108fc8290811502906040515f60405180830381858888f19350505050158015610607573d5f5f3e3d5ffd5b5050565b60035481565b5f42905090565b5f5481565b6002602052805f5260405f205f91509050805f0154908060010154905082565b5f5f8203610649574291505b5f5f90505b6003548110156106a7575f60025f8381526020019081526020015f205f015490508381116106995760025f8381526020019081526020015f2060010154836106969190610bbb565b92505b50808060010191505061064e565b50919050565b60055481565b5f34116106f5576040517f08c379a00000000000000000000000000000000000000000000000000000000081526004016106ec90610c38565b60405180910390fd5b5f603c426107039190610bbb565b90505f5f60055403610717575f9050610788565b6064600554346107279190610c56565b6107319190610cc4565b905060405180604001604052808381526020018281525060025f60035481526020019081526020015f205f820151815f01556020820151816001015590505060035f81548092919061078290610cf4565b91905055505b80346107949190610b20565b5f5f8282546107a39190610bbb565b925050819055505050565b80670de0b6b3a7640000816107c39190610cc4565b90505f811015806107d5575060648111155b610814576040517f08c379a000000000000000000000000000000000000000000000000000000000815260040161080b90610dab565b60405180910390fd5b60015f9054906101000a900473ffffffffffffffffffffffffffffffffffffffff1673ffffffffffffffffffffffffffffffffffffffff163373ffffffffffffffffffffffffffffffffffffffff16146108a3576040517f08c379a000000000000000000000000000000000000000000000000000000000815260040161089a906109b9565b60405180910390fd5b816005819055505050565b5f819050919050565b6108c0816108ae565b82525050565b5f6020820190506108d95f8301846108b7565b92915050565b5f5ffd5b6108ec816108ae565b81146108f6575f5ffd5b50565b5f81359050610907816108e3565b92915050565b5f60208284031215610922576109216108df565b5b5f61092f848285016108f9565b91505092915050565b5f60408201905061094b5f8301856108b7565b61095860208301846108b7565b9392505050565b5f82825260208201905092915050565b7f4e6f74206f776e657200000000000000000000000000000000000000000000005f82015250565b5f6109a360098361095f565b91506109ae8261096f565b602082019050919050565b5f6020820190508181035f8301526109d081610997565b9050919050565b7f207769746864726177206e6f742066696e69736820706c6561736520776169745f8201527f2000000000000000000000000000000000000000000000000000000000000000602082015250565b5f610a3160218361095f565b9150610a3c826109d7565b604082019050919050565b5f6020820190508181035f830152610a5e81610a25565b9050919050565b7f206e6f74206861766520656e676f75687420616d6f756e7420746f20776974685f8201527f6472617720000000000000000000000000000000000000000000000000000000602082015250565b5f610abf60258361095f565b9150610aca82610a65565b604082019050919050565b5f6020820190508181035f830152610aec81610ab3565b9050919050565b7f4e487b71000000000000000000000000000000000000000000000000000000005f52601160045260245ffd5b5f610b2a826108ae565b9150610b35836108ae565b9250828203905081811115610b4d57610b4c610af3565b5b92915050565b7f6e6f7420656e6f756768206361736820000000000000000000000000000000005f82015250565b5f610b8760108361095f565b9150610b9282610b53565b602082019050919050565b5f6020820190508181035f830152610bb481610b7b565b9050919050565b5f610bc5826108ae565b9150610bd0836108ae565b9250828201905080821115610be857610be7610af3565b5b92915050565b7f6e6565642073656e6420657468000000000000000000000000000000000000005f82015250565b5f610c22600d8361095f565b9150610c2d82610bee565b602082019050919050565b5f6020820190508181035f830152610c4f81610c16565b9050919050565b5f610c60826108ae565b9150610c6b836108ae565b9250828202610c79816108ae565b91508282048414831517610c9057610c8f610af3565b5b5092915050565b7f4e487b71000000000000000000000000000000000000000000000000000000005f52601260045260245ffd5b5f610cce826108ae565b9150610cd9836108ae565b925082610ce957610ce8610c97565b5b828204905092915050565b5f610cfe826108ae565b91507fffffffffffffffffffffffffffffffffffffffffffffffffffffffffffffffff8203610d3057610d2f610af3565b5b600182019050919050565b7f6465706f736974526174696f206d757374206265206265747765656e203020615f8201527f6e64203130302000000000000000000000000000000000000000000000000000602082015250565b5f610d9560278361095f565b9150610da082610d3b565b604082019050919050565b5f6020820190508181035f830152610dc281610d89565b905091905056fea26469706673582212209efd537334a7fd38cbbfa4a49b4b52c86f328c3a2e2120b35cfc6a843c51a62364736f6c634300081d0033",
					"opcodes": "PUSH1 0x80 PUSH1 0x40 MSTORE PUSH0 PUSH1 0x3 SSTORE PUSH0 PUSH1 0x6 PUSH0 PUSH2 0x100 EXP DUP2 SLOAD DUP2 PUSH1 0xFF MUL NOT AND SWAP1 DUP4 ISZERO ISZERO MUL OR SWAP1 SSTORE POP CALLVALUE DUP1 ISZERO PUSH1 0x2B JUMPI PUSH0 PUSH0 REVERT JUMPDEST POP CALLER PUSH1 0x1 PUSH0 PUSH2 0x100 EXP DUP2 SLOAD DUP2 PUSH20 0xFFFFFFFFFFFFFFFFFFFFFFFFFFFFFFFFFFFFFFFF MUL NOT AND SWAP1 DUP4 PUSH20 0xFFFFFFFFFFFFFFFFFFFFFFFFFFFFFFFFFFFFFFFF AND MUL OR SWAP1 SSTORE POP PUSH2 0xDFF DUP1 PUSH2 0x79 PUSH0 CODECOPY PUSH0 RETURN INVALID PUSH1 0x80 PUSH1 0x40 MSTORE PUSH1 0x4 CALLDATASIZE LT PUSH2 0x9B JUMPI PUSH0 CALLDATALOAD PUSH1 0xE0 SHR DUP1 PUSH4 0x961BE391 GT PUSH2 0x63 JUMPI DUP1 PUSH4 0x961BE391 EQ PUSH2 0x16D JUMPI DUP1 PUSH4 0xB0A51E4E EQ PUSH2 0x197 JUMPI DUP1 PUSH4 0xB5C150D4 EQ PUSH2 0x1D4 JUMPI DUP1 PUSH4 0xC6F0837A EQ PUSH2 0x210 JUMPI DUP1 PUSH4 0xD0E30DB0 EQ PUSH2 0x23A JUMPI DUP1 PUSH4 0xEABD412B EQ PUSH2 0x244 JUMPI PUSH2 0x9B JUMP JUMPDEST DUP1 PUSH4 0x1A39D8EF EQ PUSH2 0x9F JUMPI DUP1 PUSH4 0x33289A46 EQ PUSH2 0xC9 JUMPI DUP1 PUSH4 0x83E4CCCF EQ PUSH2 0xF1 JUMPI DUP1 PUSH4 0x86E6563C EQ PUSH2 0x119 JUMPI DUP1 PUSH4 0x87CEFF09 EQ PUSH2 0x143 JUMPI JUMPDEST PUSH0 PUSH0 REVERT JUMPDEST CALLVALUE DUP1 ISZERO PUSH2 0xAA JUMPI PUSH0 PUSH0 REVERT JUMPDEST POP PUSH2 0xB3 PUSH2 0x26C JUMP JUMPDEST PUSH1 0x40 MLOAD PUSH2 0xC0 SWAP2 SWAP1 PUSH2 0x8C6 JUMP JUMPDEST PUSH1 0x40 MLOAD DUP1 SWAP2 SUB SWAP1 RETURN JUMPDEST CALLVALUE DUP1 ISZERO PUSH2 0xD4 JUMPI PUSH0 PUSH0 REVERT JUMPDEST POP PUSH2 0xEF PUSH1 0x4 DUP1 CALLDATASIZE SUB DUP2 ADD SWAP1 PUSH2 0xEA SWAP2 SWAP1 PUSH2 0x90D JUMP JUMPDEST PUSH2 0x272 JUMP JUMPDEST STOP JUMPDEST CALLVALUE DUP1 ISZERO PUSH2 0xFC JUMPI PUSH0 PUSH0 REVERT JUMPDEST POP PUSH2 0x117 PUSH1 0x4 DUP1 CALLDATASIZE SUB DUP2 ADD SWAP1 PUSH2 0x112 SWAP2 SWAP1 PUSH2 0x90D JUMP JUMPDEST PUSH2 0x4DA JUMP JUMPDEST STOP JUMPDEST CALLVALUE DUP1 ISZERO PUSH2 0x124 JUMPI PUSH0 PUSH0 REVERT JUMPDEST POP PUSH2 0x12D PUSH2 0x60B JUMP JUMPDEST PUSH1 0x40 MLOAD PUSH2 0x13A SWAP2 SWAP1 PUSH2 0x8C6 JUMP JUMPDEST PUSH1 0x40 MLOAD DUP1 SWAP2 SUB SWAP1 RETURN JUMPDEST CALLVALUE DUP1 ISZERO PUSH2 0x14E JUMPI PUSH0 PUSH0 REVERT JUMPDEST POP PUSH2 0x157 PUSH2 0x611 JUMP JUMPDEST PUSH1 0x40 MLOAD PUSH2 0x164 SWAP2 SWAP1 PUSH2 0x8C6 JUMP JUMPDEST PUSH1 0x40 MLOAD DUP1 SWAP2 SUB SWAP1 RETURN JUMPDEST CALLVALUE DUP1 ISZERO PUSH2 0x178 JUMPI PUSH0 PUSH0 REVERT JUMPDEST POP PUSH2 0x181 PUSH2 0x618 JUMP JUMPDEST PUSH1 0x40 MLOAD PUSH2 0x18E SWAP2 SWAP1 PUSH2 0x8C6 JUMP JUMPDEST PUSH1 0x40 MLOAD DUP1 SWAP2 SUB SWAP1 RETURN JUMPDEST CALLVALUE DUP1 ISZERO PUSH2 0x1A2 JUMPI PUSH0 PUSH0 REVERT JUMPDEST POP PUSH2 0x1BD PUSH1 0x4 DUP1 CALLDATASIZE SUB DUP2 ADD SWAP1 PUSH2 0x1B8 SWAP2 SWAP1 PUSH2 0x90D JUMP JUMPDEST PUSH2 0x61D JUMP JUMPDEST PUSH1 0x40 MLOAD PUSH2 0x1CB SWAP3 SWAP2 SWAP1 PUSH2 0x938 JUMP JUMPDEST PUSH1 0x40 MLOAD DUP1 SWAP2 SUB SWAP1 RETURN JUMPDEST CALLVALUE DUP1 ISZERO PUSH2 0x1DF JUMPI PUSH0 PUSH0 REVERT JUMPDEST POP PUSH2 0x1FA PUSH1 0x4 DUP1 CALLDATASIZE SUB DUP2 ADD SWAP1 PUSH2 0x1F5 SWAP2 SWAP1 PUSH2 0x90D JUMP JUMPDEST PUSH2 0x63D JUMP JUMPDEST PUSH1 0x40 MLOAD PUSH2 0x207 SWAP2 SWAP1 PUSH2 0x8C6 JUMP JUMPDEST PUSH1 0x40 MLOAD DUP1 SWAP2 SUB SWAP1 RETURN JUMPDEST CALLVALUE DUP1 ISZERO PUSH2 0x21B JUMPI PUSH0 PUSH0 REVERT JUMPDEST POP PUSH2 0x224 PUSH2 0x6AD JUMP JUMPDEST PUSH1 0x40 MLOAD PUSH2 0x231 SWAP2 SWAP1 PUSH2 0x8C6 JUMP JUMPDEST PUSH1 0x40 MLOAD DUP1 SWAP2 SUB SWAP1 RETURN JUMPDEST PUSH2 0x242 PUSH2 0x6B3 JUMP JUMPDEST STOP JUMPDEST CALLVALUE DUP1 ISZERO PUSH2 0x24F JUMPI PUSH0 PUSH0 REVERT JUMPDEST POP PUSH2 0x26A PUSH1 0x4 DUP1 CALLDATASIZE SUB DUP2 ADD SWAP1 PUSH2 0x265 SWAP2 SWAP1 PUSH2 0x90D JUMP JUMPDEST PUSH2 0x7AE JUMP JUMPDEST STOP JUMPDEST PUSH1 0x4 SLOAD DUP2 JUMP JUMPDEST PUSH1 0x1 PUSH0 SWAP1 SLOAD SWAP1 PUSH2 0x100 EXP SWAP1 DIV PUSH20 0xFFFFFFFFFFFFFFFFFFFFFFFFFFFFFFFFFFFFFFFF AND PUSH20 0xFFFFFFFFFFFFFFFFFFFFFFFFFFFFFFFFFFFFFFFF AND CALLER PUSH20 0xFFFFFFFFFFFFFFFFFFFFFFFFFFFFFFFFFFFFFFFF AND EQ PUSH2 0x301 JUMPI PUSH1 0x40 MLOAD PUSH32 0x8C379A000000000000000000000000000000000000000000000000000000000 DUP2 MSTORE PUSH1 0x4 ADD PUSH2 0x2F8 SWAP1 PUSH2 0x9B9 JUMP JUMPDEST PUSH1 0x40 MLOAD DUP1 SWAP2 SUB SWAP1 REVERT JUMPDEST PUSH1 0x6 PUSH0 SWAP1 SLOAD SWAP1 PUSH2 0x100 EXP SWAP1 DIV PUSH1 0xFF AND ISZERO PUSH2 0x350 JUMPI PUSH1 0x40 MLOAD PUSH32 0x8C379A000000000000000000000000000000000000000000000000000000000 DUP2 MSTORE PUSH1 0x4 ADD PUSH2 0x347 SWAP1 PUSH2 0xA47 JUMP JUMPDEST PUSH1 0x40 MLOAD DUP1 SWAP2 SUB SWAP1 REVERT JUMPDEST PUSH1 0x1 PUSH1 0x6 PUSH0 PUSH2 0x100 EXP DUP2 SLOAD DUP2 PUSH1 0xFF MUL NOT AND SWAP1 DUP4 ISZERO ISZERO MUL OR SWAP1 SSTORE POP PUSH0 PUSH2 0x373 PUSH2 0x611 JUMP JUMPDEST SWAP1 POP PUSH2 0x37E DUP2 PUSH2 0x63D JUMP JUMPDEST PUSH1 0x4 DUP2 SWAP1 SSTORE POP DUP2 PUSH1 0x4 SLOAD GT PUSH2 0x3C8 JUMPI PUSH1 0x40 MLOAD PUSH32 0x8C379A000000000000000000000000000000000000000000000000000000000 DUP2 MSTORE PUSH1 0x4 ADD PUSH2 0x3BF SWAP1 PUSH2 0xAD5 JUMP JUMPDEST PUSH1 0x40 MLOAD DUP1 SWAP2 SUB SWAP1 REVERT JUMPDEST CALLER PUSH20 0xFFFFFFFFFFFFFFFFFFFFFFFFFFFFFFFFFFFFFFFF AND PUSH2 0x8FC DUP4 SWAP1 DUP2 ISZERO MUL SWAP1 PUSH1 0x40 MLOAD PUSH0 PUSH1 0x40 MLOAD DUP1 DUP4 SUB DUP2 DUP6 DUP9 DUP9 CALL SWAP4 POP POP POP POP ISZERO DUP1 ISZERO PUSH2 0x40B JUMPI RETURNDATASIZE PUSH0 PUSH0 RETURNDATACOPY RETURNDATASIZE PUSH0 REVERT JUMPDEST POP DUP2 PUSH1 0x4 PUSH0 DUP3 DUP3 SLOAD PUSH2 0x41D SWAP2 SWAP1 PUSH2 0xB20 JUMP JUMPDEST SWAP3 POP POP DUP2 SWAP1 SSTORE POP PUSH0 PUSH0 SWAP1 POP JUMPDEST PUSH1 0x3 SLOAD DUP2 LT ISZERO PUSH2 0x4D5 JUMPI PUSH0 PUSH1 0x2 PUSH0 DUP4 DUP2 MSTORE PUSH1 0x20 ADD SWAP1 DUP2 MSTORE PUSH1 0x20 ADD PUSH0 KECCAK256 PUSH1 0x1 ADD SLOAD SWAP1 POP DUP4 DUP2 GT PUSH2 0x47E JUMPI PUSH0 PUSH1 0x2 PUSH0 DUP5 DUP2 MSTORE PUSH1 0x20 ADD SWAP1 DUP2 MSTORE PUSH1 0x20 ADD PUSH0 KECCAK256 PUSH1 0x1 ADD DUP2 SWAP1 SSTORE POP DUP1 DUP5 PUSH2 0x477 SWAP2 SWAP1 PUSH2 0xB20 JUMP JUMPDEST SWAP4 POP PUSH2 0x4C7 JUMP JUMPDEST DUP4 PUSH1 0x2 PUSH0 DUP5 DUP2 MSTORE PUSH1 0x20 ADD SWAP1 DUP2 MSTORE PUSH1 0x20 ADD PUSH0 KECCAK256 PUSH1 0x1 ADD PUSH0 DUP3 DUP3 SLOAD PUSH2 0x4A1 SWAP2 SWAP1 PUSH2 0xB20 JUMP JUMPDEST SWAP3 POP POP DUP2 SWAP1 SSTORE POP PUSH0 PUSH1 0x6 PUSH0 PUSH2 0x100 EXP DUP2 SLOAD DUP2 PUSH1 0xFF MUL NOT AND SWAP1 DUP4 ISZERO ISZERO MUL OR SWAP1 SSTORE POP POP PUSH2 0x4D5 JUMP JUMPDEST POP DUP1 DUP1 PUSH1 0x1 ADD SWAP2 POP POP PUSH2 0x429 JUMP JUMPDEST POP POP POP JUMP JUMPDEST PUSH1 0x1 PUSH0 SWAP1 SLOAD SWAP1 PUSH2 0x100 EXP SWAP1 DIV PUSH20 0xFFFFFFFFFFFFFFFFFFFFFFFFFFFFFFFFFFFFFFFF AND PUSH20 0xFFFFFFFFFFFFFFFFFFFFFFFFFFFFFFFFFFFFFFFF AND CALLER PUSH20 0xFFFFFFFFFFFFFFFFFFFFFFFFFFFFFFFFFFFFFFFF AND EQ PUSH2 0x569 JUMPI PUSH1 0x40 MLOAD PUSH32 0x8C379A000000000000000000000000000000000000000000000000000000000 DUP2 MSTORE PUSH1 0x4 ADD PUSH2 0x560 SWAP1 PUSH2 0x9B9 JUMP JUMPDEST PUSH1 0x40 MLOAD DUP1 SWAP2 SUB SWAP1 REVERT JUMPDEST DUP1 PUSH0 SLOAD LT ISZERO PUSH2 0x5AD JUMPI PUSH1 0x40 MLOAD PUSH32 0x8C379A000000000000000000000000000000000000000000000000000000000 DUP2 MSTORE PUSH1 0x4 ADD PUSH2 0x5A4 SWAP1 PUSH2 0xB9D JUMP JUMPDEST PUSH1 0x40 MLOAD DUP1 SWAP2 SUB SWAP1 REVERT JUMPDEST DUP1 PUSH0 PUSH0 DUP3 DUP3 SLOAD PUSH2 0x5BD SWAP2 SWAP1 PUSH2 0xB20 JUMP JUMPDEST SWAP3 POP POP DUP2 SWAP1 SSTORE POP CALLER PUSH20 0xFFFFFFFFFFFFFFFFFFFFFFFFFFFFFFFFFFFFFFFF AND PUSH2 0x8FC DUP3 SWAP1 DUP2 ISZERO MUL SWAP1 PUSH1 0x40 MLOAD PUSH0 PUSH1 0x40 MLOAD DUP1 DUP4 SUB DUP2 DUP6 DUP9 DUP9 CALL SWAP4 POP POP POP POP ISZERO DUP1 ISZERO PUSH2 0x607 JUMPI RETURNDATASIZE PUSH0 PUSH0 RETURNDATACOPY RETURNDATASIZE PUSH0 REVERT JUMPDEST POP POP JUMP JUMPDEST PUSH1 0x3 SLOAD DUP2 JUMP JUMPDEST PUSH0 TIMESTAMP SWAP1 POP SWAP1 JUMP JUMPDEST PUSH0 SLOAD DUP2 JUMP JUMPDEST PUSH1 0x2 PUSH1 0x20 MSTORE DUP1 PUSH0 MSTORE PUSH1 0x40 PUSH0 KECCAK256 PUSH0 SWAP2 POP SWAP1 POP DUP1 PUSH0 ADD SLOAD SWAP1 DUP1 PUSH1 0x1 ADD SLOAD SWAP1 POP DUP3 JUMP JUMPDEST PUSH0 PUSH0 DUP3 SUB PUSH2 0x649 JUMPI TIMESTAMP SWAP2 POP JUMPDEST PUSH0 PUSH0 SWAP1 POP JUMPDEST PUSH1 0x3 SLOAD DUP2 LT ISZERO PUSH2 0x6A7 JUMPI PUSH0 PUSH1 0x2 PUSH0 DUP4 DUP2 MSTORE PUSH1 0x20 ADD SWAP1 DUP2 MSTORE PUSH1 0x20 ADD PUSH0 KECCAK256 PUSH0 ADD SLOAD SWAP1 POP DUP4 DUP2 GT PUSH2 0x699 JUMPI PUSH1 0x2 PUSH0 DUP4 DUP2 MSTORE PUSH1 0x20 ADD SWAP1 DUP2 MSTORE PUSH1 0x20 ADD PUSH0 KECCAK256 PUSH1 0x1 ADD SLOAD DUP4 PUSH2 0x696 SWAP2 SWAP1 PUSH2 0xBBB JUMP JUMPDEST SWAP3 POP JUMPDEST POP DUP1 DUP1 PUSH1 0x1 ADD SWAP2 POP POP PUSH2 0x64E JUMP JUMPDEST POP SWAP2 SWAP1 POP JUMP JUMPDEST PUSH1 0x5 SLOAD DUP2 JUMP JUMPDEST PUSH0 CALLVALUE GT PUSH2 0x6F5 JUMPI PUSH1 0x40 MLOAD PUSH32 0x8C379A000000000000000000000000000000000000000000000000000000000 DUP2 MSTORE PUSH1 0x4 ADD PUSH2 0x6EC SWAP1 PUSH2 0xC38 JUMP JUMPDEST PUSH1 0x40 MLOAD DUP1 SWAP2 SUB SWAP1 REVERT JUMPDEST PUSH0 PUSH1 0x3C TIMESTAMP PUSH2 0x703 SWAP2 SWAP1 PUSH2 0xBBB JUMP JUMPDEST SWAP1 POP PUSH0 PUSH0 PUSH1 0x5 SLOAD SUB PUSH2 0x717 JUMPI PUSH0 SWAP1 POP PUSH2 0x788 JUMP JUMPDEST PUSH1 0x64 PUSH1 0x5 SLOAD CALLVALUE PUSH2 0x727 SWAP2 SWAP1 PUSH2 0xC56 JUMP JUMPDEST PUSH2 0x731 SWAP2 SWAP1 PUSH2 0xCC4 JUMP JUMPDEST SWAP1 POP PUSH1 0x40 MLOAD DUP1 PUSH1 0x40 ADD PUSH1 0x40 MSTORE DUP1 DUP4 DUP2 MSTORE PUSH1 0x20 ADD DUP3 DUP2 MSTORE POP PUSH1 0x2 PUSH0 PUSH1 0x3 SLOAD DUP2 MSTORE PUSH1 0x20 ADD SWAP1 DUP2 MSTORE PUSH1 0x20 ADD PUSH0 KECCAK256 PUSH0 DUP3 ADD MLOAD DUP2 PUSH0 ADD SSTORE PUSH1 0x20 DUP3 ADD MLOAD DUP2 PUSH1 0x1 ADD SSTORE SWAP1 POP POP PUSH1 0x3 PUSH0 DUP2 SLOAD DUP1 SWAP3 SWAP2 SWAP1 PUSH2 0x782 SWAP1 PUSH2 0xCF4 JUMP JUMPDEST SWAP2 SWAP1 POP SSTORE POP JUMPDEST DUP1 CALLVALUE PUSH2 0x794 SWAP2 SWAP1 PUSH2 0xB20 JUMP JUMPDEST PUSH0 PUSH0 DUP3 DUP3 SLOAD PUSH2 0x7A3 SWAP2 SWAP1 PUSH2 0xBBB JUMP JUMPDEST SWAP3 POP POP DUP2 SWAP1 SSTORE POP POP POP JUMP JUMPDEST DUP1 PUSH8 0xDE0B6B3A7640000 DUP2 PUSH2 0x7C3 SWAP2 SWAP1 PUSH2 0xCC4 JUMP JUMPDEST SWAP1 POP PUSH0 DUP2 LT ISZERO DUP1 PUSH2 0x7D5 JUMPI POP PUSH1 0x64 DUP2 GT ISZERO JUMPDEST PUSH2 0x814 JUMPI PUSH1 0x40 MLOAD PUSH32 0x8C379A000000000000000000000000000000000000000000000000000000000 DUP2 MSTORE PUSH1 0x4 ADD PUSH2 0x80B SWAP1 PUSH2 0xDAB JUMP JUMPDEST PUSH1 0x40 MLOAD DUP1 SWAP2 SUB SWAP1 REVERT JUMPDEST PUSH1 0x1 PUSH0 SWAP1 SLOAD SWAP1 PUSH2 0x100 EXP SWAP1 DIV PUSH20 0xFFFFFFFFFFFFFFFFFFFFFFFFFFFFFFFFFFFFFFFF AND PUSH20 0xFFFFFFFFFFFFFFFFFFFFFFFFFFFFFFFFFFFFFFFF AND CALLER PUSH20 0xFFFFFFFFFFFFFFFFFFFFFFFFFFFFFFFFFFFFFFFF AND EQ PUSH2 0x8A3 JUMPI PUSH1 0x40 MLOAD PUSH32 0x8C379A000000000000000000000000000000000000000000000000000000000 DUP2 MSTORE PUSH1 0x4 ADD PUSH2 0x89A SWAP1 PUSH2 0x9B9 JUMP JUMPDEST PUSH1 0x40 MLOAD DUP1 SWAP2 SUB SWAP1 REVERT JUMPDEST DUP2 PUSH1 0x5 DUP2 SWAP1 SSTORE POP POP POP JUMP JUMPDEST PUSH0 DUP2 SWAP1 POP SWAP2 SWAP1 POP JUMP JUMPDEST PUSH2 0x8C0 DUP2 PUSH2 0x8AE JUMP JUMPDEST DUP3 MSTORE POP POP JUMP JUMPDEST PUSH0 PUSH1 0x20 DUP3 ADD SWAP1 POP PUSH2 0x8D9 PUSH0 DUP4 ADD DUP5 PUSH2 0x8B7 JUMP JUMPDEST SWAP3 SWAP2 POP POP JUMP JUMPDEST PUSH0 PUSH0 REVERT JUMPDEST PUSH2 0x8EC DUP2 PUSH2 0x8AE JUMP JUMPDEST DUP2 EQ PUSH2 0x8F6 JUMPI PUSH0 PUSH0 REVERT JUMPDEST POP JUMP JUMPDEST PUSH0 DUP2 CALLDATALOAD SWAP1 POP PUSH2 0x907 DUP2 PUSH2 0x8E3 JUMP JUMPDEST SWAP3 SWAP2 POP POP JUMP JUMPDEST PUSH0 PUSH1 0x20 DUP3 DUP5 SUB SLT ISZERO PUSH2 0x922 JUMPI PUSH2 0x921 PUSH2 0x8DF JUMP JUMPDEST JUMPDEST PUSH0 PUSH2 0x92F DUP5 DUP3 DUP6 ADD PUSH2 0x8F9 JUMP JUMPDEST SWAP2 POP POP SWAP3 SWAP2 POP POP JUMP JUMPDEST PUSH0 PUSH1 0x40 DUP3 ADD SWAP1 POP PUSH2 0x94B PUSH0 DUP4 ADD DUP6 PUSH2 0x8B7 JUMP JUMPDEST PUSH2 0x958 PUSH1 0x20 DUP4 ADD DUP5 PUSH2 0x8B7 JUMP JUMPDEST SWAP4 SWAP3 POP POP POP JUMP JUMPDEST PUSH0 DUP3 DUP3 MSTORE PUSH1 0x20 DUP3 ADD SWAP1 POP SWAP3 SWAP2 POP POP JUMP JUMPDEST PUSH32 0x4E6F74206F776E65720000000000000000000000000000000000000000000000 PUSH0 DUP3 ADD MSTORE POP JUMP JUMPDEST PUSH0 PUSH2 0x9A3 PUSH1 0x9 DUP4 PUSH2 0x95F JUMP JUMPDEST SWAP2 POP PUSH2 0x9AE DUP3 PUSH2 0x96F JUMP JUMPDEST PUSH1 0x20 DUP3 ADD SWAP1 POP SWAP2 SWAP1 POP JUMP JUMPDEST PUSH0 PUSH1 0x20 DUP3 ADD SWAP1 POP DUP2 DUP2 SUB PUSH0 DUP4 ADD MSTORE PUSH2 0x9D0 DUP2 PUSH2 0x997 JUMP JUMPDEST SWAP1 POP SWAP2 SWAP1 POP JUMP JUMPDEST PUSH32 0x207769746864726177206E6F742066696E69736820706C656173652077616974 PUSH0 DUP3 ADD MSTORE PUSH32 0x2000000000000000000000000000000000000000000000000000000000000000 PUSH1 0x20 DUP3 ADD MSTORE POP JUMP JUMPDEST PUSH0 PUSH2 0xA31 PUSH1 0x21 DUP4 PUSH2 0x95F JUMP JUMPDEST SWAP2 POP PUSH2 0xA3C DUP3 PUSH2 0x9D7 JUMP JUMPDEST PUSH1 0x40 DUP3 ADD SWAP1 POP SWAP2 SWAP1 POP JUMP JUMPDEST PUSH0 PUSH1 0x20 DUP3 ADD SWAP1 POP DUP2 DUP2 SUB PUSH0 DUP4 ADD MSTORE PUSH2 0xA5E DUP2 PUSH2 0xA25 JUMP JUMPDEST SWAP1 POP SWAP2 SWAP1 POP JUMP JUMPDEST PUSH32 0x206E6F74206861766520656E676F75687420616D6F756E7420746F2077697468 PUSH0 DUP3 ADD MSTORE PUSH32 0x6472617720000000000000000000000000000000000000000000000000000000 PUSH1 0x20 DUP3 ADD MSTORE POP JUMP JUMPDEST PUSH0 PUSH2 0xABF PUSH1 0x25 DUP4 PUSH2 0x95F JUMP JUMPDEST SWAP2 POP PUSH2 0xACA DUP3 PUSH2 0xA65 JUMP JUMPDEST PUSH1 0x40 DUP3 ADD SWAP1 POP SWAP2 SWAP1 POP JUMP JUMPDEST PUSH0 PUSH1 0x20 DUP3 ADD SWAP1 POP DUP2 DUP2 SUB PUSH0 DUP4 ADD MSTORE PUSH2 0xAEC DUP2 PUSH2 0xAB3 JUMP JUMPDEST SWAP1 POP SWAP2 SWAP1 POP JUMP JUMPDEST PUSH32 0x4E487B7100000000000000000000000000000000000000000000000000000000 PUSH0 MSTORE PUSH1 0x11 PUSH1 0x4 MSTORE PUSH1 0x24 PUSH0 REVERT JUMPDEST PUSH0 PUSH2 0xB2A DUP3 PUSH2 0x8AE JUMP JUMPDEST SWAP2 POP PUSH2 0xB35 DUP4 PUSH2 0x8AE JUMP JUMPDEST SWAP3 POP DUP3 DUP3 SUB SWAP1 POP DUP2 DUP2 GT ISZERO PUSH2 0xB4D JUMPI PUSH2 0xB4C PUSH2 0xAF3 JUMP JUMPDEST JUMPDEST SWAP3 SWAP2 POP POP JUMP JUMPDEST PUSH32 0x6E6F7420656E6F75676820636173682000000000000000000000000000000000 PUSH0 DUP3 ADD MSTORE POP JUMP JUMPDEST PUSH0 PUSH2 0xB87 PUSH1 0x10 DUP4 PUSH2 0x95F JUMP JUMPDEST SWAP2 POP PUSH2 0xB92 DUP3 PUSH2 0xB53 JUMP JUMPDEST PUSH1 0x20 DUP3 ADD SWAP1 POP SWAP2 SWAP1 POP JUMP JUMPDEST PUSH0 PUSH1 0x20 DUP3 ADD SWAP1 POP DUP2 DUP2 SUB PUSH0 DUP4 ADD MSTORE PUSH2 0xBB4 DUP2 PUSH2 0xB7B JUMP JUMPDEST SWAP1 POP SWAP2 SWAP1 POP JUMP JUMPDEST PUSH0 PUSH2 0xBC5 DUP3 PUSH2 0x8AE JUMP JUMPDEST SWAP2 POP PUSH2 0xBD0 DUP4 PUSH2 0x8AE JUMP JUMPDEST SWAP3 POP DUP3 DUP3 ADD SWAP1 POP DUP1 DUP3 GT ISZERO PUSH2 0xBE8 JUMPI PUSH2 0xBE7 PUSH2 0xAF3 JUMP JUMPDEST JUMPDEST SWAP3 SWAP2 POP POP JUMP JUMPDEST PUSH32 0x6E6565642073656E642065746800000000000000000000000000000000000000 PUSH0 DUP3 ADD MSTORE POP JUMP JUMPDEST PUSH0 PUSH2 0xC22 PUSH1 0xD DUP4 PUSH2 0x95F JUMP JUMPDEST SWAP2 POP PUSH2 0xC2D DUP3 PUSH2 0xBEE JUMP JUMPDEST PUSH1 0x20 DUP3 ADD SWAP1 POP SWAP2 SWAP1 POP JUMP JUMPDEST PUSH0 PUSH1 0x20 DUP3 ADD SWAP1 POP DUP2 DUP2 SUB PUSH0 DUP4 ADD MSTORE PUSH2 0xC4F DUP2 PUSH2 0xC16 JUMP JUMPDEST SWAP1 POP SWAP2 SWAP1 POP JUMP JUMPDEST PUSH0 PUSH2 0xC60 DUP3 PUSH2 0x8AE JUMP JUMPDEST SWAP2 POP PUSH2 0xC6B DUP4 PUSH2 0x8AE JUMP JUMPDEST SWAP3 POP DUP3 DUP3 MUL PUSH2 0xC79 DUP2 PUSH2 0x8AE JUMP JUMPDEST SWAP2 POP DUP3 DUP3 DIV DUP5 EQ DUP4 ISZERO OR PUSH2 0xC90 JUMPI PUSH2 0xC8F PUSH2 0xAF3 JUMP JUMPDEST JUMPDEST POP SWAP3 SWAP2 POP POP JUMP JUMPDEST PUSH32 0x4E487B7100000000000000000000000000000000000000000000000000000000 PUSH0 MSTORE PUSH1 0x12 PUSH1 0x4 MSTORE PUSH1 0x24 PUSH0 REVERT JUMPDEST PUSH0 PUSH2 0xCCE DUP3 PUSH2 0x8AE JUMP JUMPDEST SWAP2 POP PUSH2 0xCD9 DUP4 PUSH2 0x8AE JUMP JUMPDEST SWAP3 POP DUP3 PUSH2 0xCE9 JUMPI PUSH2 0xCE8 PUSH2 0xC97 JUMP JUMPDEST JUMPDEST DUP3 DUP3 DIV SWAP1 POP SWAP3 SWAP2 POP POP JUMP JUMPDEST PUSH0 PUSH2 0xCFE DUP3 PUSH2 0x8AE JUMP JUMPDEST SWAP2 POP PUSH32 0xFFFFFFFFFFFFFFFFFFFFFFFFFFFFFFFFFFFFFFFFFFFFFFFFFFFFFFFFFFFFFFFF DUP3 SUB PUSH2 0xD30 JUMPI PUSH2 0xD2F PUSH2 0xAF3 JUMP JUMPDEST JUMPDEST PUSH1 0x1 DUP3 ADD SWAP1 POP SWAP2 SWAP1 POP JUMP JUMPDEST PUSH32 0x6465706F736974526174696F206D757374206265206265747765656E20302061 PUSH0 DUP3 ADD MSTORE PUSH32 0x6E64203130302000000000000000000000000000000000000000000000000000 PUSH1 0x20 DUP3 ADD MSTORE POP JUMP JUMPDEST PUSH0 PUSH2 0xD95 PUSH1 0x27 DUP4 PUSH2 0x95F JUMP JUMPDEST SWAP2 POP PUSH2 0xDA0 DUP3 PUSH2 0xD3B JUMP JUMPDEST PUSH1 0x40 DUP3 ADD SWAP1 POP SWAP2 SWAP1 POP JUMP JUMPDEST PUSH0 PUSH1 0x20 DUP3 ADD SWAP1 POP DUP2 DUP2 SUB PUSH0 DUP4 ADD MSTORE PUSH2 0xDC2 DUP2 PUSH2 0xD89 JUMP JUMPDEST SWAP1 POP SWAP2 SWAP1 POP JUMP INVALID LOG2 PUSH5 0x6970667358 0x22 SLT KECCAK256 SWAP15 REVERT MSTORE8 PUSH20 0x34A7FD38CBBFA4A49B4B52C86F328C3A2E2120B3 TLOAD 0xFC PUSH11 0x843C51A62364736F6C6343 STOP ADDMOD SAR STOP CALLER "
				},
				"gasEstimates": {
					"creation": {
						"codeDepositCost": "716600",
						"executionCost": "54280",
						"totalCost": "770880"
					},
					"external": {
						"availableAmount(uint256)": "infinite",
						"cash()": "2424",
						"deposit()": "infinite",
						"depositRatio()": "2491",
						"depositReceipts(uint256)": "infinite",
						"depositTimes()": "2492",
						"getBlockTime()": "420",
						"modifyDepositRatio(uint256)": "infinite",
						"totalAmount()": "2426",
						"withdrawCash(uint256)": "infinite",
						"withdrawDeposit(uint256)": "infinite"
					}
				},
				"methodIdentifiers": {
					"availableAmount(uint256)": "b5c150d4",
					"cash()": "961be391",
					"deposit()": "d0e30db0",
					"depositRatio()": "c6f0837a",
					"depositReceipts(uint256)": "b0a51e4e",
					"depositTimes()": "86e6563c",
					"getBlockTime()": "87ceff09",
					"modifyDepositRatio(uint256)": "eabd412b",
					"totalAmount()": "1a39d8ef",
					"withdrawCash(uint256)": "83e4cccf",
					"withdrawDeposit(uint256)": "33289a46"
				}
			},
			"storageLayout": {
				"storage": [
					{
						"astId": 63,
						"contract": "contracts/MyPiggBank.sol:MyPiggyBank",
						"label": "cash",
						"offset": 0,
						"slot": "0",
						"type": "t_uint256"
					},
					{
						"astId": 65,
						"contract": "contracts/MyPiggBank.sol:MyPiggyBank",
						"label": "owner",
						"offset": 0,
						"slot": "1",
						"type": "t_address"
					},
					{
						"astId": 75,
						"contract": "contracts/MyPiggBank.sol:MyPiggyBank",
						"label": "depositReceipts",
						"offset": 0,
						"slot": "2",
						"type": "t_mapping(t_uint256,t_struct(depositReceipt)70_storage)"
					},
					{
						"astId": 78,
						"contract": "contracts/MyPiggBank.sol:MyPiggyBank",
						"label": "depositTimes",
						"offset": 0,
						"slot": "3",
						"type": "t_uint256"
					},
					{
						"astId": 80,
						"contract": "contracts/MyPiggBank.sol:MyPiggyBank",
						"label": "totalAmount",
						"offset": 0,
						"slot": "4",
						"type": "t_uint256"
					},
					{
						"astId": 85,
						"contract": "contracts/MyPiggBank.sol:MyPiggyBank",
						"label": "depositRatio",
						"offset": 0,
						"slot": "5",
						"type": "t_uint256"
					},
					{
						"astId": 88,
						"contract": "contracts/MyPiggBank.sol:MyPiggyBank",
						"label": "withdrawStatus",
						"offset": 0,
						"slot": "6",
						"type": "t_bool"
					}
				],
				"types": {
					"t_address": {
						"encoding": "inplace",
						"label": "address",
						"numberOfBytes": "20"
					},
					"t_bool": {
						"encoding": "inplace",
						"label": "bool",
						"numberOfBytes": "1"
					},
					"t_mapping(t_uint256,t_struct(depositReceipt)70_storage)": {
						"encoding": "mapping",
						"key": "t_uint256",
						"label": "mapping(uint256 => struct MyPiggyBank.depositReceipt)",
						"numberOfBytes": "32",
						"value": "t_struct(depositReceipt)70_storage"
					},
					"t_struct(depositReceipt)70_storage": {
						"encoding": "inplace",
						"label": "struct MyPiggyBank.depositReceipt",
						"members": [
							{
								"astId": 67,
								"contract": "contracts/MyPiggBank.sol:MyPiggyBank",
								"label": "depositTime",
								"offset": 0,
								"slot": "0",
								"type": "t_uint256"
							},
							{
								"astId": 69,
								"contract": "contracts/MyPiggBank.sol:MyPiggyBank",
								"label": "depositAmount",
								"offset": 0,
								"slot": "1",
								"type": "t_uint256"
							}
						],
						"numberOfBytes": "64"
					},
					"t_uint256": {
						"encoding": "inplace",
						"label": "uint256",
						"numberOfBytes": "32"
					}
				}
			},
			"userdoc": {
				"kind": "user",
				"methods": {},
				"version": 1
			}
		}
	}
}