{
	"data": {
		"bytecode": {
			"linkReferences": {},
			"object": "60806040525f60045f6101000a81548160ff0219169083151502179055503480156027575f5ffd5b503360015f6101000a81548173ffffffffffffffffffffffffffffffffffffffff021916908373ffffffffffffffffffffffffffffffffffffffff160217905550610faf806100755f395ff3fe608060405260043610610090575f3560e01c806383e4cccf1161005857806383e4cccf1461018857806387ceff09146101b0578063961be391146101da578063c6f0837a14610204578063d0e30db01461022e57610090565b806327e092a21461009457806333289a46146100bc5780635ee8a15d146100e45780637099f3d6146101215780637d96f6931461015e575b5f5ffd5b34801561009f575f5ffd5b506100ba60048036038101906100b591906109a9565b610238565b005b3480156100c7575f5ffd5b506100e260048036038101906100dd91906109a9565b610387565b005b3480156100ef575f5ffd5b5061010a600480360381019061010591906109a9565b6105d3565b604051610118929190610a9a565b60405180910390f35b34801561012c575f5ffd5b50610147600480360381019061014291906109a9565b610694565b604051610155929190610ac8565b60405180910390f35b348015610169575f5ffd5b506101726106c3565b60405161017f9190610aef565b60405180910390f35b348015610193575f5ffd5b506101ae60048036038101906101a991906109a9565b610718565b005b3480156101bb575f5ffd5b506101c4610849565b6040516101d19190610aef565b60405180910390f35b3480156101e5575f5ffd5b506101ee610850565b6040516101fb9190610aef565b60405180910390f35b34801561020f575f5ffd5b50610218610855565b6040516102259190610aef565b60405180910390f35b61023661085b565b005b80670de0b6b3a76400008161024d9190610b62565b90505f8110158061025f575060648111155b61029e576040517f08c379a000000000000000000000000000000000000000000000000000000000815260040161029590610c12565b60405180910390fd5b60045f9054906101000a900460ff16156102ed576040517f08c379a00000000000000000000000000000000000000000000000000000000081526004016102e490610c7a565b60405180910390fd5b60015f9054906101000a900473ffffffffffffffffffffffffffffffffffffffff1673ffffffffffffffffffffffffffffffffffffffff163373ffffffffffffffffffffffffffffffffffffffff161461037c576040517f08c379a000000000000000000000000000000000000000000000000000000000815260040161037390610ce2565b60405180910390fd5b816003819055505050565b60015f9054906101000a900473ffffffffffffffffffffffffffffffffffffffff1673ffffffffffffffffffffffffffffffffffffffff163373ffffffffffffffffffffffffffffffffffffffff1614610416576040517f08c379a000000000000000000000000000000000000000000000000000000000815260040161040d90610ce2565b60405180910390fd5b5f4290505f5f610425836105d3565b915091505f82511180156104395750838110155b610478576040517f08c379a000000000000000000000000000000000000000000000000000000000815260040161046f90610d70565b60405180910390fd5b3373ffffffffffffffffffffffffffffffffffffffff166108fc8590811502906040515f60405180830381858888f193505050501580156104bb573d5f5f3e3d5ffd5b505f5f90505b82518110156105cc575f60028483815181106104e0576104df610d8e565b5b6020026020010151815481106104f9576104f8610d8e565b5b905f5260205f209060020201600101549050858111610567575f600285848151811061052857610527610d8e565b5b60200260200101518154811061054157610540610d8e565b5b905f5260205f2090600202016001018190555080866105609190610dbb565b95506105be565b85600285848151811061057d5761057c610d8e565b5b60200260200101518154811061059657610595610d8e565b5b905f5260205f2090600202016001015f8282546105b39190610dbb565b925050819055505f95505b5080806001019150506104c1565b5050505050565b60605f5f83036105e1574292505b5f5f90505f5f90505b60028054905081101561068d57846002828154811061060c5761060b610d8e565b5b905f5260205f2090600202015f015411610680578084838151811061063457610633610d8e565b5b6020026020010181815250506002818154811061065457610653610d8e565b5b905f5260205f209060020201600101548361066f9190610dee565b9250818061067c90610e21565b9250505b80806001019150506105ea565b5050915091565b600281815481106106a3575f80fd5b905f5260205f2090600202015f91509050805f0154908060010154905082565b5f5f5f90505b60028054905081101561071457600281815481106106ea576106e9610d8e565b5b905f5260205f20906002020160010154826107059190610dee565b915080806001019150506106c9565b5090565b60015f9054906101000a900473ffffffffffffffffffffffffffffffffffffffff1673ffffffffffffffffffffffffffffffffffffffff163373ffffffffffffffffffffffffffffffffffffffff16146107a7576040517f08c379a000000000000000000000000000000000000000000000000000000000815260040161079e90610ce2565b60405180910390fd5b805f5410156107eb576040517f08c379a00000000000000000000000000000000000000000000000000000000081526004016107e290610eb2565b60405180910390fd5b805f5f8282546107fb9190610dbb565b925050819055503373ffffffffffffffffffffffffffffffffffffffff166108fc8290811502906040515f60405180830381858888f19350505050158015610845573d5f5f3e3d5ffd5b5050565b5f42905090565b5f5481565b60035481565b5f341161089d576040517f08c379a000000000000000000000000000000000000000000000000000000000815260040161089490610f1a565b60405180910390fd5b5f603c426108ab9190610dee565b90505f5f600354036108bf575f905061092d565b6064600354346108cf9190610f38565b6108d99190610b62565b90506002604051806040016040528084815260200183815250908060018154018082558091505060019003905f5260205f2090600202015f909190919091505f820151815f01556020820151816001015550505b5f813461093a9190610dbb565b9050805f5f82825461094c9190610dee565b92505081905550600160045f6101000a81548160ff021916908315150217905550505050565b5f5ffd5b5f819050919050565b61098881610976565b8114610992575f5ffd5b50565b5f813590506109a38161097f565b92915050565b5f602082840312156109be576109bd610972565b5b5f6109cb84828501610995565b91505092915050565b5f81519050919050565b5f82825260208201905092915050565b5f819050602082019050919050565b610a0681610976565b82525050565b5f610a1783836109fd565b60208301905092915050565b5f602082019050919050565b5f610a39826109d4565b610a4381856109de565b9350610a4e836109ee565b805f5b83811015610a7e578151610a658882610a0c565b9750610a7083610a23565b925050600181019050610a51565b5085935050505092915050565b610a9481610976565b82525050565b5f6040820190508181035f830152610ab28185610a2f565b9050610ac16020830184610a8b565b9392505050565b5f604082019050610adb5f830185610a8b565b610ae86020830184610a8b565b9392505050565b5f602082019050610b025f830184610a8b565b92915050565b7f4e487b71000000000000000000000000000000000000000000000000000000005f52601260045260245ffd5b7f4e487b71000000000000000000000000000000000000000000000000000000005f52601160045260245ffd5b5f610b6c82610976565b9150610b7783610976565b925082610b8757610b86610b08565b5b828204905092915050565b5f82825260208201905092915050565b7f6465706f736974526174696f206d757374206265206265747765656e203020615f8201527f6e64203130302000000000000000000000000000000000000000000000000000602082015250565b5f610bfc602783610b92565b9150610c0782610ba2565b604082019050919050565b5f6020820190508181035f830152610c2981610bf0565b9050919050565b7f20796f752063616e2774200000000000000000000000000000000000000000005f82015250565b5f610c64600b83610b92565b9150610c6f82610c30565b602082019050919050565b5f6020820190508181035f830152610c9181610c58565b9050919050565b7f4e6f74206f776e657200000000000000000000000000000000000000000000005f82015250565b5f610ccc600983610b92565b9150610cd782610c98565b602082019050919050565b5f6020820190508181035f830152610cf981610cc0565b9050919050565b7f206e6f74206861766520656e676f75687420616d6f756e7420746f20776974685f8201527f6472617720000000000000000000000000000000000000000000000000000000602082015250565b5f610d5a602583610b92565b9150610d6582610d00565b604082019050919050565b5f6020820190508181035f830152610d8781610d4e565b9050919050565b7f4e487b71000000000000000000000000000000000000000000000000000000005f52603260045260245ffd5b5f610dc582610976565b9150610dd083610976565b9250828203905081811115610de857610de7610b35565b5b92915050565b5f610df882610976565b9150610e0383610976565b9250828201905080821115610e1b57610e1a610b35565b5b92915050565b5f610e2b82610976565b91507fffffffffffffffffffffffffffffffffffffffffffffffffffffffffffffffff8203610e5d57610e5c610b35565b5b600182019050919050565b7f6e6f7420656e6f756768206361736820000000000000000000000000000000005f82015250565b5f610e9c601083610b92565b9150610ea782610e68565b602082019050919050565b5f6020820190508181035f830152610ec981610e90565b9050919050565b7f6e6565642073656e6420657468000000000000000000000000000000000000005f82015250565b5f610f04600d83610b92565b9150610f0f82610ed0565b602082019050919050565b5f6020820190508181035f830152610f3181610ef8565b9050919050565b5f610f4282610976565b9150610f4d83610976565b9250828202610f5b81610976565b91508282048414831517610f7257610f71610b35565b5b509291505056fea2646970667358221220cfb52ad1574c85eb6fbd010f5255595bdf61f11cc408255330c71f1a5725518964736f6c634300081d0033",
			"opcodes": "PUSH1 0x80 PUSH1 0x40 MSTORE PUSH0 PUSH1 0x4 PUSH0 PUSH2 0x100 EXP DUP2 SLOAD DUP2 PUSH1 0xFF MUL NOT AND SWAP1 DUP4 ISZERO ISZERO MUL OR SWAP1 SSTORE POP CALLVALUE DUP1 ISZERO PUSH1 0x27 JUMPI PUSH0 PUSH0 REVERT JUMPDEST POP CALLER PUSH1 0x1 PUSH0 PUSH2 0x100 EXP DUP2 SLOAD DUP2 PUSH20 0xFFFFFFFFFFFFFFFFFFFFFFFFFFFFFFFFFFFFFFFF MUL NOT AND SWAP1 DUP4 PUSH20 0xFFFFFFFFFFFFFFFFFFFFFFFFFFFFFFFFFFFFFFFF AND MUL OR SWAP1 SSTORE POP PUSH2 0xFAF DUP1 PUSH2 0x75 PUSH0 CODECOPY PUSH0 RETURN INVALID PUSH1 0x80 PUSH1 0x40 MSTORE PUSH1 0x4 CALLDATASIZE LT PUSH2 0x90 JUMPI PUSH0 CALLDATALOAD PUSH1 0xE0 SHR DUP1 PUSH4 0x83E4CCCF GT PUSH2 0x58 JUMPI DUP1 PUSH4 0x83E4CCCF EQ PUSH2 0x188 JUMPI DUP1 PUSH4 0x87CEFF09 EQ PUSH2 0x1B0 JUMPI DUP1 PUSH4 0x961BE391 EQ PUSH2 0x1DA JUMPI DUP1 PUSH4 0xC6F0837A EQ PUSH2 0x204 JUMPI DUP1 PUSH4 0xD0E30DB0 EQ PUSH2 0x22E JUMPI PUSH2 0x90 JUMP JUMPDEST DUP1 PUSH4 0x27E092A2 EQ PUSH2 0x94 JUMPI DUP1 PUSH4 0x33289A46 EQ PUSH2 0xBC JUMPI DUP1 PUSH4 0x5EE8A15D EQ PUSH2 0xE4 JUMPI DUP1 PUSH4 0x7099F3D6 EQ PUSH2 0x121 JUMPI DUP1 PUSH4 0x7D96F693 EQ PUSH2 0x15E JUMPI JUMPDEST PUSH0 PUSH0 REVERT JUMPDEST CALLVALUE DUP1 ISZERO PUSH2 0x9F JUMPI PUSH0 PUSH0 REVERT JUMPDEST POP PUSH2 0xBA PUSH1 0x4 DUP1 CALLDATASIZE SUB DUP2 ADD SWAP1 PUSH2 0xB5 SWAP2 SWAP1 PUSH2 0x9A9 JUMP JUMPDEST PUSH2 0x238 JUMP JUMPDEST STOP JUMPDEST CALLVALUE DUP1 ISZERO PUSH2 0xC7 JUMPI PUSH0 PUSH0 REVERT JUMPDEST POP PUSH2 0xE2 PUSH1 0x4 DUP1 CALLDATASIZE SUB DUP2 ADD SWAP1 PUSH2 0xDD SWAP2 SWAP1 PUSH2 0x9A9 JUMP JUMPDEST PUSH2 0x387 JUMP JUMPDEST STOP JUMPDEST CALLVALUE DUP1 ISZERO PUSH2 0xEF JUMPI PUSH0 PUSH0 REVERT JUMPDEST POP PUSH2 0x10A PUSH1 0x4 DUP1 CALLDATASIZE SUB DUP2 ADD SWAP1 PUSH2 0x105 SWAP2 SWAP1 PUSH2 0x9A9 JUMP JUMPDEST PUSH2 0x5D3 JUMP JUMPDEST PUSH1 0x40 MLOAD PUSH2 0x118 SWAP3 SWAP2 SWAP1 PUSH2 0xA9A JUMP JUMPDEST PUSH1 0x40 MLOAD DUP1 SWAP2 SUB SWAP1 RETURN JUMPDEST CALLVALUE DUP1 ISZERO PUSH2 0x12C JUMPI PUSH0 PUSH0 REVERT JUMPDEST POP PUSH2 0x147 PUSH1 0x4 DUP1 CALLDATASIZE SUB DUP2 ADD SWAP1 PUSH2 0x142 SWAP2 SWAP1 PUSH2 0x9A9 JUMP JUMPDEST PUSH2 0x694 JUMP JUMPDEST PUSH1 0x40 MLOAD PUSH2 0x155 SWAP3 SWAP2 SWAP1 PUSH2 0xAC8 JUMP JUMPDEST PUSH1 0x40 MLOAD DUP1 SWAP2 SUB SWAP1 RETURN JUMPDEST CALLVALUE DUP1 ISZERO PUSH2 0x169 JUMPI PUSH0 PUSH0 REVERT JUMPDEST POP PUSH2 0x172 PUSH2 0x6C3 JUMP JUMPDEST PUSH1 0x40 MLOAD PUSH2 0x17F SWAP2 SWAP1 PUSH2 0xAEF JUMP JUMPDEST PUSH1 0x40 MLOAD DUP1 SWAP2 SUB SWAP1 RETURN JUMPDEST CALLVALUE DUP1 ISZERO PUSH2 0x193 JUMPI PUSH0 PUSH0 REVERT JUMPDEST POP PUSH2 0x1AE PUSH1 0x4 DUP1 CALLDATASIZE SUB DUP2 ADD SWAP1 PUSH2 0x1A9 SWAP2 SWAP1 PUSH2 0x9A9 JUMP JUMPDEST PUSH2 0x718 JUMP JUMPDEST STOP JUMPDEST CALLVALUE DUP1 ISZERO PUSH2 0x1BB JUMPI PUSH0 PUSH0 REVERT JUMPDEST POP PUSH2 0x1C4 PUSH2 0x849 JUMP JUMPDEST PUSH1 0x40 MLOAD PUSH2 0x1D1 SWAP2 SWAP1 PUSH2 0xAEF JUMP JUMPDEST PUSH1 0x40 MLOAD DUP1 SWAP2 SUB SWAP1 RETURN JUMPDEST CALLVALUE DUP1 ISZERO PUSH2 0x1E5 JUMPI PUSH0 PUSH0 REVERT JUMPDEST POP PUSH2 0x1EE PUSH2 0x850 JUMP JUMPDEST PUSH1 0x40 MLOAD PUSH2 0x1FB SWAP2 SWAP1 PUSH2 0xAEF JUMP JUMPDEST PUSH1 0x40 MLOAD DUP1 SWAP2 SUB SWAP1 RETURN JUMPDEST CALLVALUE DUP1 ISZERO PUSH2 0x20F JUMPI PUSH0 PUSH0 REVERT JUMPDEST POP PUSH2 0x218 PUSH2 0x855 JUMP JUMPDEST PUSH1 0x40 MLOAD PUSH2 0x225 SWAP2 SWAP1 PUSH2 0xAEF JUMP JUMPDEST PUSH1 0x40 MLOAD DUP1 SWAP2 SUB SWAP1 RETURN JUMPDEST PUSH2 0x236 PUSH2 0x85B JUMP JUMPDEST STOP JUMPDEST DUP1 PUSH8 0xDE0B6B3A7640000 DUP2 PUSH2 0x24D SWAP2 SWAP1 PUSH2 0xB62 JUMP JUMPDEST SWAP1 POP PUSH0 DUP2 LT ISZERO DUP1 PUSH2 0x25F JUMPI POP PUSH1 0x64 DUP2 GT ISZERO JUMPDEST PUSH2 0x29E JUMPI PUSH1 0x40 MLOAD PUSH32 0x8C379A000000000000000000000000000000000000000000000000000000000 DUP2 MSTORE PUSH1 0x4 ADD PUSH2 0x295 SWAP1 PUSH2 0xC12 JUMP JUMPDEST PUSH1 0x40 MLOAD DUP1 SWAP2 SUB SWAP1 REVERT JUMPDEST PUSH1 0x4 PUSH0 SWAP1 SLOAD SWAP1 PUSH2 0x100 EXP SWAP1 DIV PUSH1 0xFF AND ISZERO PUSH2 0x2ED JUMPI PUSH1 0x40 MLOAD PUSH32 0x8C379A000000000000000000000000000000000000000000000000000000000 DUP2 MSTORE PUSH1 0x4 ADD PUSH2 0x2E4 SWAP1 PUSH2 0xC7A JUMP JUMPDEST PUSH1 0x40 MLOAD DUP1 SWAP2 SUB SWAP1 REVERT JUMPDEST PUSH1 0x1 PUSH0 SWAP1 SLOAD SWAP1 PUSH2 0x100 EXP SWAP1 DIV PUSH20 0xFFFFFFFFFFFFFFFFFFFFFFFFFFFFFFFFFFFFFFFF AND PUSH20 0xFFFFFFFFFFFFFFFFFFFFFFFFFFFFFFFFFFFFFFFF AND CALLER PUSH20 0xFFFFFFFFFFFFFFFFFFFFFFFFFFFFFFFFFFFFFFFF AND EQ PUSH2 0x37C JUMPI PUSH1 0x40 MLOAD PUSH32 0x8C379A000000000000000000000000000000000000000000000000000000000 DUP2 MSTORE PUSH1 0x4 ADD PUSH2 0x373 SWAP1 PUSH2 0xCE2 JUMP JUMPDEST PUSH1 0x40 MLOAD DUP1 SWAP2 SUB SWAP1 REVERT JUMPDEST DUP2 PUSH1 0x3 DUP2 SWAP1 SSTORE POP POP POP JUMP JUMPDEST PUSH1 0x1 PUSH0 SWAP1 SLOAD SWAP1 PUSH2 0x100 EXP SWAP1 DIV PUSH20 0xFFFFFFFFFFFFFFFFFFFFFFFFFFFFFFFFFFFFFFFF AND PUSH20 0xFFFFFFFFFFFFFFFFFFFFFFFFFFFFFFFFFFFFFFFF AND CALLER PUSH20 0xFFFFFFFFFFFFFFFFFFFFFFFFFFFFFFFFFFFFFFFF AND EQ PUSH2 0x416 JUMPI PUSH1 0x40 MLOAD PUSH32 0x8C379A000000000000000000000000000000000000000000000000000000000 DUP2 MSTORE PUSH1 0x4 ADD PUSH2 0x40D SWAP1 PUSH2 0xCE2 JUMP JUMPDEST PUSH1 0x40 MLOAD DUP1 SWAP2 SUB SWAP1 REVERT JUMPDEST PUSH0 TIMESTAMP SWAP1 POP PUSH0 PUSH0 PUSH2 0x425 DUP4 PUSH2 0x5D3 JUMP JUMPDEST SWAP2 POP SWAP2 POP PUSH0 DUP3 MLOAD GT DUP1 ISZERO PUSH2 0x439 JUMPI POP DUP4 DUP2 LT ISZERO JUMPDEST PUSH2 0x478 JUMPI PUSH1 0x40 MLOAD PUSH32 0x8C379A000000000000000000000000000000000000000000000000000000000 DUP2 MSTORE PUSH1 0x4 ADD PUSH2 0x46F SWAP1 PUSH2 0xD70 JUMP JUMPDEST PUSH1 0x40 MLOAD DUP1 SWAP2 SUB SWAP1 REVERT JUMPDEST CALLER PUSH20 0xFFFFFFFFFFFFFFFFFFFFFFFFFFFFFFFFFFFFFFFF AND PUSH2 0x8FC DUP6 SWAP1 DUP2 ISZERO MUL SWAP1 PUSH1 0x40 MLOAD PUSH0 PUSH1 0x40 MLOAD DUP1 DUP4 SUB DUP2 DUP6 DUP9 DUP9 CALL SWAP4 POP POP POP POP ISZERO DUP1 ISZERO PUSH2 0x4BB JUMPI RETURNDATASIZE PUSH0 PUSH0 RETURNDATACOPY RETURNDATASIZE PUSH0 REVERT JUMPDEST POP PUSH0 PUSH0 SWAP1 POP JUMPDEST DUP3 MLOAD DUP2 LT ISZERO PUSH2 0x5CC JUMPI PUSH0 PUSH1 0x2 DUP5 DUP4 DUP2 MLOAD DUP2 LT PUSH2 0x4E0 JUMPI PUSH2 0x4DF PUSH2 0xD8E JUMP JUMPDEST JUMPDEST PUSH1 0x20 MUL PUSH1 0x20 ADD ADD MLOAD DUP2 SLOAD DUP2 LT PUSH2 0x4F9 JUMPI PUSH2 0x4F8 PUSH2 0xD8E JUMP JUMPDEST JUMPDEST SWAP1 PUSH0 MSTORE PUSH1 0x20 PUSH0 KECCAK256 SWAP1 PUSH1 0x2 MUL ADD PUSH1 0x1 ADD SLOAD SWAP1 POP DUP6 DUP2 GT PUSH2 0x567 JUMPI PUSH0 PUSH1 0x2 DUP6 DUP5 DUP2 MLOAD DUP2 LT PUSH2 0x528 JUMPI PUSH2 0x527 PUSH2 0xD8E JUMP JUMPDEST JUMPDEST PUSH1 0x20 MUL PUSH1 0x20 ADD ADD MLOAD DUP2 SLOAD DUP2 LT PUSH2 0x541 JUMPI PUSH2 0x540 PUSH2 0xD8E JUMP JUMPDEST JUMPDEST SWAP1 PUSH0 MSTORE PUSH1 0x20 PUSH0 KECCAK256 SWAP1 PUSH1 0x2 MUL ADD PUSH1 0x1 ADD DUP2 SWAP1 SSTORE POP DUP1 DUP7 PUSH2 0x560 SWAP2 SWAP1 PUSH2 0xDBB JUMP JUMPDEST SWAP6 POP PUSH2 0x5BE JUMP JUMPDEST DUP6 PUSH1 0x2 DUP6 DUP5 DUP2 MLOAD DUP2 LT PUSH2 0x57D JUMPI PUSH2 0x57C PUSH2 0xD8E JUMP JUMPDEST JUMPDEST PUSH1 0x20 MUL PUSH1 0x20 ADD ADD MLOAD DUP2 SLOAD DUP2 LT PUSH2 0x596 JUMPI PUSH2 0x595 PUSH2 0xD8E JUMP JUMPDEST JUMPDEST SWAP1 PUSH0 MSTORE PUSH1 0x20 PUSH0 KECCAK256 SWAP1 PUSH1 0x2 MUL ADD PUSH1 0x1 ADD PUSH0 DUP3 DUP3 SLOAD PUSH2 0x5B3 SWAP2 SWAP1 PUSH2 0xDBB JUMP JUMPDEST SWAP3 POP POP DUP2 SWAP1 SSTORE POP PUSH0 SWAP6 POP JUMPDEST POP DUP1 DUP1 PUSH1 0x1 ADD SWAP2 POP POP PUSH2 0x4C1 JUMP JUMPDEST POP POP POP POP POP JUMP JUMPDEST PUSH1 0x60 PUSH0 PUSH0 DUP4 SUB PUSH2 0x5E1 JUMPI TIMESTAMP SWAP3 POP JUMPDEST PUSH0 PUSH0 SWAP1 POP PUSH0 PUSH0 SWAP1 POP JUMPDEST PUSH1 0x2 DUP1 SLOAD SWAP1 POP DUP2 LT ISZERO PUSH2 0x68D JUMPI DUP5 PUSH1 0x2 DUP3 DUP2 SLOAD DUP2 LT PUSH2 0x60C JUMPI PUSH2 0x60B PUSH2 0xD8E JUMP JUMPDEST JUMPDEST SWAP1 PUSH0 MSTORE PUSH1 0x20 PUSH0 KECCAK256 SWAP1 PUSH1 0x2 MUL ADD PUSH0 ADD SLOAD GT PUSH2 0x680 JUMPI DUP1 DUP5 DUP4 DUP2 MLOAD DUP2 LT PUSH2 0x634 JUMPI PUSH2 0x633 PUSH2 0xD8E JUMP JUMPDEST JUMPDEST PUSH1 0x20 MUL PUSH1 0x20 ADD ADD DUP2 DUP2 MSTORE POP POP PUSH1 0x2 DUP2 DUP2 SLOAD DUP2 LT PUSH2 0x654 JUMPI PUSH2 0x653 PUSH2 0xD8E JUMP JUMPDEST JUMPDEST SWAP1 PUSH0 MSTORE PUSH1 0x20 PUSH0 KECCAK256 SWAP1 PUSH1 0x2 MUL ADD PUSH1 0x1 ADD SLOAD DUP4 PUSH2 0x66F SWAP2 SWAP1 PUSH2 0xDEE JUMP JUMPDEST SWAP3 POP DUP2 DUP1 PUSH2 0x67C SWAP1 PUSH2 0xE21 JUMP JUMPDEST SWAP3 POP POP JUMPDEST DUP1 DUP1 PUSH1 0x1 ADD SWAP2 POP POP PUSH2 0x5EA JUMP JUMPDEST POP POP SWAP2 POP SWAP2 JUMP JUMPDEST PUSH1 0x2 DUP2 DUP2 SLOAD DUP2 LT PUSH2 0x6A3 JUMPI PUSH0 DUP1 REVERT JUMPDEST SWAP1 PUSH0 MSTORE PUSH1 0x20 PUSH0 KECCAK256 SWAP1 PUSH1 0x2 MUL ADD PUSH0 SWAP2 POP SWAP1 POP DUP1 PUSH0 ADD SLOAD SWAP1 DUP1 PUSH1 0x1 ADD SLOAD SWAP1 POP DUP3 JUMP JUMPDEST PUSH0 PUSH0 PUSH0 SWAP1 POP JUMPDEST PUSH1 0x2 DUP1 SLOAD SWAP1 POP DUP2 LT ISZERO PUSH2 0x714 JUMPI PUSH1 0x2 DUP2 DUP2 SLOAD DUP2 LT PUSH2 0x6EA JUMPI PUSH2 0x6E9 PUSH2 0xD8E JUMP JUMPDEST JUMPDEST SWAP1 PUSH0 MSTORE PUSH1 0x20 PUSH0 KECCAK256 SWAP1 PUSH1 0x2 MUL ADD PUSH1 0x1 ADD SLOAD DUP3 PUSH2 0x705 SWAP2 SWAP1 PUSH2 0xDEE JUMP JUMPDEST SWAP2 POP DUP1 DUP1 PUSH1 0x1 ADD SWAP2 POP POP PUSH2 0x6C9 JUMP JUMPDEST POP SWAP1 JUMP JUMPDEST PUSH1 0x1 PUSH0 SWAP1 SLOAD SWAP1 PUSH2 0x100 EXP SWAP1 DIV PUSH20 0xFFFFFFFFFFFFFFFFFFFFFFFFFFFFFFFFFFFFFFFF AND PUSH20 0xFFFFFFFFFFFFFFFFFFFFFFFFFFFFFFFFFFFFFFFF AND CALLER PUSH20 0xFFFFFFFFFFFFFFFFFFFFFFFFFFFFFFFFFFFFFFFF AND EQ PUSH2 0x7A7 JUMPI PUSH1 0x40 MLOAD PUSH32 0x8C379A000000000000000000000000000000000000000000000000000000000 DUP2 MSTORE PUSH1 0x4 ADD PUSH2 0x79E SWAP1 PUSH2 0xCE2 JUMP JUMPDEST PUSH1 0x40 MLOAD DUP1 SWAP2 SUB SWAP1 REVERT JUMPDEST DUP1 PUSH0 SLOAD LT ISZERO PUSH2 0x7EB JUMPI PUSH1 0x40 MLOAD PUSH32 0x8C379A000000000000000000000000000000000000000000000000000000000 DUP2 MSTORE PUSH1 0x4 ADD PUSH2 0x7E2 SWAP1 PUSH2 0xEB2 JUMP JUMPDEST PUSH1 0x40 MLOAD DUP1 SWAP2 SUB SWAP1 REVERT JUMPDEST DUP1 PUSH0 PUSH0 DUP3 DUP3 SLOAD PUSH2 0x7FB SWAP2 SWAP1 PUSH2 0xDBB JUMP JUMPDEST SWAP3 POP POP DUP2 SWAP1 SSTORE POP CALLER PUSH20 0xFFFFFFFFFFFFFFFFFFFFFFFFFFFFFFFFFFFFFFFF AND PUSH2 0x8FC DUP3 SWAP1 DUP2 ISZERO MUL SWAP1 PUSH1 0x40 MLOAD PUSH0 PUSH1 0x40 MLOAD DUP1 DUP4 SUB DUP2 DUP6 DUP9 DUP9 CALL SWAP4 POP POP POP POP ISZERO DUP1 ISZERO PUSH2 0x845 JUMPI RETURNDATASIZE PUSH0 PUSH0 RETURNDATACOPY RETURNDATASIZE PUSH0 REVERT JUMPDEST POP POP JUMP JUMPDEST PUSH0 TIMESTAMP SWAP1 POP SWAP1 JUMP JUMPDEST PUSH0 SLOAD DUP2 JUMP JUMPDEST PUSH1 0x3 SLOAD DUP2 JUMP JUMPDEST PUSH0 CALLVALUE GT PUSH2 0x89D JUMPI PUSH1 0x40 MLOAD PUSH32 0x8C379A000000000000000000000000000000000000000000000000000000000 DUP2 MSTORE PUSH1 0x4 ADD PUSH2 0x894 SWAP1 PUSH2 0xF1A JUMP JUMPDEST PUSH1 0x40 MLOAD DUP1 SWAP2 SUB SWAP1 REVERT JUMPDEST PUSH0 PUSH1 0x3C TIMESTAMP PUSH2 0x8AB SWAP2 SWAP1 PUSH2 0xDEE JUMP JUMPDEST SWAP1 POP PUSH0 PUSH0 PUSH1 0x3 SLOAD SUB PUSH2 0x8BF JUMPI PUSH0 SWAP1 POP PUSH2 0x92D JUMP JUMPDEST PUSH1 0x64 PUSH1 0x3 SLOAD CALLVALUE PUSH2 0x8CF SWAP2 SWAP1 PUSH2 0xF38 JUMP JUMPDEST PUSH2 0x8D9 SWAP2 SWAP1 PUSH2 0xB62 JUMP JUMPDEST SWAP1 POP PUSH1 0x2 PUSH1 0x40 MLOAD DUP1 PUSH1 0x40 ADD PUSH1 0x40 MSTORE DUP1 DUP5 DUP2 MSTORE PUSH1 0x20 ADD DUP4 DUP2 MSTORE POP SWAP1 DUP1 PUSH1 0x1 DUP2 SLOAD ADD DUP1 DUP3 SSTORE DUP1 SWAP2 POP POP PUSH1 0x1 SWAP1 SUB SWAP1 PUSH0 MSTORE PUSH1 0x20 PUSH0 KECCAK256 SWAP1 PUSH1 0x2 MUL ADD PUSH0 SWAP1 SWAP2 SWAP1 SWAP2 SWAP1 SWAP2 POP PUSH0 DUP3 ADD MLOAD DUP2 PUSH0 ADD SSTORE PUSH1 0x20 DUP3 ADD MLOAD DUP2 PUSH1 0x1 ADD SSTORE POP POP JUMPDEST PUSH0 DUP2 CALLVALUE PUSH2 0x93A SWAP2 SWAP1 PUSH2 0xDBB JUMP JUMPDEST SWAP1 POP DUP1 PUSH0 PUSH0 DUP3 DUP3 SLOAD PUSH2 0x94C SWAP2 SWAP1 PUSH2 0xDEE JUMP JUMPDEST SWAP3 POP POP DUP2 SWAP1 SSTORE POP PUSH1 0x1 PUSH1 0x4 PUSH0 PUSH2 0x100 EXP DUP2 SLOAD DUP2 PUSH1 0xFF MUL NOT AND SWAP1 DUP4 ISZERO ISZERO MUL OR SWAP1 SSTORE POP POP POP POP JUMP JUMPDEST PUSH0 PUSH0 REVERT JUMPDEST PUSH0 DUP2 SWAP1 POP SWAP2 SWAP1 POP JUMP JUMPDEST PUSH2 0x988 DUP2 PUSH2 0x976 JUMP JUMPDEST DUP2 EQ PUSH2 0x992 JUMPI PUSH0 PUSH0 REVERT JUMPDEST POP JUMP JUMPDEST PUSH0 DUP2 CALLDATALOAD SWAP1 POP PUSH2 0x9A3 DUP2 PUSH2 0x97F JUMP JUMPDEST SWAP3 SWAP2 POP POP JUMP JUMPDEST PUSH0 PUSH1 0x20 DUP3 DUP5 SUB SLT ISZERO PUSH2 0x9BE JUMPI PUSH2 0x9BD PUSH2 0x972 JUMP JUMPDEST JUMPDEST PUSH0 PUSH2 0x9CB DUP5 DUP3 DUP6 ADD PUSH2 0x995 JUMP JUMPDEST SWAP2 POP POP SWAP3 SWAP2 POP POP JUMP JUMPDEST PUSH0 DUP2 MLOAD SWAP1 POP SWAP2 SWAP1 POP JUMP JUMPDEST PUSH0 DUP3 DUP3 MSTORE PUSH1 0x20 DUP3 ADD SWAP1 POP SWAP3 SWAP2 POP POP JUMP JUMPDEST PUSH0 DUP2 SWAP1 POP PUSH1 0x20 DUP3 ADD SWAP1 POP SWAP2 SWAP1 POP JUMP JUMPDEST PUSH2 0xA06 DUP2 PUSH2 0x976 JUMP JUMPDEST DUP3 MSTORE POP POP JUMP JUMPDEST PUSH0 PUSH2 0xA17 DUP4 DUP4 PUSH2 0x9FD JUMP JUMPDEST PUSH1 0x20 DUP4 ADD SWAP1 POP SWAP3 SWAP2 POP POP JUMP JUMPDEST PUSH0 PUSH1 0x20 DUP3 ADD SWAP1 POP SWAP2 SWAP1 POP JUMP JUMPDEST PUSH0 PUSH2 0xA39 DUP3 PUSH2 0x9D4 JUMP JUMPDEST PUSH2 0xA43 DUP2 DUP6 PUSH2 0x9DE JUMP JUMPDEST SWAP4 POP PUSH2 0xA4E DUP4 PUSH2 0x9EE JUMP JUMPDEST DUP1 PUSH0 JUMPDEST DUP4 DUP2 LT ISZERO PUSH2 0xA7E JUMPI DUP2 MLOAD PUSH2 0xA65 DUP9 DUP3 PUSH2 0xA0C JUMP JUMPDEST SWAP8 POP PUSH2 0xA70 DUP4 PUSH2 0xA23 JUMP JUMPDEST SWAP3 POP POP PUSH1 0x1 DUP2 ADD SWAP1 POP PUSH2 0xA51 JUMP JUMPDEST POP DUP6 SWAP4 POP POP POP POP SWAP3 SWAP2 POP POP JUMP JUMPDEST PUSH2 0xA94 DUP2 PUSH2 0x976 JUMP JUMPDEST DUP3 MSTORE POP POP JUMP JUMPDEST PUSH0 PUSH1 0x40 DUP3 ADD SWAP1 POP DUP2 DUP2 SUB PUSH0 DUP4 ADD MSTORE PUSH2 0xAB2 DUP2 DUP6 PUSH2 0xA2F JUMP JUMPDEST SWAP1 POP PUSH2 0xAC1 PUSH1 0x20 DUP4 ADD DUP5 PUSH2 0xA8B JUMP JUMPDEST SWAP4 SWAP3 POP POP POP JUMP JUMPDEST PUSH0 PUSH1 0x40 DUP3 ADD SWAP1 POP PUSH2 0xADB PUSH0 DUP4 ADD DUP6 PUSH2 0xA8B JUMP JUMPDEST PUSH2 0xAE8 PUSH1 0x20 DUP4 ADD DUP5 PUSH2 0xA8B JUMP JUMPDEST SWAP4 SWAP3 POP POP POP JUMP JUMPDEST PUSH0 PUSH1 0x20 DUP3 ADD SWAP1 POP PUSH2 0xB02 PUSH0 DUP4 ADD DUP5 PUSH2 0xA8B JUMP JUMPDEST SWAP3 SWAP2 POP POP JUMP JUMPDEST PUSH32 0x4E487B7100000000000000000000000000000000000000000000000000000000 PUSH0 MSTORE PUSH1 0x12 PUSH1 0x4 MSTORE PUSH1 0x24 PUSH0 REVERT JUMPDEST PUSH32 0x4E487B7100000000000000000000000000000000000000000000000000000000 PUSH0 MSTORE PUSH1 0x11 PUSH1 0x4 MSTORE PUSH1 0x24 PUSH0 REVERT JUMPDEST PUSH0 PUSH2 0xB6C DUP3 PUSH2 0x976 JUMP JUMPDEST SWAP2 POP PUSH2 0xB77 DUP4 PUSH2 0x976 JUMP JUMPDEST SWAP3 POP DUP3 PUSH2 0xB87 JUMPI PUSH2 0xB86 PUSH2 0xB08 JUMP JUMPDEST JUMPDEST DUP3 DUP3 DIV SWAP1 POP SWAP3 SWAP2 POP POP JUMP JUMPDEST PUSH0 DUP3 DUP3 MSTORE PUSH1 0x20 DUP3 ADD SWAP1 POP SWAP3 SWAP2 POP POP JUMP JUMPDEST PUSH32 0x6465706F736974526174696F206D757374206265206265747765656E20302061 PUSH0 DUP3 ADD MSTORE PUSH32 0x6E64203130302000000000000000000000000000000000000000000000000000 PUSH1 0x20 DUP3 ADD MSTORE POP JUMP JUMPDEST PUSH0 PUSH2 0xBFC PUSH1 0x27 DUP4 PUSH2 0xB92 JUMP JUMPDEST SWAP2 POP PUSH2 0xC07 DUP3 PUSH2 0xBA2 JUMP JUMPDEST PUSH1 0x40 DUP3 ADD SWAP1 POP SWAP2 SWAP1 POP JUMP JUMPDEST PUSH0 PUSH1 0x20 DUP3 ADD SWAP1 POP DUP2 DUP2 SUB PUSH0 DUP4 ADD MSTORE PUSH2 0xC29 DUP2 PUSH2 0xBF0 JUMP JUMPDEST SWAP1 POP SWAP2 SWAP1 POP JUMP JUMPDEST PUSH32 0x20796F752063616E277420000000000000000000000000000000000000000000 PUSH0 DUP3 ADD MSTORE POP JUMP JUMPDEST PUSH0 PUSH2 0xC64 PUSH1 0xB DUP4 PUSH2 0xB92 JUMP JUMPDEST SWAP2 POP PUSH2 0xC6F DUP3 PUSH2 0xC30 JUMP JUMPDEST PUSH1 0x20 DUP3 ADD SWAP1 POP SWAP2 SWAP1 POP JUMP JUMPDEST PUSH0 PUSH1 0x20 DUP3 ADD SWAP1 POP DUP2 DUP2 SUB PUSH0 DUP4 ADD MSTORE PUSH2 0xC91 DUP2 PUSH2 0xC58 JUMP JUMPDEST SWAP1 POP SWAP2 SWAP1 POP JUMP JUMPDEST PUSH32 0x4E6F74206F776E65720000000000000000000000000000000000000000000000 PUSH0 DUP3 ADD MSTORE POP JUMP JUMPDEST PUSH0 PUSH2 0xCCC PUSH1 0x9 DUP4 PUSH2 0xB92 JUMP JUMPDEST SWAP2 POP PUSH2 0xCD7 DUP3 PUSH2 0xC98 JUMP JUMPDEST PUSH1 0x20 DUP3 ADD SWAP1 POP SWAP2 SWAP1 POP JUMP JUMPDEST PUSH0 PUSH1 0x20 DUP3 ADD SWAP1 POP DUP2 DUP2 SUB PUSH0 DUP4 ADD MSTORE PUSH2 0xCF9 DUP2 PUSH2 0xCC0 JUMP JUMPDEST SWAP1 POP SWAP2 SWAP1 POP JUMP JUMPDEST PUSH32 0x206E6F74206861766520656E676F75687420616D6F756E7420746F2077697468 PUSH0 DUP3 ADD MSTORE PUSH32 0x6472617720000000000000000000000000000000000000000000000000000000 PUSH1 0x20 DUP3 ADD MSTORE POP JUMP JUMPDEST PUSH0 PUSH2 0xD5A PUSH1 0x25 DUP4 PUSH2 0xB92 JUMP JUMPDEST SWAP2 POP PUSH2 0xD65 DUP3 PUSH2 0xD00 JUMP JUMPDEST PUSH1 0x40 DUP3 ADD SWAP1 POP SWAP2 SWAP1 POP JUMP JUMPDEST PUSH0 PUSH1 0x20 DUP3 ADD SWAP1 POP DUP2 DUP2 SUB PUSH0 DUP4 ADD MSTORE PUSH2 0xD87 DUP2 PUSH2 0xD4E JUMP JUMPDEST SWAP1 POP SWAP2 SWAP1 POP JUMP JUMPDEST PUSH32 0x4E487B7100000000000000000000000000000000000000000000000000000000 PUSH0 MSTORE PUSH1 0x32 PUSH1 0x4 MSTORE PUSH1 0x24 PUSH0 REVERT JUMPDEST PUSH0 PUSH2 0xDC5 DUP3 PUSH2 0x976 JUMP JUMPDEST SWAP2 POP PUSH2 0xDD0 DUP4 PUSH2 0x976 JUMP JUMPDEST SWAP3 POP DUP3 DUP3 SUB SWAP1 POP DUP2 DUP2 GT ISZERO PUSH2 0xDE8 JUMPI PUSH2 0xDE7 PUSH2 0xB35 JUMP JUMPDEST JUMPDEST SWAP3 SWAP2 POP POP JUMP JUMPDEST PUSH0 PUSH2 0xDF8 DUP3 PUSH2 0x976 JUMP JUMPDEST SWAP2 POP PUSH2 0xE03 DUP4 PUSH2 0x976 JUMP JUMPDEST SWAP3 POP DUP3 DUP3 ADD SWAP1 POP DUP1 DUP3 GT ISZERO PUSH2 0xE1B JUMPI PUSH2 0xE1A PUSH2 0xB35 JUMP JUMPDEST JUMPDEST SWAP3 SWAP2 POP POP JUMP JUMPDEST PUSH0 PUSH2 0xE2B DUP3 PUSH2 0x976 JUMP JUMPDEST SWAP2 POP PUSH32 0xFFFFFFFFFFFFFFFFFFFFFFFFFFFFFFFFFFFFFFFFFFFFFFFFFFFFFFFFFFFFFFFF DUP3 SUB PUSH2 0xE5D JUMPI PUSH2 0xE5C PUSH2 0xB35 JUMP JUMPDEST JUMPDEST PUSH1 0x1 DUP3 ADD SWAP1 POP SWAP2 SWAP1 POP JUMP JUMPDEST PUSH32 0x6E6F7420656E6F75676820636173682000000000000000000000000000000000 PUSH0 DUP3 ADD MSTORE POP JUMP JUMPDEST PUSH0 PUSH2 0xE9C PUSH1 0x10 DUP4 PUSH2 0xB92 JUMP JUMPDEST SWAP2 POP PUSH2 0xEA7 DUP3 PUSH2 0xE68 JUMP JUMPDEST PUSH1 0x20 DUP3 ADD SWAP1 POP SWAP2 SWAP1 POP JUMP JUMPDEST PUSH0 PUSH1 0x20 DUP3 ADD SWAP1 POP DUP2 DUP2 SUB PUSH0 DUP4 ADD MSTORE PUSH2 0xEC9 DUP2 PUSH2 0xE90 JUMP JUMPDEST SWAP1 POP SWAP2 SWAP1 POP JUMP JUMPDEST PUSH32 0x6E6565642073656E642065746800000000000000000000000000000000000000 PUSH0 DUP3 ADD MSTORE POP JUMP JUMPDEST PUSH0 PUSH2 0xF04 PUSH1 0xD DUP4 PUSH2 0xB92 JUMP JUMPDEST SWAP2 POP PUSH2 0xF0F DUP3 PUSH2 0xED0 JUMP JUMPDEST PUSH1 0x20 DUP3 ADD SWAP1 POP SWAP2 SWAP1 POP JUMP JUMPDEST PUSH0 PUSH1 0x20 DUP3 ADD SWAP1 POP DUP2 DUP2 SUB PUSH0 DUP4 ADD MSTORE PUSH2 0xF31 DUP2 PUSH2 0xEF8 JUMP JUMPDEST SWAP1 POP SWAP2 SWAP1 POP JUMP JUMPDEST PUSH0 PUSH2 0xF42 DUP3 PUSH2 0x976 JUMP JUMPDEST SWAP2 POP PUSH2 0xF4D DUP4 PUSH2 0x976 JUMP JUMPDEST SWAP3 POP DUP3 DUP3 MUL PUSH2 0xF5B DUP2 PUSH2 0x976 JUMP JUMPDEST SWAP2 POP DUP3 DUP3 DIV DUP5 EQ DUP4 ISZERO OR PUSH2 0xF72 JUMPI PUSH2 0xF71 PUSH2 0xB35 JUMP JUMPDEST JUMPDEST POP SWAP3 SWAP2 POP POP JUMP INVALID LOG2 PUSH5 0x6970667358 0x22 SLT KECCAK256 0xCF 0xB5 0x2A DATALOADN 0x574C DUP6 0xEB PUSH16 0xBD010F5255595BDF61F11CC408255330 0xC7 0x1F BYTE JUMPI 0x25 MLOAD DUP10 PUSH5 0x736F6C6343 STOP ADDMOD SAR STOP CALLER "
		},
		"gasEstimates": {
			"creation": {
				"codeDepositCost": "803000",
				"executionCost": "49366",
				"totalCost": "852366"
			},
			"external": {
				"cash()": "2468",
				"deposit()": "infinite",
				"depositRatio()": "2491",
				"depositReceiptInfo(uint256)": "infinite",
				"getBlockTime()": "353",
				"getDepistInfo(uint256)": "infinite",
				"getDepositAmount()": "infinite",
				"updateDepositRatio(uint256)": "infinite",
				"withdrawCash(uint256)": "infinite",
				"withdrawDeposit(uint256)": "infinite"
			}
		},
		"methodIdentifiers": {
			"cash()": "961be391",
			"deposit()": "d0e30db0",
			"depositRatio()": "c6f0837a",
			"depositReceiptInfo(uint256)": "7099f3d6",
			"getBlockTime()": "87ceff09",
			"getDepistInfo(uint256)": "5ee8a15d",
			"getDepositAmount()": "7d96f693",
			"updateDepositRatio(uint256)": "27e092a2",
			"withdrawCash(uint256)": "83e4cccf",
			"withdrawDeposit(uint256)": "33289a46"
		}
	},
	"abi": [
		{
			"inputs": [],
			"stateMutability": "nonpayable",
			"type": "constructor"
		},
		{
			"inputs": [],
			"name": "cash",
			"outputs": [
				{
					"internalType": "uint256",
					"name": "",
					"type": "uint256"
				}
			],
			"stateMutability": "view",
			"type": "function"
		},
		{
			"inputs": [],
			"name": "deposit",
			"outputs": [],
			"stateMutability": "payable",
			"type": "function"
		},
		{
			"inputs": [],
			"name": "depositRatio",
			"outputs": [
				{
					"internalType": "uint256",
					"name": "",
					"type": "uint256"
				}
			],
			"stateMutability": "view",
			"type": "function"
		},
		{
			"inputs": [
				{
					"internalType": "uint256",
					"name": "",
					"type": "uint256"
				}
			],
			"name": "depositReceiptInfo",
			"outputs": [
				{
					"internalType": "uint256",
					"name": "depositTime",
					"type": "uint256"
				},
				{
					"internalType": "uint256",
					"name": "depositAmount",
					"type": "uint256"
				}
			],
			"stateMutability": "view",
			"type": "function"
		},
		{
			"inputs": [],
			"name": "getBlockTime",
			"outputs": [
				{
					"internalType": "uint256",
					"name": "",
					"type": "uint256"
				}
			],
			"stateMutability": "view",
			"type": "function"
		},
		{
			"inputs": [
				{
					"internalType": "uint256",
					"name": "timestamp",
					"type": "uint256"
				}
			],
			"name": "getDepistInfo",
			"outputs": [
				{
					"internalType": "uint256[]",
					"name": "_index",
					"type": "uint256[]"
				},
				{
					"internalType": "uint256",
					"name": "amount",
					"type": "uint256"
				}
			],
			"stateMutability": "view",
			"type": "function"
		},
		{
			"inputs": [],
			"name": "getDepositAmount",
			"outputs": [
				{
					"internalType": "uint256",
					"name": "amount",
					"type": "uint256"
				}
			],
			"stateMutability": "view",
			"type": "function"
		},
		{
			"inputs": [
				{
					"internalType": "uint256",
					"name": "_depositRatio",
					"type": "uint256"
				}
			],
			"name": "updateDepositRatio",
			"outputs": [],
			"stateMutability": "nonpayable",
			"type": "function"
		},
		{
			"inputs": [
				{
					"internalType": "uint256",
					"name": "amount",
					"type": "uint256"
				}
			],
			"name": "withdrawCash",
			"outputs": [],
			"stateMutability": "nonpayable",
			"type": "function"
		},
		{
			"inputs": [
				{
					"internalType": "uint256",
					"name": "amount",
					"type": "uint256"
				}
			],
			"name": "withdrawDeposit",
			"outputs": [],
			"stateMutability": "nonpayable",
			"type": "function"
		}
	]
}