{
	"data": {
		"bytecode": {
			"linkReferences": {},
			"object": "60806040525f60045f6101000a81548160ff0219169083151502179055503480156027575f5ffd5b503360015f6101000a81548173ffffffffffffffffffffffffffffffffffffffff021916908373ffffffffffffffffffffffffffffffffffffffff160217905550610cf6806100755f395ff3fe608060405260043610610054575f3560e01c806327e092a21461005857806333289a461461008057806383e4cccf146100a8578063961be391146100d0578063c6f0837a146100fa578063d0e30db014610124575b5f5ffd5b348015610063575f5ffd5b5061007e600480360381019061007991906107fc565b61012e565b005b34801561008b575f5ffd5b506100a660048036038101906100a191906107fc565b61027d565b005b3480156100b3575f5ffd5b506100ce60048036038101906100c991906107fc565b6104bd565b005b3480156100db575f5ffd5b506100e46105ee565b6040516100f19190610836565b60405180910390f35b348015610105575f5ffd5b5061010e6105f3565b60405161011b9190610836565b60405180910390f35b61012c6105f9565b005b80670de0b6b3a76400008161014391906108a9565b90505f81101580610155575060648111155b610194576040517f08c379a000000000000000000000000000000000000000000000000000000000815260040161018b90610959565b60405180910390fd5b60045f9054906101000a900460ff16156101e3576040517f08c379a00000000000000000000000000000000000000000000000000000000081526004016101da906109c1565b60405180910390fd5b60015f9054906101000a900473ffffffffffffffffffffffffffffffffffffffff1673ffffffffffffffffffffffffffffffffffffffff163373ffffffffffffffffffffffffffffffffffffffff1614610272576040517f08c379a000000000000000000000000000000000000000000000000000000000815260040161026990610a29565b60405180910390fd5b816003819055505050565b60015f9054906101000a900473ffffffffffffffffffffffffffffffffffffffff1673ffffffffffffffffffffffffffffffffffffffff163373ffffffffffffffffffffffffffffffffffffffff161461030c576040517f08c379a000000000000000000000000000000000000000000000000000000000815260040161030390610a29565b60405180910390fd5b5f5f610316610710565b915091505f825111801561032a5750828110155b610369576040517f08c379a000000000000000000000000000000000000000000000000000000000815260040161036090610ab7565b60405180910390fd5b3373ffffffffffffffffffffffffffffffffffffffff166108fc8490811502906040515f60405180830381858888f193505050501580156103ac573d5f5f3e3d5ffd5b505f5f90505b82518110156104b7575f60028483815181106103d1576103d0610ad5565b5b6020026020010151815481106103ea576103e9610ad5565b5b905f5260205f209060020201600101549050848111610458575f600285848151811061041957610418610ad5565b5b60200260200101518154811061043257610431610ad5565b5b905f5260205f2090600202016001018190555080856104519190610b02565b94506104a9565b80856104649190610b02565b600285848151811061047957610478610ad5565b5b60200260200101518154811061049257610491610ad5565b5b905f5260205f209060020201600101819055505f94505b5080806001019150506103b2565b50505050565b60015f9054906101000a900473ffffffffffffffffffffffffffffffffffffffff1673ffffffffffffffffffffffffffffffffffffffff163373ffffffffffffffffffffffffffffffffffffffff161461054c576040517f08c379a000000000000000000000000000000000000000000000000000000000815260040161054390610a29565b60405180910390fd5b805f541015610590576040517f08c379a000000000000000000000000000000000000000000000000000000000815260040161058790610b7f565b60405180910390fd5b805f5f8282546105a09190610b02565b925050819055503373ffffffffffffffffffffffffffffffffffffffff166108fc8290811502906040515f60405180830381858888f193505050501580156105ea573d5f5f3e3d5ffd5b5050565b5f5481565b60035481565b5f341161063b576040517f08c379a000000000000000000000000000000000000000000000000000000000815260040161063290610be7565b60405180910390fd5b5f603c426106499190610c05565b90505f5f6003540361065d575f90506106cb565b60646003543461066d9190610c38565b61067791906108a9565b90506002604051806040016040528084815260200183815250908060018154018082558091505060019003905f5260205f2090600202015f909190919091505f820151815f01556020820151816001015550505b5f81346106d89190610b02565b9050805f5f8282546106ea9190610c05565b92505081905550600160045f6101000a81548160ff021916908315150217905550505050565b60605f5f5f90505f5f90505b6002805490508110156107bf57426002828154811061073e5761073d610ad5565b5b905f5260205f2090600202015f0154116107b2578084838151811061076657610765610ad5565b5b6020026020010181815250506002818154811061078657610785610ad5565b5b905f5260205f20906002020160010154836107a19190610c05565b925081806107ae90610c79565b9250505b808060010191505061071c565b50509091565b5f5ffd5b5f819050919050565b6107db816107c9565b81146107e5575f5ffd5b50565b5f813590506107f6816107d2565b92915050565b5f60208284031215610811576108106107c5565b5b5f61081e848285016107e8565b91505092915050565b610830816107c9565b82525050565b5f6020820190506108495f830184610827565b92915050565b7f4e487b71000000000000000000000000000000000000000000000000000000005f52601260045260245ffd5b7f4e487b71000000000000000000000000000000000000000000000000000000005f52601160045260245ffd5b5f6108b3826107c9565b91506108be836107c9565b9250826108ce576108cd61084f565b5b828204905092915050565b5f82825260208201905092915050565b7f6465706f736974526174696f206d757374206265206265747765656e203020615f8201527f6e64203130302000000000000000000000000000000000000000000000000000602082015250565b5f6109436027836108d9565b915061094e826108e9565b604082019050919050565b5f6020820190508181035f83015261097081610937565b9050919050565b7f20796f752063616e2774200000000000000000000000000000000000000000005f82015250565b5f6109ab600b836108d9565b91506109b682610977565b602082019050919050565b5f6020820190508181035f8301526109d88161099f565b9050919050565b7f4e6f74206f776e657200000000000000000000000000000000000000000000005f82015250565b5f610a136009836108d9565b9150610a1e826109df565b602082019050919050565b5f6020820190508181035f830152610a4081610a07565b9050919050565b7f206e6f74206861766520656e676f75687420616d6f756e7420746f20776974685f8201527f6472617720000000000000000000000000000000000000000000000000000000602082015250565b5f610aa16025836108d9565b9150610aac82610a47565b604082019050919050565b5f6020820190508181035f830152610ace81610a95565b9050919050565b7f4e487b71000000000000000000000000000000000000000000000000000000005f52603260045260245ffd5b5f610b0c826107c9565b9150610b17836107c9565b9250828203905081811115610b2f57610b2e61087c565b5b92915050565b7f6e6f7420656e6f756768206361736820000000000000000000000000000000005f82015250565b5f610b696010836108d9565b9150610b7482610b35565b602082019050919050565b5f6020820190508181035f830152610b9681610b5d565b9050919050565b7f6e6565642073656e6420657468000000000000000000000000000000000000005f82015250565b5f610bd1600d836108d9565b9150610bdc82610b9d565b602082019050919050565b5f6020820190508181035f830152610bfe81610bc5565b9050919050565b5f610c0f826107c9565b9150610c1a836107c9565b9250828201905080821115610c3257610c3161087c565b5b92915050565b5f610c42826107c9565b9150610c4d836107c9565b9250828202610c5b816107c9565b91508282048414831517610c7257610c7161087c565b5b5092915050565b5f610c83826107c9565b91507fffffffffffffffffffffffffffffffffffffffffffffffffffffffffffffffff8203610cb557610cb461087c565b5b60018201905091905056fea26469706673582212201a7ed54dfdfca7242e295c833c7a3b42e67ff54c1a606550a656059d4e74e08d64736f6c634300081d0033",
			"opcodes": "PUSH1 0x80 PUSH1 0x40 MSTORE PUSH0 PUSH1 0x4 PUSH0 PUSH2 0x100 EXP DUP2 SLOAD DUP2 PUSH1 0xFF MUL NOT AND SWAP1 DUP4 ISZERO ISZERO MUL OR SWAP1 SSTORE POP CALLVALUE DUP1 ISZERO PUSH1 0x27 JUMPI PUSH0 PUSH0 REVERT JUMPDEST POP CALLER PUSH1 0x1 PUSH0 PUSH2 0x100 EXP DUP2 SLOAD DUP2 PUSH20 0xFFFFFFFFFFFFFFFFFFFFFFFFFFFFFFFFFFFFFFFF MUL NOT AND SWAP1 DUP4 PUSH20 0xFFFFFFFFFFFFFFFFFFFFFFFFFFFFFFFFFFFFFFFF AND MUL OR SWAP1 SSTORE POP PUSH2 0xCF6 DUP1 PUSH2 0x75 PUSH0 CODECOPY PUSH0 RETURN INVALID PUSH1 0x80 PUSH1 0x40 MSTORE PUSH1 0x4 CALLDATASIZE LT PUSH2 0x54 JUMPI PUSH0 CALLDATALOAD PUSH1 0xE0 SHR DUP1 PUSH4 0x27E092A2 EQ PUSH2 0x58 JUMPI DUP1 PUSH4 0x33289A46 EQ PUSH2 0x80 JUMPI DUP1 PUSH4 0x83E4CCCF EQ PUSH2 0xA8 JUMPI DUP1 PUSH4 0x961BE391 EQ PUSH2 0xD0 JUMPI DUP1 PUSH4 0xC6F0837A EQ PUSH2 0xFA JUMPI DUP1 PUSH4 0xD0E30DB0 EQ PUSH2 0x124 JUMPI JUMPDEST PUSH0 PUSH0 REVERT JUMPDEST CALLVALUE DUP1 ISZERO PUSH2 0x63 JUMPI PUSH0 PUSH0 REVERT JUMPDEST POP PUSH2 0x7E PUSH1 0x4 DUP1 CALLDATASIZE SUB DUP2 ADD SWAP1 PUSH2 0x79 SWAP2 SWAP1 PUSH2 0x7FC JUMP JUMPDEST PUSH2 0x12E JUMP JUMPDEST STOP JUMPDEST CALLVALUE DUP1 ISZERO PUSH2 0x8B JUMPI PUSH0 PUSH0 REVERT JUMPDEST POP PUSH2 0xA6 PUSH1 0x4 DUP1 CALLDATASIZE SUB DUP2 ADD SWAP1 PUSH2 0xA1 SWAP2 SWAP1 PUSH2 0x7FC JUMP JUMPDEST PUSH2 0x27D JUMP JUMPDEST STOP JUMPDEST CALLVALUE DUP1 ISZERO PUSH2 0xB3 JUMPI PUSH0 PUSH0 REVERT JUMPDEST POP PUSH2 0xCE PUSH1 0x4 DUP1 CALLDATASIZE SUB DUP2 ADD SWAP1 PUSH2 0xC9 SWAP2 SWAP1 PUSH2 0x7FC JUMP JUMPDEST PUSH2 0x4BD JUMP JUMPDEST STOP JUMPDEST CALLVALUE DUP1 ISZERO PUSH2 0xDB JUMPI PUSH0 PUSH0 REVERT JUMPDEST POP PUSH2 0xE4 PUSH2 0x5EE JUMP JUMPDEST PUSH1 0x40 MLOAD PUSH2 0xF1 SWAP2 SWAP1 PUSH2 0x836 JUMP JUMPDEST PUSH1 0x40 MLOAD DUP1 SWAP2 SUB SWAP1 RETURN JUMPDEST CALLVALUE DUP1 ISZERO PUSH2 0x105 JUMPI PUSH0 PUSH0 REVERT JUMPDEST POP PUSH2 0x10E PUSH2 0x5F3 JUMP JUMPDEST PUSH1 0x40 MLOAD PUSH2 0x11B SWAP2 SWAP1 PUSH2 0x836 JUMP JUMPDEST PUSH1 0x40 MLOAD DUP1 SWAP2 SUB SWAP1 RETURN JUMPDEST PUSH2 0x12C PUSH2 0x5F9 JUMP JUMPDEST STOP JUMPDEST DUP1 PUSH8 0xDE0B6B3A7640000 DUP2 PUSH2 0x143 SWAP2 SWAP1 PUSH2 0x8A9 JUMP JUMPDEST SWAP1 POP PUSH0 DUP2 LT ISZERO DUP1 PUSH2 0x155 JUMPI POP PUSH1 0x64 DUP2 GT ISZERO JUMPDEST PUSH2 0x194 JUMPI PUSH1 0x40 MLOAD PUSH32 0x8C379A000000000000000000000000000000000000000000000000000000000 DUP2 MSTORE PUSH1 0x4 ADD PUSH2 0x18B SWAP1 PUSH2 0x959 JUMP JUMPDEST PUSH1 0x40 MLOAD DUP1 SWAP2 SUB SWAP1 REVERT JUMPDEST PUSH1 0x4 PUSH0 SWAP1 SLOAD SWAP1 PUSH2 0x100 EXP SWAP1 DIV PUSH1 0xFF AND ISZERO PUSH2 0x1E3 JUMPI PUSH1 0x40 MLOAD PUSH32 0x8C379A000000000000000000000000000000000000000000000000000000000 DUP2 MSTORE PUSH1 0x4 ADD PUSH2 0x1DA SWAP1 PUSH2 0x9C1 JUMP JUMPDEST PUSH1 0x40 MLOAD DUP1 SWAP2 SUB SWAP1 REVERT JUMPDEST PUSH1 0x1 PUSH0 SWAP1 SLOAD SWAP1 PUSH2 0x100 EXP SWAP1 DIV PUSH20 0xFFFFFFFFFFFFFFFFFFFFFFFFFFFFFFFFFFFFFFFF AND PUSH20 0xFFFFFFFFFFFFFFFFFFFFFFFFFFFFFFFFFFFFFFFF AND CALLER PUSH20 0xFFFFFFFFFFFFFFFFFFFFFFFFFFFFFFFFFFFFFFFF AND EQ PUSH2 0x272 JUMPI PUSH1 0x40 MLOAD PUSH32 0x8C379A000000000000000000000000000000000000000000000000000000000 DUP2 MSTORE PUSH1 0x4 ADD PUSH2 0x269 SWAP1 PUSH2 0xA29 JUMP JUMPDEST PUSH1 0x40 MLOAD DUP1 SWAP2 SUB SWAP1 REVERT JUMPDEST DUP2 PUSH1 0x3 DUP2 SWAP1 SSTORE POP POP POP JUMP JUMPDEST PUSH1 0x1 PUSH0 SWAP1 SLOAD SWAP1 PUSH2 0x100 EXP SWAP1 DIV PUSH20 0xFFFFFFFFFFFFFFFFFFFFFFFFFFFFFFFFFFFFFFFF AND PUSH20 0xFFFFFFFFFFFFFFFFFFFFFFFFFFFFFFFFFFFFFFFF AND CALLER PUSH20 0xFFFFFFFFFFFFFFFFFFFFFFFFFFFFFFFFFFFFFFFF AND EQ PUSH2 0x30C JUMPI PUSH1 0x40 MLOAD PUSH32 0x8C379A000000000000000000000000000000000000000000000000000000000 DUP2 MSTORE PUSH1 0x4 ADD PUSH2 0x303 SWAP1 PUSH2 0xA29 JUMP JUMPDEST PUSH1 0x40 MLOAD DUP1 SWAP2 SUB SWAP1 REVERT JUMPDEST PUSH0 PUSH0 PUSH2 0x316 PUSH2 0x710 JUMP JUMPDEST SWAP2 POP SWAP2 POP PUSH0 DUP3 MLOAD GT DUP1 ISZERO PUSH2 0x32A JUMPI POP DUP3 DUP2 LT ISZERO JUMPDEST PUSH2 0x369 JUMPI PUSH1 0x40 MLOAD PUSH32 0x8C379A000000000000000000000000000000000000000000000000000000000 DUP2 MSTORE PUSH1 0x4 ADD PUSH2 0x360 SWAP1 PUSH2 0xAB7 JUMP JUMPDEST PUSH1 0x40 MLOAD DUP1 SWAP2 SUB SWAP1 REVERT JUMPDEST CALLER PUSH20 0xFFFFFFFFFFFFFFFFFFFFFFFFFFFFFFFFFFFFFFFF AND PUSH2 0x8FC DUP5 SWAP1 DUP2 ISZERO MUL SWAP1 PUSH1 0x40 MLOAD PUSH0 PUSH1 0x40 MLOAD DUP1 DUP4 SUB DUP2 DUP6 DUP9 DUP9 CALL SWAP4 POP POP POP POP ISZERO DUP1 ISZERO PUSH2 0x3AC JUMPI RETURNDATASIZE PUSH0 PUSH0 RETURNDATACOPY RETURNDATASIZE PUSH0 REVERT JUMPDEST POP PUSH0 PUSH0 SWAP1 POP JUMPDEST DUP3 MLOAD DUP2 LT ISZERO PUSH2 0x4B7 JUMPI PUSH0 PUSH1 0x2 DUP5 DUP4 DUP2 MLOAD DUP2 LT PUSH2 0x3D1 JUMPI PUSH2 0x3D0 PUSH2 0xAD5 JUMP JUMPDEST JUMPDEST PUSH1 0x20 MUL PUSH1 0x20 ADD ADD MLOAD DUP2 SLOAD DUP2 LT PUSH2 0x3EA JUMPI PUSH2 0x3E9 PUSH2 0xAD5 JUMP JUMPDEST JUMPDEST SWAP1 PUSH0 MSTORE PUSH1 0x20 PUSH0 KECCAK256 SWAP1 PUSH1 0x2 MUL ADD PUSH1 0x1 ADD SLOAD SWAP1 POP DUP5 DUP2 GT PUSH2 0x458 JUMPI PUSH0 PUSH1 0x2 DUP6 DUP5 DUP2 MLOAD DUP2 LT PUSH2 0x419 JUMPI PUSH2 0x418 PUSH2 0xAD5 JUMP JUMPDEST JUMPDEST PUSH1 0x20 MUL PUSH1 0x20 ADD ADD MLOAD DUP2 SLOAD DUP2 LT PUSH2 0x432 JUMPI PUSH2 0x431 PUSH2 0xAD5 JUMP JUMPDEST JUMPDEST SWAP1 PUSH0 MSTORE PUSH1 0x20 PUSH0 KECCAK256 SWAP1 PUSH1 0x2 MUL ADD PUSH1 0x1 ADD DUP2 SWAP1 SSTORE POP DUP1 DUP6 PUSH2 0x451 SWAP2 SWAP1 PUSH2 0xB02 JUMP JUMPDEST SWAP5 POP PUSH2 0x4A9 JUMP JUMPDEST DUP1 DUP6 PUSH2 0x464 SWAP2 SWAP1 PUSH2 0xB02 JUMP JUMPDEST PUSH1 0x2 DUP6 DUP5 DUP2 MLOAD DUP2 LT PUSH2 0x479 JUMPI PUSH2 0x478 PUSH2 0xAD5 JUMP JUMPDEST JUMPDEST PUSH1 0x20 MUL PUSH1 0x20 ADD ADD MLOAD DUP2 SLOAD DUP2 LT PUSH2 0x492 JUMPI PUSH2 0x491 PUSH2 0xAD5 JUMP JUMPDEST JUMPDEST SWAP1 PUSH0 MSTORE PUSH1 0x20 PUSH0 KECCAK256 SWAP1 PUSH1 0x2 MUL ADD PUSH1 0x1 ADD DUP2 SWAP1 SSTORE POP PUSH0 SWAP5 POP JUMPDEST POP DUP1 DUP1 PUSH1 0x1 ADD SWAP2 POP POP PUSH2 0x3B2 JUMP JUMPDEST POP POP POP POP JUMP JUMPDEST PUSH1 0x1 PUSH0 SWAP1 SLOAD SWAP1 PUSH2 0x100 EXP SWAP1 DIV PUSH20 0xFFFFFFFFFFFFFFFFFFFFFFFFFFFFFFFFFFFFFFFF AND PUSH20 0xFFFFFFFFFFFFFFFFFFFFFFFFFFFFFFFFFFFFFFFF AND CALLER PUSH20 0xFFFFFFFFFFFFFFFFFFFFFFFFFFFFFFFFFFFFFFFF AND EQ PUSH2 0x54C JUMPI PUSH1 0x40 MLOAD PUSH32 0x8C379A000000000000000000000000000000000000000000000000000000000 DUP2 MSTORE PUSH1 0x4 ADD PUSH2 0x543 SWAP1 PUSH2 0xA29 JUMP JUMPDEST PUSH1 0x40 MLOAD DUP1 SWAP2 SUB SWAP1 REVERT JUMPDEST DUP1 PUSH0 SLOAD LT ISZERO PUSH2 0x590 JUMPI PUSH1 0x40 MLOAD PUSH32 0x8C379A000000000000000000000000000000000000000000000000000000000 DUP2 MSTORE PUSH1 0x4 ADD PUSH2 0x587 SWAP1 PUSH2 0xB7F JUMP JUMPDEST PUSH1 0x40 MLOAD DUP1 SWAP2 SUB SWAP1 REVERT JUMPDEST DUP1 PUSH0 PUSH0 DUP3 DUP3 SLOAD PUSH2 0x5A0 SWAP2 SWAP1 PUSH2 0xB02 JUMP JUMPDEST SWAP3 POP POP DUP2 SWAP1 SSTORE POP CALLER PUSH20 0xFFFFFFFFFFFFFFFFFFFFFFFFFFFFFFFFFFFFFFFF AND PUSH2 0x8FC DUP3 SWAP1 DUP2 ISZERO MUL SWAP1 PUSH1 0x40 MLOAD PUSH0 PUSH1 0x40 MLOAD DUP1 DUP4 SUB DUP2 DUP6 DUP9 DUP9 CALL SWAP4 POP POP POP POP ISZERO DUP1 ISZERO PUSH2 0x5EA JUMPI RETURNDATASIZE PUSH0 PUSH0 RETURNDATACOPY RETURNDATASIZE PUSH0 REVERT JUMPDEST POP POP JUMP JUMPDEST PUSH0 SLOAD DUP2 JUMP JUMPDEST PUSH1 0x3 SLOAD DUP2 JUMP JUMPDEST PUSH0 CALLVALUE GT PUSH2 0x63B JUMPI PUSH1 0x40 MLOAD PUSH32 0x8C379A000000000000000000000000000000000000000000000000000000000 DUP2 MSTORE PUSH1 0x4 ADD PUSH2 0x632 SWAP1 PUSH2 0xBE7 JUMP JUMPDEST PUSH1 0x40 MLOAD DUP1 SWAP2 SUB SWAP1 REVERT JUMPDEST PUSH0 PUSH1 0x3C TIMESTAMP PUSH2 0x649 SWAP2 SWAP1 PUSH2 0xC05 JUMP JUMPDEST SWAP1 POP PUSH0 PUSH0 PUSH1 0x3 SLOAD SUB PUSH2 0x65D JUMPI PUSH0 SWAP1 POP PUSH2 0x6CB JUMP JUMPDEST PUSH1 0x64 PUSH1 0x3 SLOAD CALLVALUE PUSH2 0x66D SWAP2 SWAP1 PUSH2 0xC38 JUMP JUMPDEST PUSH2 0x677 SWAP2 SWAP1 PUSH2 0x8A9 JUMP JUMPDEST SWAP1 POP PUSH1 0x2 PUSH1 0x40 MLOAD DUP1 PUSH1 0x40 ADD PUSH1 0x40 MSTORE DUP1 DUP5 DUP2 MSTORE PUSH1 0x20 ADD DUP4 DUP2 MSTORE POP SWAP1 DUP1 PUSH1 0x1 DUP2 SLOAD ADD DUP1 DUP3 SSTORE DUP1 SWAP2 POP POP PUSH1 0x1 SWAP1 SUB SWAP1 PUSH0 MSTORE PUSH1 0x20 PUSH0 KECCAK256 SWAP1 PUSH1 0x2 MUL ADD PUSH0 SWAP1 SWAP2 SWAP1 SWAP2 SWAP1 SWAP2 POP PUSH0 DUP3 ADD MLOAD DUP2 PUSH0 ADD SSTORE PUSH1 0x20 DUP3 ADD MLOAD DUP2 PUSH1 0x1 ADD SSTORE POP POP JUMPDEST PUSH0 DUP2 CALLVALUE PUSH2 0x6D8 SWAP2 SWAP1 PUSH2 0xB02 JUMP JUMPDEST SWAP1 POP DUP1 PUSH0 PUSH0 DUP3 DUP3 SLOAD PUSH2 0x6EA SWAP2 SWAP1 PUSH2 0xC05 JUMP JUMPDEST SWAP3 POP POP DUP2 SWAP1 SSTORE POP PUSH1 0x1 PUSH1 0x4 PUSH0 PUSH2 0x100 EXP DUP2 SLOAD DUP2 PUSH1 0xFF MUL NOT AND SWAP1 DUP4 ISZERO ISZERO MUL OR SWAP1 SSTORE POP POP POP POP JUMP JUMPDEST PUSH1 0x60 PUSH0 PUSH0 PUSH0 SWAP1 POP PUSH0 PUSH0 SWAP1 POP JUMPDEST PUSH1 0x2 DUP1 SLOAD SWAP1 POP DUP2 LT ISZERO PUSH2 0x7BF JUMPI TIMESTAMP PUSH1 0x2 DUP3 DUP2 SLOAD DUP2 LT PUSH2 0x73E JUMPI PUSH2 0x73D PUSH2 0xAD5 JUMP JUMPDEST JUMPDEST SWAP1 PUSH0 MSTORE PUSH1 0x20 PUSH0 KECCAK256 SWAP1 PUSH1 0x2 MUL ADD PUSH0 ADD SLOAD GT PUSH2 0x7B2 JUMPI DUP1 DUP5 DUP4 DUP2 MLOAD DUP2 LT PUSH2 0x766 JUMPI PUSH2 0x765 PUSH2 0xAD5 JUMP JUMPDEST JUMPDEST PUSH1 0x20 MUL PUSH1 0x20 ADD ADD DUP2 DUP2 MSTORE POP POP PUSH1 0x2 DUP2 DUP2 SLOAD DUP2 LT PUSH2 0x786 JUMPI PUSH2 0x785 PUSH2 0xAD5 JUMP JUMPDEST JUMPDEST SWAP1 PUSH0 MSTORE PUSH1 0x20 PUSH0 KECCAK256 SWAP1 PUSH1 0x2 MUL ADD PUSH1 0x1 ADD SLOAD DUP4 PUSH2 0x7A1 SWAP2 SWAP1 PUSH2 0xC05 JUMP JUMPDEST SWAP3 POP DUP2 DUP1 PUSH2 0x7AE SWAP1 PUSH2 0xC79 JUMP JUMPDEST SWAP3 POP POP JUMPDEST DUP1 DUP1 PUSH1 0x1 ADD SWAP2 POP POP PUSH2 0x71C JUMP JUMPDEST POP POP SWAP1 SWAP2 JUMP JUMPDEST PUSH0 PUSH0 REVERT JUMPDEST PUSH0 DUP2 SWAP1 POP SWAP2 SWAP1 POP JUMP JUMPDEST PUSH2 0x7DB DUP2 PUSH2 0x7C9 JUMP JUMPDEST DUP2 EQ PUSH2 0x7E5 JUMPI PUSH0 PUSH0 REVERT JUMPDEST POP JUMP JUMPDEST PUSH0 DUP2 CALLDATALOAD SWAP1 POP PUSH2 0x7F6 DUP2 PUSH2 0x7D2 JUMP JUMPDEST SWAP3 SWAP2 POP POP JUMP JUMPDEST PUSH0 PUSH1 0x20 DUP3 DUP5 SUB SLT ISZERO PUSH2 0x811 JUMPI PUSH2 0x810 PUSH2 0x7C5 JUMP JUMPDEST JUMPDEST PUSH0 PUSH2 0x81E DUP5 DUP3 DUP6 ADD PUSH2 0x7E8 JUMP JUMPDEST SWAP2 POP POP SWAP3 SWAP2 POP POP JUMP JUMPDEST PUSH2 0x830 DUP2 PUSH2 0x7C9 JUMP JUMPDEST DUP3 MSTORE POP POP JUMP JUMPDEST PUSH0 PUSH1 0x20 DUP3 ADD SWAP1 POP PUSH2 0x849 PUSH0 DUP4 ADD DUP5 PUSH2 0x827 JUMP JUMPDEST SWAP3 SWAP2 POP POP JUMP JUMPDEST PUSH32 0x4E487B7100000000000000000000000000000000000000000000000000000000 PUSH0 MSTORE PUSH1 0x12 PUSH1 0x4 MSTORE PUSH1 0x24 PUSH0 REVERT JUMPDEST PUSH32 0x4E487B7100000000000000000000000000000000000000000000000000000000 PUSH0 MSTORE PUSH1 0x11 PUSH1 0x4 MSTORE PUSH1 0x24 PUSH0 REVERT JUMPDEST PUSH0 PUSH2 0x8B3 DUP3 PUSH2 0x7C9 JUMP JUMPDEST SWAP2 POP PUSH2 0x8BE DUP4 PUSH2 0x7C9 JUMP JUMPDEST SWAP3 POP DUP3 PUSH2 0x8CE JUMPI PUSH2 0x8CD PUSH2 0x84F JUMP JUMPDEST JUMPDEST DUP3 DUP3 DIV SWAP1 POP SWAP3 SWAP2 POP POP JUMP JUMPDEST PUSH0 DUP3 DUP3 MSTORE PUSH1 0x20 DUP3 ADD SWAP1 POP SWAP3 SWAP2 POP POP JUMP JUMPDEST PUSH32 0x6465706F736974526174696F206D757374206265206265747765656E20302061 PUSH0 DUP3 ADD MSTORE PUSH32 0x6E64203130302000000000000000000000000000000000000000000000000000 PUSH1 0x20 DUP3 ADD MSTORE POP JUMP JUMPDEST PUSH0 PUSH2 0x943 PUSH1 0x27 DUP4 PUSH2 0x8D9 JUMP JUMPDEST SWAP2 POP PUSH2 0x94E DUP3 PUSH2 0x8E9 JUMP JUMPDEST PUSH1 0x40 DUP3 ADD SWAP1 POP SWAP2 SWAP1 POP JUMP JUMPDEST PUSH0 PUSH1 0x20 DUP3 ADD SWAP1 POP DUP2 DUP2 SUB PUSH0 DUP4 ADD MSTORE PUSH2 0x970 DUP2 PUSH2 0x937 JUMP JUMPDEST SWAP1 POP SWAP2 SWAP1 POP JUMP JUMPDEST PUSH32 0x20796F752063616E277420000000000000000000000000000000000000000000 PUSH0 DUP3 ADD MSTORE POP JUMP JUMPDEST PUSH0 PUSH2 0x9AB PUSH1 0xB DUP4 PUSH2 0x8D9 JUMP JUMPDEST SWAP2 POP PUSH2 0x9B6 DUP3 PUSH2 0x977 JUMP JUMPDEST PUSH1 0x20 DUP3 ADD SWAP1 POP SWAP2 SWAP1 POP JUMP JUMPDEST PUSH0 PUSH1 0x20 DUP3 ADD SWAP1 POP DUP2 DUP2 SUB PUSH0 DUP4 ADD MSTORE PUSH2 0x9D8 DUP2 PUSH2 0x99F JUMP JUMPDEST SWAP1 POP SWAP2 SWAP1 POP JUMP JUMPDEST PUSH32 0x4E6F74206F776E65720000000000000000000000000000000000000000000000 PUSH0 DUP3 ADD MSTORE POP JUMP JUMPDEST PUSH0 PUSH2 0xA13 PUSH1 0x9 DUP4 PUSH2 0x8D9 JUMP JUMPDEST SWAP2 POP PUSH2 0xA1E DUP3 PUSH2 0x9DF JUMP JUMPDEST PUSH1 0x20 DUP3 ADD SWAP1 POP SWAP2 SWAP1 POP JUMP JUMPDEST PUSH0 PUSH1 0x20 DUP3 ADD SWAP1 POP DUP2 DUP2 SUB PUSH0 DUP4 ADD MSTORE PUSH2 0xA40 DUP2 PUSH2 0xA07 JUMP JUMPDEST SWAP1 POP SWAP2 SWAP1 POP JUMP JUMPDEST PUSH32 0x206E6F74206861766520656E676F75687420616D6F756E7420746F2077697468 PUSH0 DUP3 ADD MSTORE PUSH32 0x6472617720000000000000000000000000000000000000000000000000000000 PUSH1 0x20 DUP3 ADD MSTORE POP JUMP JUMPDEST PUSH0 PUSH2 0xAA1 PUSH1 0x25 DUP4 PUSH2 0x8D9 JUMP JUMPDEST SWAP2 POP PUSH2 0xAAC DUP3 PUSH2 0xA47 JUMP JUMPDEST PUSH1 0x40 DUP3 ADD SWAP1 POP SWAP2 SWAP1 POP JUMP JUMPDEST PUSH0 PUSH1 0x20 DUP3 ADD SWAP1 POP DUP2 DUP2 SUB PUSH0 DUP4 ADD MSTORE PUSH2 0xACE DUP2 PUSH2 0xA95 JUMP JUMPDEST SWAP1 POP SWAP2 SWAP1 POP JUMP JUMPDEST PUSH32 0x4E487B7100000000000000000000000000000000000000000000000000000000 PUSH0 MSTORE PUSH1 0x32 PUSH1 0x4 MSTORE PUSH1 0x24 PUSH0 REVERT JUMPDEST PUSH0 PUSH2 0xB0C DUP3 PUSH2 0x7C9 JUMP JUMPDEST SWAP2 POP PUSH2 0xB17 DUP4 PUSH2 0x7C9 JUMP JUMPDEST SWAP3 POP DUP3 DUP3 SUB SWAP1 POP DUP2 DUP2 GT ISZERO PUSH2 0xB2F JUMPI PUSH2 0xB2E PUSH2 0x87C JUMP JUMPDEST JUMPDEST SWAP3 SWAP2 POP POP JUMP JUMPDEST PUSH32 0x6E6F7420656E6F75676820636173682000000000000000000000000000000000 PUSH0 DUP3 ADD MSTORE POP JUMP JUMPDEST PUSH0 PUSH2 0xB69 PUSH1 0x10 DUP4 PUSH2 0x8D9 JUMP JUMPDEST SWAP2 POP PUSH2 0xB74 DUP3 PUSH2 0xB35 JUMP JUMPDEST PUSH1 0x20 DUP3 ADD SWAP1 POP SWAP2 SWAP1 POP JUMP JUMPDEST PUSH0 PUSH1 0x20 DUP3 ADD SWAP1 POP DUP2 DUP2 SUB PUSH0 DUP4 ADD MSTORE PUSH2 0xB96 DUP2 PUSH2 0xB5D JUMP JUMPDEST SWAP1 POP SWAP2 SWAP1 POP JUMP JUMPDEST PUSH32 0x6E6565642073656E642065746800000000000000000000000000000000000000 PUSH0 DUP3 ADD MSTORE POP JUMP JUMPDEST PUSH0 PUSH2 0xBD1 PUSH1 0xD DUP4 PUSH2 0x8D9 JUMP JUMPDEST SWAP2 POP PUSH2 0xBDC DUP3 PUSH2 0xB9D JUMP JUMPDEST PUSH1 0x20 DUP3 ADD SWAP1 POP SWAP2 SWAP1 POP JUMP JUMPDEST PUSH0 PUSH1 0x20 DUP3 ADD SWAP1 POP DUP2 DUP2 SUB PUSH0 DUP4 ADD MSTORE PUSH2 0xBFE DUP2 PUSH2 0xBC5 JUMP JUMPDEST SWAP1 POP SWAP2 SWAP1 POP JUMP JUMPDEST PUSH0 PUSH2 0xC0F DUP3 PUSH2 0x7C9 JUMP JUMPDEST SWAP2 POP PUSH2 0xC1A DUP4 PUSH2 0x7C9 JUMP JUMPDEST SWAP3 POP DUP3 DUP3 ADD SWAP1 POP DUP1 DUP3 GT ISZERO PUSH2 0xC32 JUMPI PUSH2 0xC31 PUSH2 0x87C JUMP JUMPDEST JUMPDEST SWAP3 SWAP2 POP POP JUMP JUMPDEST PUSH0 PUSH2 0xC42 DUP3 PUSH2 0x7C9 JUMP JUMPDEST SWAP2 POP PUSH2 0xC4D DUP4 PUSH2 0x7C9 JUMP JUMPDEST SWAP3 POP DUP3 DUP3 MUL PUSH2 0xC5B DUP2 PUSH2 0x7C9 JUMP JUMPDEST SWAP2 POP DUP3 DUP3 DIV DUP5 EQ DUP4 ISZERO OR PUSH2 0xC72 JUMPI PUSH2 0xC71 PUSH2 0x87C JUMP JUMPDEST JUMPDEST POP SWAP3 SWAP2 POP POP JUMP JUMPDEST PUSH0 PUSH2 0xC83 DUP3 PUSH2 0x7C9 JUMP JUMPDEST SWAP2 POP PUSH32 0xFFFFFFFFFFFFFFFFFFFFFFFFFFFFFFFFFFFFFFFFFFFFFFFFFFFFFFFFFFFFFFFF DUP3 SUB PUSH2 0xCB5 JUMPI PUSH2 0xCB4 PUSH2 0x87C JUMP JUMPDEST JUMPDEST PUSH1 0x1 DUP3 ADD SWAP1 POP SWAP2 SWAP1 POP JUMP INVALID LOG2 PUSH5 0x6970667358 0x22 SLT KECCAK256 BYTE PUSH31 0xD54DFDFCA7242E295C833C7A3B42E67FF54C1A606550A656059D4E74E08D64 PUSH20 0x6F6C634300081D00330000000000000000000000 "
		},
		"gasEstimates": {
			"creation": {
				"codeDepositCost": "663600",
				"executionCost": "49224",
				"totalCost": "712824"
			},
			"external": {
				"cash()": "2468",
				"deposit()": "infinite",
				"depositRatio()": "2491",
				"updateDepositRatio(uint256)": "infinite",
				"withdrawCash(uint256)": "infinite",
				"withdrawDeposit(uint256)": "infinite"
			},
			"internal": {
				"getDepistInfo()": "infinite"
			}
		},
		"methodIdentifiers": {
			"cash()": "961be391",
			"deposit()": "d0e30db0",
			"depositRatio()": "c6f0837a",
			"updateDepositRatio(uint256)": "27e092a2",
			"withdrawCash(uint256)": "83e4cccf",
			"withdrawDeposit(uint256)": "33289a46"
		}
	},
	"abi": [
		{
			"inputs": [],
			"stateMutability": "nonpayable",
			"type": "constructor"
		},
		{
			"inputs": [],
			"name": "cash",
			"outputs": [
				{
					"internalType": "uint256",
					"name": "",
					"type": "uint256"
				}
			],
			"stateMutability": "view",
			"type": "function"
		},
		{
			"inputs": [],
			"name": "deposit",
			"outputs": [],
			"stateMutability": "payable",
			"type": "function"
		},
		{
			"inputs": [],
			"name": "depositRatio",
			"outputs": [
				{
					"internalType": "uint256",
					"name": "",
					"type": "uint256"
				}
			],
			"stateMutability": "view",
			"type": "function"
		},
		{
			"inputs": [
				{
					"internalType": "uint256",
					"name": "_depositRatio",
					"type": "uint256"
				}
			],
			"name": "updateDepositRatio",
			"outputs": [],
			"stateMutability": "nonpayable",
			"type": "function"
		},
		{
			"inputs": [
				{
					"internalType": "uint256",
					"name": "amount",
					"type": "uint256"
				}
			],
			"name": "withdrawCash",
			"outputs": [],
			"stateMutability": "nonpayable",
			"type": "function"
		},
		{
			"inputs": [
				{
					"internalType": "uint256",
					"name": "amount",
					"type": "uint256"
				}
			],
			"name": "withdrawDeposit",
			"outputs": [],
			"stateMutability": "nonpayable",
			"type": "function"
		}
	]
}